{
	"contracts/AccessControl.sol": {
		"Access_Control": {
			"abi": [
				{
					"inputs": [],
					"stateMutability": "nonpayable",
					"type": "constructor"
				},
				{
					"anonymous": false,
					"inputs": [
						{
							"indexed": true,
							"internalType": "bytes32",
							"name": "role",
							"type": "bytes32"
						},
						{
							"indexed": true,
							"internalType": "address",
							"name": "account",
							"type": "address"
						}
					],
					"name": "GrantRole",
					"type": "event"
				},
				{
					"anonymous": false,
					"inputs": [
						{
							"indexed": true,
							"internalType": "bytes32",
							"name": "role",
							"type": "bytes32"
						},
						{
							"indexed": true,
							"internalType": "address",
							"name": "account",
							"type": "address"
						}
					],
					"name": "RevokeRole",
					"type": "event"
				},
				{
					"inputs": [
						{
							"internalType": "address",
							"name": "_addr",
							"type": "address"
						}
					],
					"name": "checkDocClrLvl",
					"outputs": [
						{
							"internalType": "uint8",
							"name": "",
							"type": "uint8"
						}
					],
					"stateMutability": "view",
					"type": "function"
				},
				{
					"inputs": [
						{
							"internalType": "address",
							"name": "_addr",
							"type": "address"
						}
					],
					"name": "checkObjClrLvl",
					"outputs": [
						{
							"internalType": "uint8",
							"name": "",
							"type": "uint8"
						}
					],
					"stateMutability": "view",
					"type": "function"
				},
				{
					"inputs": [
						{
							"internalType": "address",
							"name": "_addr",
							"type": "address"
						}
					],
					"name": "isDoctor",
					"outputs": [
						{
							"internalType": "bool",
							"name": "",
							"type": "bool"
						}
					],
					"stateMutability": "view",
					"type": "function"
				},
				{
					"inputs": [
						{
							"internalType": "address",
							"name": "_addr",
							"type": "address"
						}
					],
					"name": "mustBeInternalDoc",
					"outputs": [
						{
							"internalType": "bool",
							"name": "",
							"type": "bool"
						}
					],
					"stateMutability": "view",
					"type": "function"
				},
				{
					"inputs": [
						{
							"internalType": "address",
							"name": "_addr",
							"type": "address"
						}
					],
					"name": "setDoc2Active",
					"outputs": [],
					"stateMutability": "nonpayable",
					"type": "function"
				},
				{
					"inputs": [
						{
							"internalType": "bytes32",
							"name": "_clrLvl",
							"type": "bytes32"
						}
					],
					"name": "setMsgSenderClrLvl",
					"outputs": [],
					"stateMutability": "nonpayable",
					"type": "function"
				},
				{
					"inputs": [
						{
							"internalType": "address",
							"name": "_addr",
							"type": "address"
						}
					],
					"name": "setNewDoc",
					"outputs": [],
					"stateMutability": "nonpayable",
					"type": "function"
				},
				{
					"inputs": [
						{
							"internalType": "address",
							"name": "_addr",
							"type": "address"
						},
						{
							"internalType": "bytes32",
							"name": "_ClrLvl",
							"type": "bytes32"
						},
						{
							"internalType": "bytes32",
							"name": "_GrpOrg",
							"type": "bytes32"
						}
					],
					"name": "setNewDocClrRec",
					"outputs": [],
					"stateMutability": "nonpayable",
					"type": "function"
				},
				{
					"inputs": [
						{
							"internalType": "address",
							"name": "_objAddr",
							"type": "address"
						},
						{
							"internalType": "bytes32",
							"name": "_clrLvl",
							"type": "bytes32"
						},
						{
							"internalType": "enum Access_Control.ClearenceLevel",
							"name": "_clr",
							"type": "uint8"
						}
					],
					"name": "setNewObjClr",
					"outputs": [],
					"stateMutability": "nonpayable",
					"type": "function"
				},
				{
					"inputs": [],
					"name": "toggleDocActive",
					"outputs": [
						{
							"internalType": "bool",
							"name": "",
							"type": "bool"
						}
					],
					"stateMutability": "nonpayable",
					"type": "function"
				},
				{
					"inputs": [],
					"name": "toggleDoctors",
					"outputs": [
						{
							"internalType": "bool",
							"name": "",
							"type": "bool"
						}
					],
					"stateMutability": "nonpayable",
					"type": "function"
				}
			],
			"devdoc": {
				"kind": "dev",
				"methods": {},
				"version": 1
			},
			"evm": {
				"assembly": "    /* \"contracts/AccessControl.sol\":423:8056  contract Access_Control {\r... */\n  mstore(0x40, 0x80)\n    /* \"contracts/AccessControl.sol\":1722:2402  constructor () {\r... */\n  callvalue\n  dup1\n  iszero\n  tag_1\n  jumpi\n  0x00\n  dup1\n  revert\ntag_1:\n  pop\n    /* \"contracts/AccessControl.sol\":1813:1817  true */\n  0x01\n    /* \"contracts/AccessControl.sol\":1791:1798  doctors */\n  dup1\n    /* \"contracts/AccessControl.sol\":1791:1810  doctors[msg.sender] */\n  0x00\n    /* \"contracts/AccessControl.sol\":1799:1809  msg.sender */\n  caller\n    /* \"contracts/AccessControl.sol\":1791:1810  doctors[msg.sender] */\n  0xffffffffffffffffffffffffffffffffffffffff\n  and\n  0xffffffffffffffffffffffffffffffffffffffff\n  and\n  dup2\n  mstore\n  0x20\n  add\n  swap1\n  dup2\n  mstore\n  0x20\n  add\n  0x00\n  keccak256\n  0x00\n    /* \"contracts/AccessControl.sol\":1791:1817  doctors[msg.sender] = true */\n  0x0100\n  exp\n  dup2\n  sload\n  dup2\n  0xff\n  mul\n  not\n  and\n  swap1\n  dup4\n  iszero\n  iszero\n  mul\n  or\n  swap1\n  sstore\n  pop\n    /* \"contracts/AccessControl.sol\":1854:1858  true */\n  0x01\n    /* \"contracts/AccessControl.sol\":1828:1839  isDocActive */\n  0x02\n    /* \"contracts/AccessControl.sol\":1828:1851  isDocActive[msg.sender] */\n  0x00\n    /* \"contracts/AccessControl.sol\":1840:1850  msg.sender */\n  caller\n    /* \"contracts/AccessControl.sol\":1828:1851  isDocActive[msg.sender] */\n  0xffffffffffffffffffffffffffffffffffffffff\n  and\n  0xffffffffffffffffffffffffffffffffffffffff\n  and\n  dup2\n  mstore\n  0x20\n  add\n  swap1\n  dup2\n  mstore\n  0x20\n  add\n  0x00\n  keccak256\n  0x00\n    /* \"contracts/AccessControl.sol\":1828:1858  isDocActive[msg.sender] = true */\n  0x0100\n  exp\n  dup2\n  sload\n  dup2\n  0xff\n  mul\n  not\n  and\n  swap1\n  dup4\n  iszero\n  iszero\n  mul\n  or\n  swap1\n  sstore\n  pop\n    /* \"contracts/AccessControl.sol\":2028:2094  0xe6ed86d632a71c92fc78ee69edb0bb73ffd8753aecbcea56fb4b61c6d5d6eb55 */\n  0xe6ed86d632a71c92fc78ee69edb0bb73ffd8753aecbcea56fb4b61c6d5d6eb55\n    /* \"contracts/AccessControl.sol\":1996:2094  clrRecords[msg.sender].ClrLvl = 0xe6ed86d632a71c92fc78ee69edb0bb73ffd8753aecbcea56fb4b61c6d5d6eb55 */\n  0x00\n  shl\n    /* \"contracts/AccessControl.sol\":1996:2006  clrRecords */\n  0x03\n    /* \"contracts/AccessControl.sol\":1996:2018  clrRecords[msg.sender] */\n  0x00\n    /* \"contracts/AccessControl.sol\":2007:2017  msg.sender */\n  caller\n    /* \"contracts/AccessControl.sol\":1996:2018  clrRecords[msg.sender] */\n  0xffffffffffffffffffffffffffffffffffffffff\n  and\n  0xffffffffffffffffffffffffffffffffffffffff\n  and\n  dup2\n  mstore\n  0x20\n  add\n  swap1\n  dup2\n  mstore\n  0x20\n  add\n  0x00\n  keccak256\n    /* \"contracts/AccessControl.sol\":1996:2025  clrRecords[msg.sender].ClrLvl */\n  0x00\n  add\n    /* \"contracts/AccessControl.sol\":1996:2094  clrRecords[msg.sender].ClrLvl = 0xe6ed86d632a71c92fc78ee69edb0bb73ffd8753aecbcea56fb4b61c6d5d6eb55 */\n  dup2\n  swap1\n  sstore\n  pop\n    /* \"contracts/AccessControl.sol\":2137:2203  0x62e462c3db967710b1e6fa7fa197989f3de6a7b5977c1c87b6bab9a4f32f19e0 */\n  0x62e462c3db967710b1e6fa7fa197989f3de6a7b5977c1c87b6bab9a4f32f19e0\n    /* \"contracts/AccessControl.sol\":2105:2203  clrRecords[msg.sender].GrpOrg = 0x62e462c3db967710b1e6fa7fa197989f3de6a7b5977c1c87b6bab9a4f32f19e0 */\n  0x00\n  shl\n    /* \"contracts/AccessControl.sol\":2105:2115  clrRecords */\n  0x03\n    /* \"contracts/AccessControl.sol\":2105:2127  clrRecords[msg.sender] */\n  0x00\n    /* \"contracts/AccessControl.sol\":2116:2126  msg.sender */\n  caller\n    /* \"contracts/AccessControl.sol\":2105:2127  clrRecords[msg.sender] */\n  0xffffffffffffffffffffffffffffffffffffffff\n  and\n  0xffffffffffffffffffffffffffffffffffffffff\n  and\n  dup2\n  mstore\n  0x20\n  add\n  swap1\n  dup2\n  mstore\n  0x20\n  add\n  0x00\n  keccak256\n    /* \"contracts/AccessControl.sol\":2105:2134  clrRecords[msg.sender].GrpOrg */\n  0x01\n  add\n    /* \"contracts/AccessControl.sol\":2105:2203  clrRecords[msg.sender].GrpOrg = 0x62e462c3db967710b1e6fa7fa197989f3de6a7b5977c1c87b6bab9a4f32f19e0 */\n  dup2\n  swap1\n  sstore\n  pop\n    /* \"contracts/AccessControl.sol\":423:8056  contract Access_Control {\r... */\n  dataSize(sub_0)\n  dup1\n  dataOffset(sub_0)\n  0x00\n  codecopy\n  0x00\n  return\nstop\n\nsub_0: assembly {\n        /* \"contracts/AccessControl.sol\":423:8056  contract Access_Control {\r... */\n      mstore(0x40, 0x80)\n      callvalue\n      dup1\n      iszero\n      tag_1\n      jumpi\n      0x00\n      dup1\n      revert\n    tag_1:\n      pop\n      jumpi(tag_2, lt(calldatasize, 0x04))\n      shr(0xe0, calldataload(0x00))\n      dup1\n      0x665057ef\n      gt\n      tag_14\n      jumpi\n      dup1\n      0x665057ef\n      eq\n      tag_8\n      jumpi\n      dup1\n      0x68f1130f\n      eq\n      tag_9\n      jumpi\n      dup1\n      0x81eaba9a\n      eq\n      tag_10\n      jumpi\n      dup1\n      0x996440c6\n      eq\n      tag_11\n      jumpi\n      dup1\n      0xdb189d43\n      eq\n      tag_12\n      jumpi\n      dup1\n      0xf1ac2d66\n      eq\n      tag_13\n      jumpi\n      jump(tag_2)\n    tag_14:\n      dup1\n      0x1d919395\n      eq\n      tag_3\n      jumpi\n      dup1\n      0x3c779869\n      eq\n      tag_4\n      jumpi\n      dup1\n      0x41d49487\n      eq\n      tag_5\n      jumpi\n      dup1\n      0x586008ef\n      eq\n      tag_6\n      jumpi\n      dup1\n      0x589421f2\n      eq\n      tag_7\n      jumpi\n    tag_2:\n      0x00\n      dup1\n      revert\n        /* \"contracts/AccessControl.sol\":3183:3266  function setNewDoc(address _addr) external {\r... */\n    tag_3:\n      tag_15\n      0x04\n      dup1\n      calldatasize\n      sub\n      dup2\n      add\n      swap1\n      tag_16\n      swap2\n      swap1\n      tag_17\n      jump\t// in\n    tag_16:\n      tag_18\n      jump\t// in\n    tag_15:\n      stop\n        /* \"contracts/AccessControl.sol\":4756:4963  function mustBeInternalDoc(address _addr) external view returns(bool){\r... */\n    tag_4:\n      tag_19\n      0x04\n      dup1\n      calldatasize\n      sub\n      dup2\n      add\n      swap1\n      tag_20\n      swap2\n      swap1\n      tag_17\n      jump\t// in\n    tag_20:\n      tag_21\n      jump\t// in\n    tag_19:\n      mload(0x40)\n      tag_22\n      swap2\n      swap1\n      tag_23\n      jump\t// in\n    tag_22:\n      mload(0x40)\n      dup1\n      swap2\n      sub\n      swap1\n      return\n        /* \"contracts/AccessControl.sol\":3274:3365  function setDoc2Active(address _addr) external {\r... */\n    tag_5:\n      tag_24\n      0x04\n      dup1\n      calldatasize\n      sub\n      dup2\n      add\n      swap1\n      tag_25\n      swap2\n      swap1\n      tag_17\n      jump\t// in\n    tag_25:\n      tag_26\n      jump\t// in\n    tag_24:\n      stop\n        /* \"contracts/AccessControl.sol\":7310:7425  function toggleDoctors() external returns(bool){\r... */\n    tag_6:\n      tag_27\n      tag_28\n      jump\t// in\n    tag_27:\n      mload(0x40)\n      tag_29\n      swap2\n      swap1\n      tag_23\n      jump\t// in\n    tag_29:\n      mload(0x40)\n      dup1\n      swap2\n      sub\n      swap1\n      return\n        /* \"contracts/AccessControl.sol\":6540:6881  function setNewObjClr(address _objAddr, bytes32 _clrLvl, ClearenceLevel _clr) external {\r... */\n    tag_7:\n      tag_30\n      0x04\n      dup1\n      calldatasize\n      sub\n      dup2\n      add\n      swap1\n      tag_31\n      swap2\n      swap1\n      tag_32\n      jump\t// in\n    tag_31:\n      tag_33\n      jump\t// in\n    tag_30:\n      stop\n        /* \"contracts/AccessControl.sol\":5119:5709  function checkDocClrLvl(address _addr) external view returns(uint8){\r... */\n    tag_8:\n      tag_34\n      0x04\n      dup1\n      calldatasize\n      sub\n      dup2\n      add\n      swap1\n      tag_35\n      swap2\n      swap1\n      tag_17\n      jump\t// in\n    tag_35:\n      tag_36\n      jump\t// in\n    tag_34:\n      mload(0x40)\n      tag_37\n      swap2\n      swap1\n      tag_38\n      jump\t// in\n    tag_37:\n      mload(0x40)\n      dup1\n      swap2\n      sub\n      swap1\n      return\n        /* \"contracts/AccessControl.sol\":7433:7558  function toggleDocActive() external returns(bool){\r... */\n    tag_9:\n      tag_39\n      tag_40\n      jump\t// in\n    tag_39:\n      mload(0x40)\n      tag_41\n      swap2\n      swap1\n      tag_23\n      jump\t// in\n    tag_41:\n      mload(0x40)\n      dup1\n      swap2\n      sub\n      swap1\n      return\n        /* \"contracts/AccessControl.sol\":7939:8051  function setMsgSenderClrLvl(bytes32 _clrLvl) external {\r... */\n    tag_10:\n      tag_42\n      0x04\n      dup1\n      calldatasize\n      sub\n      dup2\n      add\n      swap1\n      tag_43\n      swap2\n      swap1\n      tag_44\n      jump\t// in\n    tag_43:\n      tag_45\n      jump\t// in\n    tag_42:\n      stop\n        /* \"contracts/AccessControl.sol\":2876:3136  function isDoctor(address _addr) external view returns(bool){\r... */\n    tag_11:\n      tag_46\n      0x04\n      dup1\n      calldatasize\n      sub\n      dup2\n      add\n      swap1\n      tag_47\n      swap2\n      swap1\n      tag_17\n      jump\t// in\n    tag_47:\n      tag_48\n      jump\t// in\n    tag_46:\n      mload(0x40)\n      tag_49\n      swap2\n      swap1\n      tag_23\n      jump\t// in\n    tag_49:\n      mload(0x40)\n      dup1\n      swap2\n      sub\n      swap1\n      return\n        /* \"contracts/AccessControl.sol\":5752:6107  function setNewDocClrRec(address _addr, bytes32 _ClrLvl, bytes32 _GrpOrg) external {\r... */\n    tag_12:\n      tag_50\n      0x04\n      dup1\n      calldatasize\n      sub\n      dup2\n      add\n      swap1\n      tag_51\n      swap2\n      swap1\n      tag_52\n      jump\t// in\n    tag_51:\n      tag_53\n      jump\t// in\n    tag_50:\n      stop\n        /* \"contracts/AccessControl.sol\":6889:7016  function checkObjClrLvl(address _addr) external view returns(uint8) {\r... */\n    tag_13:\n      tag_54\n      0x04\n      dup1\n      calldatasize\n      sub\n      dup2\n      add\n      swap1\n      tag_55\n      swap2\n      swap1\n      tag_17\n      jump\t// in\n    tag_55:\n      tag_56\n      jump\t// in\n    tag_54:\n      mload(0x40)\n      tag_57\n      swap2\n      swap1\n      tag_38\n      jump\t// in\n    tag_57:\n      mload(0x40)\n      dup1\n      swap2\n      sub\n      swap1\n      return\n        /* \"contracts/AccessControl.sol\":3183:3266  function setNewDoc(address _addr) external {\r... */\n    tag_18:\n        /* \"contracts/AccessControl.sol\":3254:3258  true */\n      0x01\n        /* \"contracts/AccessControl.sol\":3237:3244  doctors */\n      dup1\n        /* \"contracts/AccessControl.sol\":3237:3251  doctors[_addr] */\n      0x00\n        /* \"contracts/AccessControl.sol\":3245:3250  _addr */\n      dup4\n        /* \"contracts/AccessControl.sol\":3237:3251  doctors[_addr] */\n      0xffffffffffffffffffffffffffffffffffffffff\n      and\n      0xffffffffffffffffffffffffffffffffffffffff\n      and\n      dup2\n      mstore\n      0x20\n      add\n      swap1\n      dup2\n      mstore\n      0x20\n      add\n      0x00\n      keccak256\n      0x00\n        /* \"contracts/AccessControl.sol\":3237:3258  doctors[_addr] = true */\n      0x0100\n      exp\n      dup2\n      sload\n      dup2\n      0xff\n      mul\n      not\n      and\n      swap1\n      dup4\n      iszero\n      iszero\n      mul\n      or\n      swap1\n      sstore\n      pop\n        /* \"contracts/AccessControl.sol\":3183:3266  function setNewDoc(address _addr) external {\r... */\n      pop\n      jump\t// out\n        /* \"contracts/AccessControl.sol\":4756:4963  function mustBeInternalDoc(address _addr) external view returns(bool){\r... */\n    tag_21:\n        /* \"contracts/AccessControl.sol\":4820:4824  bool */\n      0x00\n        /* \"contracts/AccessControl.sol\":1672:1712  abi.encodePacked(\"INTERNAL_DEPARTMENTS\") */\n      add(0x20, mload(0x40))\n      tag_60\n      swap1\n      tag_61\n      jump\t// in\n    tag_60:\n      mload(0x40)\n      0x20\n      dup2\n      dup4\n      sub\n      sub\n      dup2\n      mstore\n      swap1\n      0x40\n      mstore\n        /* \"contracts/AccessControl.sol\":1662:1713  keccak256(abi.encodePacked(\"INTERNAL_DEPARTMENTS\")) */\n      dup1\n      mload\n      swap1\n      0x20\n      add\n      keccak256\n        /* \"contracts/AccessControl.sol\":4844:4854  clrRecords */\n      0x03\n        /* \"contracts/AccessControl.sol\":4844:4861  clrRecords[_addr] */\n      0x00\n        /* \"contracts/AccessControl.sol\":4855:4860  _addr */\n      dup5\n        /* \"contracts/AccessControl.sol\":4844:4861  clrRecords[_addr] */\n      0xffffffffffffffffffffffffffffffffffffffff\n      and\n      0xffffffffffffffffffffffffffffffffffffffff\n      and\n      dup2\n      mstore\n      0x20\n      add\n      swap1\n      dup2\n      mstore\n      0x20\n      add\n      0x00\n      keccak256\n        /* \"contracts/AccessControl.sol\":4844:4868  clrRecords[_addr].GrpOrg */\n      0x01\n      add\n      sload\n        /* \"contracts/AccessControl.sol\":4844:4892  clrRecords[_addr].GrpOrg == INTERNAL_DEPARTMENTS */\n      eq\n        /* \"contracts/AccessControl.sol\":4836:4933  require(clrRecords[_addr].GrpOrg == INTERNAL_DEPARTMENTS, \"Only Local Doctors are Authorized!!!\") */\n      tag_62\n      jumpi\n      mload(0x40)\n      0x08c379a000000000000000000000000000000000000000000000000000000000\n      dup2\n      mstore\n      0x04\n      add\n      tag_63\n      swap1\n      tag_64\n      jump\t// in\n    tag_63:\n      mload(0x40)\n      dup1\n      swap2\n      sub\n      swap1\n      revert\n    tag_62:\n        /* \"contracts/AccessControl.sol\":4951:4955  true */\n      0x01\n        /* \"contracts/AccessControl.sol\":4944:4955  return true */\n      swap1\n      pop\n        /* \"contracts/AccessControl.sol\":4756:4963  function mustBeInternalDoc(address _addr) external view returns(bool){\r... */\n      swap2\n      swap1\n      pop\n      jump\t// out\n        /* \"contracts/AccessControl.sol\":3274:3365  function setDoc2Active(address _addr) external {\r... */\n    tag_26:\n        /* \"contracts/AccessControl.sol\":3353:3357  true */\n      0x01\n        /* \"contracts/AccessControl.sol\":3332:3343  isDocActive */\n      0x02\n        /* \"contracts/AccessControl.sol\":3332:3350  isDocActive[_addr] */\n      0x00\n        /* \"contracts/AccessControl.sol\":3344:3349  _addr */\n      dup4\n        /* \"contracts/AccessControl.sol\":3332:3350  isDocActive[_addr] */\n      0xffffffffffffffffffffffffffffffffffffffff\n      and\n      0xffffffffffffffffffffffffffffffffffffffff\n      and\n      dup2\n      mstore\n      0x20\n      add\n      swap1\n      dup2\n      mstore\n      0x20\n      add\n      0x00\n      keccak256\n      0x00\n        /* \"contracts/AccessControl.sol\":3332:3357  isDocActive[_addr] = true */\n      0x0100\n      exp\n      dup2\n      sload\n      dup2\n      0xff\n      mul\n      not\n      and\n      swap1\n      dup4\n      iszero\n      iszero\n      mul\n      or\n      swap1\n      sstore\n      pop\n        /* \"contracts/AccessControl.sol\":3274:3365  function setDoc2Active(address _addr) external {\r... */\n      pop\n      jump\t// out\n        /* \"contracts/AccessControl.sol\":7310:7425  function toggleDoctors() external returns(bool){\r... */\n    tag_28:\n        /* \"contracts/AccessControl.sol\":7352:7356  bool */\n      0x00\n        /* \"contracts/AccessControl.sol\":7398:7405  doctors */\n      0x01\n        /* \"contracts/AccessControl.sol\":7398:7417  doctors[msg.sender] */\n      0x00\n        /* \"contracts/AccessControl.sol\":7406:7416  msg.sender */\n      caller\n        /* \"contracts/AccessControl.sol\":7398:7417  doctors[msg.sender] */\n      0xffffffffffffffffffffffffffffffffffffffff\n      and\n      0xffffffffffffffffffffffffffffffffffffffff\n      and\n      dup2\n      mstore\n      0x20\n      add\n      swap1\n      dup2\n      mstore\n      0x20\n      add\n      0x00\n      keccak256\n      0x00\n      swap1\n      sload\n      swap1\n      0x0100\n      exp\n      swap1\n      div\n      0xff\n      and\n        /* \"contracts/AccessControl.sol\":7397:7417  !doctors[msg.sender] */\n      iszero\n        /* \"contracts/AccessControl.sol\":7375:7382  doctors */\n      0x01\n        /* \"contracts/AccessControl.sol\":7375:7394  doctors[msg.sender] */\n      0x00\n        /* \"contracts/AccessControl.sol\":7383:7393  msg.sender */\n      caller\n        /* \"contracts/AccessControl.sol\":7375:7394  doctors[msg.sender] */\n      0xffffffffffffffffffffffffffffffffffffffff\n      and\n      0xffffffffffffffffffffffffffffffffffffffff\n      and\n      dup2\n      mstore\n      0x20\n      add\n      swap1\n      dup2\n      mstore\n      0x20\n      add\n      0x00\n      keccak256\n      0x00\n        /* \"contracts/AccessControl.sol\":7375:7417  doctors[msg.sender] = !doctors[msg.sender] */\n      0x0100\n      exp\n      dup2\n      sload\n      dup2\n      0xff\n      mul\n      not\n      and\n      swap1\n      dup4\n      iszero\n      iszero\n      mul\n      or\n      swap1\n      sstore\n        /* \"contracts/AccessControl.sol\":7368:7417  return doctors[msg.sender] = !doctors[msg.sender] */\n      swap1\n      pop\n        /* \"contracts/AccessControl.sol\":7310:7425  function toggleDoctors() external returns(bool){\r... */\n      swap1\n      jump\t// out\n        /* \"contracts/AccessControl.sol\":6540:6881  function setNewObjClr(address _objAddr, bytes32 _clrLvl, ClearenceLevel _clr) external {\r... */\n    tag_33:\n        /* \"contracts/AccessControl.sol\":6660:6661  0 */\n      0x00\n        /* \"contracts/AccessControl.sol\":6652:6656  _clr */\n      dup2\n        /* \"contracts/AccessControl.sol\":6646:6657  uint8(_clr) */\n      0x04\n      dup2\n      gt\n      iszero\n      tag_68\n      jumpi\n      tag_69\n      tag_70\n      jump\t// in\n    tag_69:\n    tag_68:\n        /* \"contracts/AccessControl.sol\":6646:6661  uint8(_clr) > 0 */\n      0xff\n      and\n      gt\n        /* \"contracts/AccessControl.sol\":6638:6703  require(uint8(_clr) > 0, \"Clearence Level Must Be Bigger than 0\") */\n      tag_71\n      jumpi\n      mload(0x40)\n      0x08c379a000000000000000000000000000000000000000000000000000000000\n      dup2\n      mstore\n      0x04\n      add\n      tag_72\n      swap1\n      tag_73\n      jump\t// in\n    tag_72:\n      mload(0x40)\n      dup1\n      swap2\n      sub\n      swap1\n      revert\n    tag_71:\n        /* \"contracts/AccessControl.sol\":6819:6826  _clrLvl */\n      dup2\n        /* \"contracts/AccessControl.sol\":6784:6799  objectClearence */\n      0x04\n        /* \"contracts/AccessControl.sol\":6784:6809  objectClearence[_objAddr] */\n      0x00\n        /* \"contracts/AccessControl.sol\":6800:6808  _objAddr */\n      dup6\n        /* \"contracts/AccessControl.sol\":6784:6809  objectClearence[_objAddr] */\n      0xffffffffffffffffffffffffffffffffffffffff\n      and\n      0xffffffffffffffffffffffffffffffffffffffff\n      and\n      dup2\n      mstore\n      0x20\n      add\n      swap1\n      dup2\n      mstore\n      0x20\n      add\n      0x00\n      keccak256\n        /* \"contracts/AccessControl.sol\":6784:6816  objectClearence[_objAddr].clrLvl */\n      0x00\n      add\n        /* \"contracts/AccessControl.sol\":6784:6826  objectClearence[_objAddr].clrLvl = _clrLvl */\n      dup2\n      swap1\n      sstore\n      pop\n        /* \"contracts/AccessControl.sol\":6869:6873  _clr */\n      dup1\n        /* \"contracts/AccessControl.sol\":6837:6852  objectClearence */\n      0x04\n        /* \"contracts/AccessControl.sol\":6837:6862  objectClearence[_objAddr] */\n      0x00\n        /* \"contracts/AccessControl.sol\":6853:6861  _objAddr */\n      dup6\n        /* \"contracts/AccessControl.sol\":6837:6862  objectClearence[_objAddr] */\n      0xffffffffffffffffffffffffffffffffffffffff\n      and\n      0xffffffffffffffffffffffffffffffffffffffff\n      and\n      dup2\n      mstore\n      0x20\n      add\n      swap1\n      dup2\n      mstore\n      0x20\n      add\n      0x00\n      keccak256\n        /* \"contracts/AccessControl.sol\":6837:6866  objectClearence[_objAddr].clr */\n      0x01\n      add\n      0x00\n        /* \"contracts/AccessControl.sol\":6837:6873  objectClearence[_objAddr].clr = _clr */\n      0x0100\n      exp\n      dup2\n      sload\n      dup2\n      0xff\n      mul\n      not\n      and\n      swap1\n      dup4\n      0x04\n      dup2\n      gt\n      iszero\n      tag_74\n      jumpi\n      tag_75\n      tag_70\n      jump\t// in\n    tag_75:\n    tag_74:\n      mul\n      or\n      swap1\n      sstore\n      pop\n        /* \"contracts/AccessControl.sol\":6540:6881  function setNewObjClr(address _objAddr, bytes32 _clrLvl, ClearenceLevel _clr) external {\r... */\n      pop\n      pop\n      pop\n      jump\t// out\n        /* \"contracts/AccessControl.sol\":5119:5709  function checkDocClrLvl(address _addr) external view returns(uint8){\r... */\n    tag_36:\n        /* \"contracts/AccessControl.sol\":5180:5185  uint8 */\n      0x00\n        /* \"contracts/AccessControl.sol\":3733:3766  abi.encodePacked(\"Top_Clearence\") */\n      add(0x20, mload(0x40))\n      tag_77\n      swap1\n      tag_78\n      jump\t// in\n    tag_77:\n      mload(0x40)\n      0x20\n      dup2\n      dup4\n      sub\n      sub\n      dup2\n      mstore\n      swap1\n      0x40\n      mstore\n        /* \"contracts/AccessControl.sol\":3723:3767  keccak256(abi.encodePacked(\"Top_Clearence\")) */\n      dup1\n      mload\n      swap1\n      0x20\n      add\n      keccak256\n        /* \"contracts/AccessControl.sol\":5205:5215  clrRecords */\n      0x03\n        /* \"contracts/AccessControl.sol\":5205:5222  clrRecords[_addr] */\n      0x00\n        /* \"contracts/AccessControl.sol\":5216:5221  _addr */\n      dup5\n        /* \"contracts/AccessControl.sol\":5205:5222  clrRecords[_addr] */\n      0xffffffffffffffffffffffffffffffffffffffff\n      and\n      0xffffffffffffffffffffffffffffffffffffffff\n      and\n      dup2\n      mstore\n      0x20\n      add\n      swap1\n      dup2\n      mstore\n      0x20\n      add\n      0x00\n      keccak256\n        /* \"contracts/AccessControl.sol\":5205:5229  clrRecords[_addr].ClrLvl */\n      0x00\n      add\n      sload\n        /* \"contracts/AccessControl.sol\":5205:5246  clrRecords[_addr].ClrLvl == Top_Clearence */\n      eq\n        /* \"contracts/AccessControl.sol\":5201:5702  if (clrRecords[_addr].ClrLvl == Top_Clearence) { return uint8(ClearenceLevel.Top_Clearence);}\r... */\n      iszero\n      tag_79\n      jumpi\n        /* \"contracts/AccessControl.sol\":5263:5291  ClearenceLevel.Top_Clearence */\n      0x04\n        /* \"contracts/AccessControl.sol\":5257:5292  uint8(ClearenceLevel.Top_Clearence) */\n      dup1\n      dup2\n      gt\n      iszero\n      tag_80\n      jumpi\n      tag_81\n      tag_70\n      jump\t// in\n    tag_81:\n    tag_80:\n        /* \"contracts/AccessControl.sol\":5250:5292  return uint8(ClearenceLevel.Top_Clearence) */\n      swap1\n      pop\n      jump(tag_76)\n        /* \"contracts/AccessControl.sol\":5201:5702  if (clrRecords[_addr].ClrLvl == Top_Clearence) { return uint8(ClearenceLevel.Top_Clearence);}\r... */\n    tag_79:\n        /* \"contracts/AccessControl.sol\":3901:3935  abi.encodePacked(\"High_Clearence\") */\n      add(0x20, mload(0x40))\n      tag_83\n      swap1\n      tag_84\n      jump\t// in\n    tag_83:\n      mload(0x40)\n      0x20\n      dup2\n      dup4\n      sub\n      sub\n      dup2\n      mstore\n      swap1\n      0x40\n      mstore\n        /* \"contracts/AccessControl.sol\":3891:3936  keccak256(abi.encodePacked(\"High_Clearence\")) */\n      dup1\n      mload\n      swap1\n      0x20\n      add\n      keccak256\n        /* \"contracts/AccessControl.sol\":5317:5327  clrRecords */\n      0x03\n        /* \"contracts/AccessControl.sol\":5317:5334  clrRecords[_addr] */\n      0x00\n        /* \"contracts/AccessControl.sol\":5328:5333  _addr */\n      dup5\n        /* \"contracts/AccessControl.sol\":5317:5334  clrRecords[_addr] */\n      0xffffffffffffffffffffffffffffffffffffffff\n      and\n      0xffffffffffffffffffffffffffffffffffffffff\n      and\n      dup2\n      mstore\n      0x20\n      add\n      swap1\n      dup2\n      mstore\n      0x20\n      add\n      0x00\n      keccak256\n        /* \"contracts/AccessControl.sol\":5317:5341  clrRecords[_addr].ClrLvl */\n      0x00\n      add\n      sload\n        /* \"contracts/AccessControl.sol\":5317:5359  clrRecords[_addr].ClrLvl == High_Clearence */\n      eq\n        /* \"contracts/AccessControl.sol\":5313:5702  if (clrRecords[_addr].ClrLvl == High_Clearence) { return uint8(ClearenceLevel.High_Clearence);}\r... */\n      iszero\n      tag_85\n      jumpi\n        /* \"contracts/AccessControl.sol\":5376:5405  ClearenceLevel.High_Clearence */\n      0x03\n        /* \"contracts/AccessControl.sol\":5370:5406  uint8(ClearenceLevel.High_Clearence) */\n      0x04\n      dup2\n      gt\n      iszero\n      tag_86\n      jumpi\n      tag_87\n      tag_70\n      jump\t// in\n    tag_87:\n    tag_86:\n        /* \"contracts/AccessControl.sol\":5363:5406  return uint8(ClearenceLevel.High_Clearence) */\n      swap1\n      pop\n      jump(tag_76)\n        /* \"contracts/AccessControl.sol\":5313:5702  if (clrRecords[_addr].ClrLvl == High_Clearence) { return uint8(ClearenceLevel.High_Clearence);}\r... */\n    tag_85:\n        /* \"contracts/AccessControl.sol\":4072:4108  abi.encodePacked(\"Normal_Clearence\") */\n      add(0x20, mload(0x40))\n      tag_89\n      swap1\n      tag_90\n      jump\t// in\n    tag_89:\n      mload(0x40)\n      0x20\n      dup2\n      dup4\n      sub\n      sub\n      dup2\n      mstore\n      swap1\n      0x40\n      mstore\n        /* \"contracts/AccessControl.sol\":4062:4109  keccak256(abi.encodePacked(\"Normal_Clearence\")) */\n      dup1\n      mload\n      swap1\n      0x20\n      add\n      keccak256\n        /* \"contracts/AccessControl.sol\":5431:5441  clrRecords */\n      0x03\n        /* \"contracts/AccessControl.sol\":5431:5448  clrRecords[_addr] */\n      0x00\n        /* \"contracts/AccessControl.sol\":5442:5447  _addr */\n      dup5\n        /* \"contracts/AccessControl.sol\":5431:5448  clrRecords[_addr] */\n      0xffffffffffffffffffffffffffffffffffffffff\n      and\n      0xffffffffffffffffffffffffffffffffffffffff\n      and\n      dup2\n      mstore\n      0x20\n      add\n      swap1\n      dup2\n      mstore\n      0x20\n      add\n      0x00\n      keccak256\n        /* \"contracts/AccessControl.sol\":5431:5455  clrRecords[_addr].ClrLvl */\n      0x00\n      add\n      sload\n        /* \"contracts/AccessControl.sol\":5431:5475  clrRecords[_addr].ClrLvl == Normal_Clearence */\n      eq\n        /* \"contracts/AccessControl.sol\":5427:5702  if (clrRecords[_addr].ClrLvl == Normal_Clearence) { return uint8(ClearenceLevel.Normal_Clearence);}\r... */\n      iszero\n      tag_91\n      jumpi\n        /* \"contracts/AccessControl.sol\":5492:5523  ClearenceLevel.Normal_Clearence */\n      0x02\n        /* \"contracts/AccessControl.sol\":5486:5524  uint8(ClearenceLevel.Normal_Clearence) */\n      0x04\n      dup2\n      gt\n      iszero\n      tag_92\n      jumpi\n      tag_93\n      tag_70\n      jump\t// in\n    tag_93:\n    tag_92:\n        /* \"contracts/AccessControl.sol\":5479:5524  return uint8(ClearenceLevel.Normal_Clearence) */\n      swap1\n      pop\n      jump(tag_76)\n        /* \"contracts/AccessControl.sol\":5427:5702  if (clrRecords[_addr].ClrLvl == Normal_Clearence) { return uint8(ClearenceLevel.Normal_Clearence);}\r... */\n    tag_91:\n        /* \"contracts/AccessControl.sol\":4242:4275  abi.encodePacked(\"Low_Clearence\") */\n      add(0x20, mload(0x40))\n      tag_95\n      swap1\n      tag_96\n      jump\t// in\n    tag_95:\n      mload(0x40)\n      0x20\n      dup2\n      dup4\n      sub\n      sub\n      dup2\n      mstore\n      swap1\n      0x40\n      mstore\n        /* \"contracts/AccessControl.sol\":4232:4276  keccak256(abi.encodePacked(\"Low_Clearence\")) */\n      dup1\n      mload\n      swap1\n      0x20\n      add\n      keccak256\n        /* \"contracts/AccessControl.sol\":5549:5559  clrRecords */\n      0x03\n        /* \"contracts/AccessControl.sol\":5549:5566  clrRecords[_addr] */\n      0x00\n        /* \"contracts/AccessControl.sol\":5560:5565  _addr */\n      dup5\n        /* \"contracts/AccessControl.sol\":5549:5566  clrRecords[_addr] */\n      0xffffffffffffffffffffffffffffffffffffffff\n      and\n      0xffffffffffffffffffffffffffffffffffffffff\n      and\n      dup2\n      mstore\n      0x20\n      add\n      swap1\n      dup2\n      mstore\n      0x20\n      add\n      0x00\n      keccak256\n        /* \"contracts/AccessControl.sol\":5549:5573  clrRecords[_addr].ClrLvl */\n      0x00\n      add\n      sload\n        /* \"contracts/AccessControl.sol\":5549:5590  clrRecords[_addr].ClrLvl == Low_Clearence */\n      eq\n        /* \"contracts/AccessControl.sol\":5545:5702  if (clrRecords[_addr].ClrLvl == Low_Clearence) { return uint8(ClearenceLevel.Low_Clearence);}\r... */\n      iszero\n      tag_97\n      jumpi\n        /* \"contracts/AccessControl.sol\":5607:5635  ClearenceLevel.Low_Clearence */\n      0x01\n        /* \"contracts/AccessControl.sol\":5601:5636  uint8(ClearenceLevel.Low_Clearence) */\n      0x04\n      dup2\n      gt\n      iszero\n      tag_98\n      jumpi\n      tag_99\n      tag_70\n      jump\t// in\n    tag_99:\n    tag_98:\n        /* \"contracts/AccessControl.sol\":5594:5636  return uint8(ClearenceLevel.Low_Clearence) */\n      swap1\n      pop\n      jump(tag_76)\n        /* \"contracts/AccessControl.sol\":5545:5702  if (clrRecords[_addr].ClrLvl == Low_Clearence) { return uint8(ClearenceLevel.Low_Clearence);}\r... */\n    tag_97:\n        /* \"contracts/AccessControl.sol\":5672:5699  ClearenceLevel.No_Clearence */\n      0x00\n        /* \"contracts/AccessControl.sol\":5666:5700  uint8(ClearenceLevel.No_Clearence) */\n      0x04\n      dup2\n      gt\n      iszero\n      tag_101\n      jumpi\n      tag_102\n      tag_70\n      jump\t// in\n    tag_102:\n    tag_101:\n        /* \"contracts/AccessControl.sol\":5659:5700  return uint8(ClearenceLevel.No_Clearence) */\n      swap1\n      pop\n        /* \"contracts/AccessControl.sol\":5119:5709  function checkDocClrLvl(address _addr) external view returns(uint8){\r... */\n    tag_76:\n      swap2\n      swap1\n      pop\n      jump\t// out\n        /* \"contracts/AccessControl.sol\":7433:7558  function toggleDocActive() external returns(bool){\r... */\n    tag_40:\n        /* \"contracts/AccessControl.sol\":7477:7481  bool */\n      0x00\n        /* \"contracts/AccessControl.sol\":7527:7538  isDocActive */\n      0x02\n        /* \"contracts/AccessControl.sol\":7527:7550  isDocActive[msg.sender] */\n      0x00\n        /* \"contracts/AccessControl.sol\":7539:7549  msg.sender */\n      caller\n        /* \"contracts/AccessControl.sol\":7527:7550  isDocActive[msg.sender] */\n      0xffffffffffffffffffffffffffffffffffffffff\n      and\n      0xffffffffffffffffffffffffffffffffffffffff\n      and\n      dup2\n      mstore\n      0x20\n      add\n      swap1\n      dup2\n      mstore\n      0x20\n      add\n      0x00\n      keccak256\n      0x00\n      swap1\n      sload\n      swap1\n      0x0100\n      exp\n      swap1\n      div\n      0xff\n      and\n        /* \"contracts/AccessControl.sol\":7526:7550  !isDocActive[msg.sender] */\n      iszero\n        /* \"contracts/AccessControl.sol\":7500:7511  isDocActive */\n      0x02\n        /* \"contracts/AccessControl.sol\":7500:7523  isDocActive[msg.sender] */\n      0x00\n        /* \"contracts/AccessControl.sol\":7512:7522  msg.sender */\n      caller\n        /* \"contracts/AccessControl.sol\":7500:7523  isDocActive[msg.sender] */\n      0xffffffffffffffffffffffffffffffffffffffff\n      and\n      0xffffffffffffffffffffffffffffffffffffffff\n      and\n      dup2\n      mstore\n      0x20\n      add\n      swap1\n      dup2\n      mstore\n      0x20\n      add\n      0x00\n      keccak256\n      0x00\n        /* \"contracts/AccessControl.sol\":7500:7550  isDocActive[msg.sender] = !isDocActive[msg.sender] */\n      0x0100\n      exp\n      dup2\n      sload\n      dup2\n      0xff\n      mul\n      not\n      and\n      swap1\n      dup4\n      iszero\n      iszero\n      mul\n      or\n      swap1\n      sstore\n        /* \"contracts/AccessControl.sol\":7493:7550  return isDocActive[msg.sender] = !isDocActive[msg.sender] */\n      swap1\n      pop\n        /* \"contracts/AccessControl.sol\":7433:7558  function toggleDocActive() external returns(bool){\r... */\n      swap1\n      jump\t// out\n        /* \"contracts/AccessControl.sol\":7939:8051  function setMsgSenderClrLvl(bytes32 _clrLvl) external {\r... */\n    tag_45:\n        /* \"contracts/AccessControl.sol\":8036:8043  _clrLvl */\n      dup1\n        /* \"contracts/AccessControl.sol\":8004:8014  clrRecords */\n      0x03\n        /* \"contracts/AccessControl.sol\":8004:8026  clrRecords[msg.sender] */\n      0x00\n        /* \"contracts/AccessControl.sol\":8015:8025  msg.sender */\n      caller\n        /* \"contracts/AccessControl.sol\":8004:8026  clrRecords[msg.sender] */\n      0xffffffffffffffffffffffffffffffffffffffff\n      and\n      0xffffffffffffffffffffffffffffffffffffffff\n      and\n      dup2\n      mstore\n      0x20\n      add\n      swap1\n      dup2\n      mstore\n      0x20\n      add\n      0x00\n      keccak256\n        /* \"contracts/AccessControl.sol\":8004:8033  clrRecords[msg.sender].ClrLvl */\n      0x00\n      add\n        /* \"contracts/AccessControl.sol\":8004:8043  clrRecords[msg.sender].ClrLvl = _clrLvl */\n      dup2\n      swap1\n      sstore\n      pop\n        /* \"contracts/AccessControl.sol\":7939:8051  function setMsgSenderClrLvl(bytes32 _clrLvl) external {\r... */\n      pop\n      jump\t// out\n        /* \"contracts/AccessControl.sol\":2876:3136  function isDoctor(address _addr) external view returns(bool){\r... */\n    tag_48:\n        /* \"contracts/AccessControl.sol\":2931:2935  bool */\n      0x00\n        /* \"contracts/AccessControl.sol\":2955:2962  doctors */\n      0x01\n        /* \"contracts/AccessControl.sol\":2955:2969  doctors[_addr] */\n      0x00\n        /* \"contracts/AccessControl.sol\":2963:2968  _addr */\n      dup4\n        /* \"contracts/AccessControl.sol\":2955:2969  doctors[_addr] */\n      0xffffffffffffffffffffffffffffffffffffffff\n      and\n      0xffffffffffffffffffffffffffffffffffffffff\n      and\n      dup2\n      mstore\n      0x20\n      add\n      swap1\n      dup2\n      mstore\n      0x20\n      add\n      0x00\n      keccak256\n      0x00\n      swap1\n      sload\n      swap1\n      0x0100\n      exp\n      swap1\n      div\n      0xff\n      and\n        /* \"contracts/AccessControl.sol\":2947:2995  require(doctors[_addr], \"Not a Valid Doctor!!!\") */\n      tag_106\n      jumpi\n      mload(0x40)\n      0x08c379a000000000000000000000000000000000000000000000000000000000\n      dup2\n      mstore\n      0x04\n      add\n      tag_107\n      swap1\n      tag_108\n      jump\t// in\n    tag_107:\n      mload(0x40)\n      dup1\n      swap2\n      sub\n      swap1\n      revert\n    tag_106:\n        /* \"contracts/AccessControl.sol\":3014:3025  isDocActive */\n      0x02\n        /* \"contracts/AccessControl.sol\":3014:3032  isDocActive[_addr] */\n      0x00\n        /* \"contracts/AccessControl.sol\":3026:3031  _addr */\n      dup4\n        /* \"contracts/AccessControl.sol\":3014:3032  isDocActive[_addr] */\n      0xffffffffffffffffffffffffffffffffffffffff\n      and\n      0xffffffffffffffffffffffffffffffffffffffff\n      and\n      dup2\n      mstore\n      0x20\n      add\n      swap1\n      dup2\n      mstore\n      0x20\n      add\n      0x00\n      keccak256\n      0x00\n      swap1\n      sload\n      swap1\n      0x0100\n      exp\n      swap1\n      div\n      0xff\n      and\n        /* \"contracts/AccessControl.sol\":3006:3106  require(isDocActive[_addr], \"This account is not active anymore, Please contact related Authority!\") */\n      tag_109\n      jumpi\n      mload(0x40)\n      0x08c379a000000000000000000000000000000000000000000000000000000000\n      dup2\n      mstore\n      0x04\n      add\n      tag_110\n      swap1\n      tag_111\n      jump\t// in\n    tag_110:\n      mload(0x40)\n      dup1\n      swap2\n      sub\n      swap1\n      revert\n    tag_109:\n        /* \"contracts/AccessControl.sol\":3124:3128  true */\n      0x01\n        /* \"contracts/AccessControl.sol\":3117:3128  return true */\n      swap1\n      pop\n        /* \"contracts/AccessControl.sol\":2876:3136  function isDoctor(address _addr) external view returns(bool){\r... */\n      swap2\n      swap1\n      pop\n      jump\t// out\n        /* \"contracts/AccessControl.sol\":5752:6107  function setNewDocClrRec(address _addr, bytes32 _ClrLvl, bytes32 _GrpOrg) external {\r... */\n    tag_53:\n        /* \"contracts/AccessControl.sol\":5991:5998  _ClrLvl */\n      dup2\n        /* \"contracts/AccessControl.sol\":5964:5974  clrRecords */\n      0x03\n        /* \"contracts/AccessControl.sol\":5964:5981  clrRecords[_addr] */\n      0x00\n        /* \"contracts/AccessControl.sol\":5975:5980  _addr */\n      dup6\n        /* \"contracts/AccessControl.sol\":5964:5981  clrRecords[_addr] */\n      0xffffffffffffffffffffffffffffffffffffffff\n      and\n      0xffffffffffffffffffffffffffffffffffffffff\n      and\n      dup2\n      mstore\n      0x20\n      add\n      swap1\n      dup2\n      mstore\n      0x20\n      add\n      0x00\n      keccak256\n        /* \"contracts/AccessControl.sol\":5964:5988  clrRecords[_addr].ClrLvl */\n      0x00\n      add\n        /* \"contracts/AccessControl.sol\":5964:5998  clrRecords[_addr].ClrLvl = _ClrLvl */\n      dup2\n      swap1\n      sstore\n      pop\n        /* \"contracts/AccessControl.sol\":6036:6043  _GrpOrg */\n      dup1\n        /* \"contracts/AccessControl.sol\":6009:6019  clrRecords */\n      0x03\n        /* \"contracts/AccessControl.sol\":6009:6026  clrRecords[_addr] */\n      0x00\n        /* \"contracts/AccessControl.sol\":6020:6025  _addr */\n      dup6\n        /* \"contracts/AccessControl.sol\":6009:6026  clrRecords[_addr] */\n      0xffffffffffffffffffffffffffffffffffffffff\n      and\n      0xffffffffffffffffffffffffffffffffffffffff\n      and\n      dup2\n      mstore\n      0x20\n      add\n      swap1\n      dup2\n      mstore\n      0x20\n      add\n      0x00\n      keccak256\n        /* \"contracts/AccessControl.sol\":6009:6033  clrRecords[_addr].GrpOrg */\n      0x01\n      add\n        /* \"contracts/AccessControl.sol\":6009:6043  clrRecords[_addr].GrpOrg = _GrpOrg */\n      dup2\n      swap1\n      sstore\n      pop\n        /* \"contracts/AccessControl.sol\":6095:6099  true */\n      0x01\n        /* \"contracts/AccessControl.sol\":6054:6076  groupsAndOrganizations */\n      0x00\n        /* \"contracts/AccessControl.sol\":6054:6085  groupsAndOrganizations[_GrpOrg] */\n      dup1\n        /* \"contracts/AccessControl.sol\":6077:6084  _GrpOrg */\n      dup4\n        /* \"contracts/AccessControl.sol\":6054:6085  groupsAndOrganizations[_GrpOrg] */\n      dup2\n      mstore\n      0x20\n      add\n      swap1\n      dup2\n      mstore\n      0x20\n      add\n      0x00\n      keccak256\n        /* \"contracts/AccessControl.sol\":6054:6092  groupsAndOrganizations[_GrpOrg][_addr] */\n      0x00\n        /* \"contracts/AccessControl.sol\":6086:6091  _addr */\n      dup6\n        /* \"contracts/AccessControl.sol\":6054:6092  groupsAndOrganizations[_GrpOrg][_addr] */\n      0xffffffffffffffffffffffffffffffffffffffff\n      and\n      0xffffffffffffffffffffffffffffffffffffffff\n      and\n      dup2\n      mstore\n      0x20\n      add\n      swap1\n      dup2\n      mstore\n      0x20\n      add\n      0x00\n      keccak256\n      0x00\n        /* \"contracts/AccessControl.sol\":6054:6099  groupsAndOrganizations[_GrpOrg][_addr] = true */\n      0x0100\n      exp\n      dup2\n      sload\n      dup2\n      0xff\n      mul\n      not\n      and\n      swap1\n      dup4\n      iszero\n      iszero\n      mul\n      or\n      swap1\n      sstore\n      pop\n        /* \"contracts/AccessControl.sol\":5752:6107  function setNewDocClrRec(address _addr, bytes32 _ClrLvl, bytes32 _GrpOrg) external {\r... */\n      pop\n      pop\n      pop\n      jump\t// out\n        /* \"contracts/AccessControl.sol\":6889:7016  function checkObjClrLvl(address _addr) external view returns(uint8) {\r... */\n    tag_56:\n        /* \"contracts/AccessControl.sol\":6950:6955  uint8 */\n      0x00\n        /* \"contracts/AccessControl.sol\":6981:6996  objectClearence */\n      0x04\n        /* \"contracts/AccessControl.sol\":6981:7003  objectClearence[_addr] */\n      0x00\n        /* \"contracts/AccessControl.sol\":6997:7002  _addr */\n      dup4\n        /* \"contracts/AccessControl.sol\":6981:7003  objectClearence[_addr] */\n      0xffffffffffffffffffffffffffffffffffffffff\n      and\n      0xffffffffffffffffffffffffffffffffffffffff\n      and\n      dup2\n      mstore\n      0x20\n      add\n      swap1\n      dup2\n      mstore\n      0x20\n      add\n      0x00\n      keccak256\n        /* \"contracts/AccessControl.sol\":6981:7007  objectClearence[_addr].clr */\n      0x01\n      add\n      0x00\n      swap1\n      sload\n      swap1\n      0x0100\n      exp\n      swap1\n      div\n      0xff\n      and\n        /* \"contracts/AccessControl.sol\":6975:7008  uint8(objectClearence[_addr].clr) */\n      0x04\n      dup2\n      gt\n      iszero\n      tag_114\n      jumpi\n      tag_115\n      tag_70\n      jump\t// in\n    tag_115:\n    tag_114:\n        /* \"contracts/AccessControl.sol\":6968:7008  return uint8(objectClearence[_addr].clr) */\n      swap1\n      pop\n        /* \"contracts/AccessControl.sol\":6889:7016  function checkObjClrLvl(address _addr) external view returns(uint8) {\r... */\n      swap2\n      swap1\n      pop\n      jump\t// out\n        /* \"#utility.yul\":7:146   */\n    tag_117:\n        /* \"#utility.yul\":53:58   */\n      0x00\n        /* \"#utility.yul\":91:97   */\n      dup2\n        /* \"#utility.yul\":78:98   */\n      calldataload\n        /* \"#utility.yul\":69:98   */\n      swap1\n      pop\n        /* \"#utility.yul\":107:140   */\n      tag_119\n        /* \"#utility.yul\":134:139   */\n      dup2\n        /* \"#utility.yul\":107:140   */\n      tag_120\n      jump\t// in\n    tag_119:\n        /* \"#utility.yul\":7:146   */\n      swap3\n      swap2\n      pop\n      pop\n      jump\t// out\n        /* \"#utility.yul\":152:291   */\n    tag_121:\n        /* \"#utility.yul\":198:203   */\n      0x00\n        /* \"#utility.yul\":236:242   */\n      dup2\n        /* \"#utility.yul\":223:243   */\n      calldataload\n        /* \"#utility.yul\":214:243   */\n      swap1\n      pop\n        /* \"#utility.yul\":252:285   */\n      tag_123\n        /* \"#utility.yul\":279:284   */\n      dup2\n        /* \"#utility.yul\":252:285   */\n      tag_124\n      jump\t// in\n    tag_123:\n        /* \"#utility.yul\":152:291   */\n      swap3\n      swap2\n      pop\n      pop\n      jump\t// out\n        /* \"#utility.yul\":297:472   */\n    tag_125:\n        /* \"#utility.yul\":361:366   */\n      0x00\n        /* \"#utility.yul\":399:405   */\n      dup2\n        /* \"#utility.yul\":386:406   */\n      calldataload\n        /* \"#utility.yul\":377:406   */\n      swap1\n      pop\n        /* \"#utility.yul\":415:466   */\n      tag_127\n        /* \"#utility.yul\":460:465   */\n      dup2\n        /* \"#utility.yul\":415:466   */\n      tag_128\n      jump\t// in\n    tag_127:\n        /* \"#utility.yul\":297:472   */\n      swap3\n      swap2\n      pop\n      pop\n      jump\t// out\n        /* \"#utility.yul\":478:807   */\n    tag_17:\n        /* \"#utility.yul\":537:543   */\n      0x00\n        /* \"#utility.yul\":586:588   */\n      0x20\n        /* \"#utility.yul\":574:583   */\n      dup3\n        /* \"#utility.yul\":565:572   */\n      dup5\n        /* \"#utility.yul\":561:584   */\n      sub\n        /* \"#utility.yul\":557:589   */\n      slt\n        /* \"#utility.yul\":554:673   */\n      iszero\n      tag_130\n      jumpi\n        /* \"#utility.yul\":592:671   */\n      tag_131\n      tag_132\n      jump\t// in\n    tag_131:\n        /* \"#utility.yul\":554:673   */\n    tag_130:\n        /* \"#utility.yul\":712:713   */\n      0x00\n        /* \"#utility.yul\":737:790   */\n      tag_133\n        /* \"#utility.yul\":782:789   */\n      dup5\n        /* \"#utility.yul\":773:779   */\n      dup3\n        /* \"#utility.yul\":762:771   */\n      dup6\n        /* \"#utility.yul\":758:780   */\n      add\n        /* \"#utility.yul\":737:790   */\n      tag_117\n      jump\t// in\n    tag_133:\n        /* \"#utility.yul\":727:790   */\n      swap2\n      pop\n        /* \"#utility.yul\":683:800   */\n      pop\n        /* \"#utility.yul\":478:807   */\n      swap3\n      swap2\n      pop\n      pop\n      jump\t// out\n        /* \"#utility.yul\":813:1432   */\n    tag_52:\n        /* \"#utility.yul\":890:896   */\n      0x00\n        /* \"#utility.yul\":898:904   */\n      dup1\n        /* \"#utility.yul\":906:912   */\n      0x00\n        /* \"#utility.yul\":955:957   */\n      0x60\n        /* \"#utility.yul\":943:952   */\n      dup5\n        /* \"#utility.yul\":934:941   */\n      dup7\n        /* \"#utility.yul\":930:953   */\n      sub\n        /* \"#utility.yul\":926:958   */\n      slt\n        /* \"#utility.yul\":923:1042   */\n      iszero\n      tag_135\n      jumpi\n        /* \"#utility.yul\":961:1040   */\n      tag_136\n      tag_132\n      jump\t// in\n    tag_136:\n        /* \"#utility.yul\":923:1042   */\n    tag_135:\n        /* \"#utility.yul\":1081:1082   */\n      0x00\n        /* \"#utility.yul\":1106:1159   */\n      tag_137\n        /* \"#utility.yul\":1151:1158   */\n      dup7\n        /* \"#utility.yul\":1142:1148   */\n      dup3\n        /* \"#utility.yul\":1131:1140   */\n      dup8\n        /* \"#utility.yul\":1127:1149   */\n      add\n        /* \"#utility.yul\":1106:1159   */\n      tag_117\n      jump\t// in\n    tag_137:\n        /* \"#utility.yul\":1096:1159   */\n      swap4\n      pop\n        /* \"#utility.yul\":1052:1169   */\n      pop\n        /* \"#utility.yul\":1208:1210   */\n      0x20\n        /* \"#utility.yul\":1234:1287   */\n      tag_138\n        /* \"#utility.yul\":1279:1286   */\n      dup7\n        /* \"#utility.yul\":1270:1276   */\n      dup3\n        /* \"#utility.yul\":1259:1268   */\n      dup8\n        /* \"#utility.yul\":1255:1277   */\n      add\n        /* \"#utility.yul\":1234:1287   */\n      tag_121\n      jump\t// in\n    tag_138:\n        /* \"#utility.yul\":1224:1287   */\n      swap3\n      pop\n        /* \"#utility.yul\":1179:1297   */\n      pop\n        /* \"#utility.yul\":1336:1338   */\n      0x40\n        /* \"#utility.yul\":1362:1415   */\n      tag_139\n        /* \"#utility.yul\":1407:1414   */\n      dup7\n        /* \"#utility.yul\":1398:1404   */\n      dup3\n        /* \"#utility.yul\":1387:1396   */\n      dup8\n        /* \"#utility.yul\":1383:1405   */\n      add\n        /* \"#utility.yul\":1362:1415   */\n      tag_121\n      jump\t// in\n    tag_139:\n        /* \"#utility.yul\":1352:1415   */\n      swap2\n      pop\n        /* \"#utility.yul\":1307:1425   */\n      pop\n        /* \"#utility.yul\":813:1432   */\n      swap3\n      pop\n      swap3\n      pop\n      swap3\n      jump\t// out\n        /* \"#utility.yul\":1438:2093   */\n    tag_32:\n        /* \"#utility.yul\":1533:1539   */\n      0x00\n        /* \"#utility.yul\":1541:1547   */\n      dup1\n        /* \"#utility.yul\":1549:1555   */\n      0x00\n        /* \"#utility.yul\":1598:1600   */\n      0x60\n        /* \"#utility.yul\":1586:1595   */\n      dup5\n        /* \"#utility.yul\":1577:1584   */\n      dup7\n        /* \"#utility.yul\":1573:1596   */\n      sub\n        /* \"#utility.yul\":1569:1601   */\n      slt\n        /* \"#utility.yul\":1566:1685   */\n      iszero\n      tag_141\n      jumpi\n        /* \"#utility.yul\":1604:1683   */\n      tag_142\n      tag_132\n      jump\t// in\n    tag_142:\n        /* \"#utility.yul\":1566:1685   */\n    tag_141:\n        /* \"#utility.yul\":1724:1725   */\n      0x00\n        /* \"#utility.yul\":1749:1802   */\n      tag_143\n        /* \"#utility.yul\":1794:1801   */\n      dup7\n        /* \"#utility.yul\":1785:1791   */\n      dup3\n        /* \"#utility.yul\":1774:1783   */\n      dup8\n        /* \"#utility.yul\":1770:1792   */\n      add\n        /* \"#utility.yul\":1749:1802   */\n      tag_117\n      jump\t// in\n    tag_143:\n        /* \"#utility.yul\":1739:1802   */\n      swap4\n      pop\n        /* \"#utility.yul\":1695:1812   */\n      pop\n        /* \"#utility.yul\":1851:1853   */\n      0x20\n        /* \"#utility.yul\":1877:1930   */\n      tag_144\n        /* \"#utility.yul\":1922:1929   */\n      dup7\n        /* \"#utility.yul\":1913:1919   */\n      dup3\n        /* \"#utility.yul\":1902:1911   */\n      dup8\n        /* \"#utility.yul\":1898:1920   */\n      add\n        /* \"#utility.yul\":1877:1930   */\n      tag_121\n      jump\t// in\n    tag_144:\n        /* \"#utility.yul\":1867:1930   */\n      swap3\n      pop\n        /* \"#utility.yul\":1822:1940   */\n      pop\n        /* \"#utility.yul\":1979:1981   */\n      0x40\n        /* \"#utility.yul\":2005:2076   */\n      tag_145\n        /* \"#utility.yul\":2068:2075   */\n      dup7\n        /* \"#utility.yul\":2059:2065   */\n      dup3\n        /* \"#utility.yul\":2048:2057   */\n      dup8\n        /* \"#utility.yul\":2044:2066   */\n      add\n        /* \"#utility.yul\":2005:2076   */\n      tag_125\n      jump\t// in\n    tag_145:\n        /* \"#utility.yul\":1995:2076   */\n      swap2\n      pop\n        /* \"#utility.yul\":1950:2086   */\n      pop\n        /* \"#utility.yul\":1438:2093   */\n      swap3\n      pop\n      swap3\n      pop\n      swap3\n      jump\t// out\n        /* \"#utility.yul\":2099:2428   */\n    tag_44:\n        /* \"#utility.yul\":2158:2164   */\n      0x00\n        /* \"#utility.yul\":2207:2209   */\n      0x20\n        /* \"#utility.yul\":2195:2204   */\n      dup3\n        /* \"#utility.yul\":2186:2193   */\n      dup5\n        /* \"#utility.yul\":2182:2205   */\n      sub\n        /* \"#utility.yul\":2178:2210   */\n      slt\n        /* \"#utility.yul\":2175:2294   */\n      iszero\n      tag_147\n      jumpi\n        /* \"#utility.yul\":2213:2292   */\n      tag_148\n      tag_132\n      jump\t// in\n    tag_148:\n        /* \"#utility.yul\":2175:2294   */\n    tag_147:\n        /* \"#utility.yul\":2333:2334   */\n      0x00\n        /* \"#utility.yul\":2358:2411   */\n      tag_149\n        /* \"#utility.yul\":2403:2410   */\n      dup5\n        /* \"#utility.yul\":2394:2400   */\n      dup3\n        /* \"#utility.yul\":2383:2392   */\n      dup6\n        /* \"#utility.yul\":2379:2401   */\n      add\n        /* \"#utility.yul\":2358:2411   */\n      tag_121\n      jump\t// in\n    tag_149:\n        /* \"#utility.yul\":2348:2411   */\n      swap2\n      pop\n        /* \"#utility.yul\":2304:2421   */\n      pop\n        /* \"#utility.yul\":2099:2428   */\n      swap3\n      swap2\n      pop\n      pop\n      jump\t// out\n        /* \"#utility.yul\":2434:2543   */\n    tag_150:\n        /* \"#utility.yul\":2515:2536   */\n      tag_152\n        /* \"#utility.yul\":2530:2535   */\n      dup2\n        /* \"#utility.yul\":2515:2536   */\n      tag_153\n      jump\t// in\n    tag_152:\n        /* \"#utility.yul\":2510:2513   */\n      dup3\n        /* \"#utility.yul\":2503:2537   */\n      mstore\n        /* \"#utility.yul\":2434:2543   */\n      pop\n      pop\n      jump\t// out\n        /* \"#utility.yul\":2549:2915   */\n    tag_154:\n        /* \"#utility.yul\":2691:2694   */\n      0x00\n        /* \"#utility.yul\":2712:2779   */\n      tag_156\n        /* \"#utility.yul\":2776:2778   */\n      0x24\n        /* \"#utility.yul\":2771:2774   */\n      dup4\n        /* \"#utility.yul\":2712:2779   */\n      tag_157\n      jump\t// in\n    tag_156:\n        /* \"#utility.yul\":2705:2779   */\n      swap2\n      pop\n        /* \"#utility.yul\":2788:2881   */\n      tag_158\n        /* \"#utility.yul\":2877:2880   */\n      dup3\n        /* \"#utility.yul\":2788:2881   */\n      tag_159\n      jump\t// in\n    tag_158:\n        /* \"#utility.yul\":2906:2908   */\n      0x40\n        /* \"#utility.yul\":2901:2904   */\n      dup3\n        /* \"#utility.yul\":2897:2909   */\n      add\n        /* \"#utility.yul\":2890:2909   */\n      swap1\n      pop\n        /* \"#utility.yul\":2549:2915   */\n      swap2\n      swap1\n      pop\n      jump\t// out\n        /* \"#utility.yul\":2921:3323   */\n    tag_160:\n        /* \"#utility.yul\":3081:3084   */\n      0x00\n        /* \"#utility.yul\":3102:3187   */\n      tag_162\n        /* \"#utility.yul\":3184:3186   */\n      0x10\n        /* \"#utility.yul\":3179:3182   */\n      dup4\n        /* \"#utility.yul\":3102:3187   */\n      tag_163\n      jump\t// in\n    tag_162:\n        /* \"#utility.yul\":3095:3187   */\n      swap2\n      pop\n        /* \"#utility.yul\":3196:3289   */\n      tag_164\n        /* \"#utility.yul\":3285:3288   */\n      dup3\n        /* \"#utility.yul\":3196:3289   */\n      tag_165\n      jump\t// in\n    tag_164:\n        /* \"#utility.yul\":3314:3316   */\n      0x10\n        /* \"#utility.yul\":3309:3312   */\n      dup3\n        /* \"#utility.yul\":3305:3317   */\n      add\n        /* \"#utility.yul\":3298:3317   */\n      swap1\n      pop\n        /* \"#utility.yul\":2921:3323   */\n      swap2\n      swap1\n      pop\n      jump\t// out\n        /* \"#utility.yul\":3329:3731   */\n    tag_166:\n        /* \"#utility.yul\":3489:3492   */\n      0x00\n        /* \"#utility.yul\":3510:3595   */\n      tag_168\n        /* \"#utility.yul\":3592:3594   */\n      0x14\n        /* \"#utility.yul\":3587:3590   */\n      dup4\n        /* \"#utility.yul\":3510:3595   */\n      tag_163\n      jump\t// in\n    tag_168:\n        /* \"#utility.yul\":3503:3595   */\n      swap2\n      pop\n        /* \"#utility.yul\":3604:3697   */\n      tag_169\n        /* \"#utility.yul\":3693:3696   */\n      dup3\n        /* \"#utility.yul\":3604:3697   */\n      tag_170\n      jump\t// in\n    tag_169:\n        /* \"#utility.yul\":3722:3724   */\n      0x14\n        /* \"#utility.yul\":3717:3720   */\n      dup3\n        /* \"#utility.yul\":3713:3725   */\n      add\n        /* \"#utility.yul\":3706:3725   */\n      swap1\n      pop\n        /* \"#utility.yul\":3329:3731   */\n      swap2\n      swap1\n      pop\n      jump\t// out\n        /* \"#utility.yul\":3737:4139   */\n    tag_171:\n        /* \"#utility.yul\":3897:3900   */\n      0x00\n        /* \"#utility.yul\":3918:4003   */\n      tag_173\n        /* \"#utility.yul\":4000:4002   */\n      0x0d\n        /* \"#utility.yul\":3995:3998   */\n      dup4\n        /* \"#utility.yul\":3918:4003   */\n      tag_163\n      jump\t// in\n    tag_173:\n        /* \"#utility.yul\":3911:4003   */\n      swap2\n      pop\n        /* \"#utility.yul\":4012:4105   */\n      tag_174\n        /* \"#utility.yul\":4101:4104   */\n      dup3\n        /* \"#utility.yul\":4012:4105   */\n      tag_175\n      jump\t// in\n    tag_174:\n        /* \"#utility.yul\":4130:4132   */\n      0x0d\n        /* \"#utility.yul\":4125:4128   */\n      dup3\n        /* \"#utility.yul\":4121:4133   */\n      add\n        /* \"#utility.yul\":4114:4133   */\n      swap1\n      pop\n        /* \"#utility.yul\":3737:4139   */\n      swap2\n      swap1\n      pop\n      jump\t// out\n        /* \"#utility.yul\":4145:4547   */\n    tag_176:\n        /* \"#utility.yul\":4305:4308   */\n      0x00\n        /* \"#utility.yul\":4326:4411   */\n      tag_178\n        /* \"#utility.yul\":4408:4410   */\n      0x0e\n        /* \"#utility.yul\":4403:4406   */\n      dup4\n        /* \"#utility.yul\":4326:4411   */\n      tag_163\n      jump\t// in\n    tag_178:\n        /* \"#utility.yul\":4319:4411   */\n      swap2\n      pop\n        /* \"#utility.yul\":4420:4513   */\n      tag_179\n        /* \"#utility.yul\":4509:4512   */\n      dup3\n        /* \"#utility.yul\":4420:4513   */\n      tag_180\n      jump\t// in\n    tag_179:\n        /* \"#utility.yul\":4538:4540   */\n      0x0e\n        /* \"#utility.yul\":4533:4536   */\n      dup3\n        /* \"#utility.yul\":4529:4541   */\n      add\n        /* \"#utility.yul\":4522:4541   */\n      swap1\n      pop\n        /* \"#utility.yul\":4145:4547   */\n      swap2\n      swap1\n      pop\n      jump\t// out\n        /* \"#utility.yul\":4553:4919   */\n    tag_181:\n        /* \"#utility.yul\":4695:4698   */\n      0x00\n        /* \"#utility.yul\":4716:4783   */\n      tag_183\n        /* \"#utility.yul\":4780:4782   */\n      0x45\n        /* \"#utility.yul\":4775:4778   */\n      dup4\n        /* \"#utility.yul\":4716:4783   */\n      tag_157\n      jump\t// in\n    tag_183:\n        /* \"#utility.yul\":4709:4783   */\n      swap2\n      pop\n        /* \"#utility.yul\":4792:4885   */\n      tag_184\n        /* \"#utility.yul\":4881:4884   */\n      dup3\n        /* \"#utility.yul\":4792:4885   */\n      tag_185\n      jump\t// in\n    tag_184:\n        /* \"#utility.yul\":4910:4912   */\n      0x60\n        /* \"#utility.yul\":4905:4908   */\n      dup3\n        /* \"#utility.yul\":4901:4913   */\n      add\n        /* \"#utility.yul\":4894:4913   */\n      swap1\n      pop\n        /* \"#utility.yul\":4553:4919   */\n      swap2\n      swap1\n      pop\n      jump\t// out\n        /* \"#utility.yul\":4925:5291   */\n    tag_186:\n        /* \"#utility.yul\":5067:5070   */\n      0x00\n        /* \"#utility.yul\":5088:5155   */\n      tag_188\n        /* \"#utility.yul\":5152:5154   */\n      0x25\n        /* \"#utility.yul\":5147:5150   */\n      dup4\n        /* \"#utility.yul\":5088:5155   */\n      tag_157\n      jump\t// in\n    tag_188:\n        /* \"#utility.yul\":5081:5155   */\n      swap2\n      pop\n        /* \"#utility.yul\":5164:5257   */\n      tag_189\n        /* \"#utility.yul\":5253:5256   */\n      dup3\n        /* \"#utility.yul\":5164:5257   */\n      tag_190\n      jump\t// in\n    tag_189:\n        /* \"#utility.yul\":5282:5284   */\n      0x40\n        /* \"#utility.yul\":5277:5280   */\n      dup3\n        /* \"#utility.yul\":5273:5285   */\n      add\n        /* \"#utility.yul\":5266:5285   */\n      swap1\n      pop\n        /* \"#utility.yul\":4925:5291   */\n      swap2\n      swap1\n      pop\n      jump\t// out\n        /* \"#utility.yul\":5297:5699   */\n    tag_191:\n        /* \"#utility.yul\":5457:5460   */\n      0x00\n        /* \"#utility.yul\":5478:5563   */\n      tag_193\n        /* \"#utility.yul\":5560:5562   */\n      0x0d\n        /* \"#utility.yul\":5555:5558   */\n      dup4\n        /* \"#utility.yul\":5478:5563   */\n      tag_163\n      jump\t// in\n    tag_193:\n        /* \"#utility.yul\":5471:5563   */\n      swap2\n      pop\n        /* \"#utility.yul\":5572:5665   */\n      tag_194\n        /* \"#utility.yul\":5661:5664   */\n      dup3\n        /* \"#utility.yul\":5572:5665   */\n      tag_195\n      jump\t// in\n    tag_194:\n        /* \"#utility.yul\":5690:5692   */\n      0x0d\n        /* \"#utility.yul\":5685:5688   */\n      dup3\n        /* \"#utility.yul\":5681:5693   */\n      add\n        /* \"#utility.yul\":5674:5693   */\n      swap1\n      pop\n        /* \"#utility.yul\":5297:5699   */\n      swap2\n      swap1\n      pop\n      jump\t// out\n        /* \"#utility.yul\":5705:6071   */\n    tag_196:\n        /* \"#utility.yul\":5847:5850   */\n      0x00\n        /* \"#utility.yul\":5868:5935   */\n      tag_198\n        /* \"#utility.yul\":5932:5934   */\n      0x15\n        /* \"#utility.yul\":5927:5930   */\n      dup4\n        /* \"#utility.yul\":5868:5935   */\n      tag_157\n      jump\t// in\n    tag_198:\n        /* \"#utility.yul\":5861:5935   */\n      swap2\n      pop\n        /* \"#utility.yul\":5944:6037   */\n      tag_199\n        /* \"#utility.yul\":6033:6036   */\n      dup3\n        /* \"#utility.yul\":5944:6037   */\n      tag_200\n      jump\t// in\n    tag_199:\n        /* \"#utility.yul\":6062:6064   */\n      0x20\n        /* \"#utility.yul\":6057:6060   */\n      dup3\n        /* \"#utility.yul\":6053:6065   */\n      add\n        /* \"#utility.yul\":6046:6065   */\n      swap1\n      pop\n        /* \"#utility.yul\":5705:6071   */\n      swap2\n      swap1\n      pop\n      jump\t// out\n        /* \"#utility.yul\":6077:6189   */\n    tag_201:\n        /* \"#utility.yul\":6160:6182   */\n      tag_203\n        /* \"#utility.yul\":6176:6181   */\n      dup2\n        /* \"#utility.yul\":6160:6182   */\n      tag_204\n      jump\t// in\n    tag_203:\n        /* \"#utility.yul\":6155:6158   */\n      dup3\n        /* \"#utility.yul\":6148:6183   */\n      mstore\n        /* \"#utility.yul\":6077:6189   */\n      pop\n      pop\n      jump\t// out\n        /* \"#utility.yul\":6195:6576   */\n    tag_90:\n        /* \"#utility.yul\":6380:6383   */\n      0x00\n        /* \"#utility.yul\":6402:6550   */\n      tag_206\n        /* \"#utility.yul\":6546:6549   */\n      dup3\n        /* \"#utility.yul\":6402:6550   */\n      tag_160\n      jump\t// in\n    tag_206:\n        /* \"#utility.yul\":6395:6550   */\n      swap2\n      pop\n        /* \"#utility.yul\":6567:6570   */\n      dup2\n        /* \"#utility.yul\":6560:6570   */\n      swap1\n      pop\n        /* \"#utility.yul\":6195:6576   */\n      swap2\n      swap1\n      pop\n      jump\t// out\n        /* \"#utility.yul\":6582:6963   */\n    tag_61:\n        /* \"#utility.yul\":6767:6770   */\n      0x00\n        /* \"#utility.yul\":6789:6937   */\n      tag_208\n        /* \"#utility.yul\":6933:6936   */\n      dup3\n        /* \"#utility.yul\":6789:6937   */\n      tag_166\n      jump\t// in\n    tag_208:\n        /* \"#utility.yul\":6782:6937   */\n      swap2\n      pop\n        /* \"#utility.yul\":6954:6957   */\n      dup2\n        /* \"#utility.yul\":6947:6957   */\n      swap1\n      pop\n        /* \"#utility.yul\":6582:6963   */\n      swap2\n      swap1\n      pop\n      jump\t// out\n        /* \"#utility.yul\":6969:7350   */\n    tag_96:\n        /* \"#utility.yul\":7154:7157   */\n      0x00\n        /* \"#utility.yul\":7176:7324   */\n      tag_210\n        /* \"#utility.yul\":7320:7323   */\n      dup3\n        /* \"#utility.yul\":7176:7324   */\n      tag_171\n      jump\t// in\n    tag_210:\n        /* \"#utility.yul\":7169:7324   */\n      swap2\n      pop\n        /* \"#utility.yul\":7341:7344   */\n      dup2\n        /* \"#utility.yul\":7334:7344   */\n      swap1\n      pop\n        /* \"#utility.yul\":6969:7350   */\n      swap2\n      swap1\n      pop\n      jump\t// out\n        /* \"#utility.yul\":7356:7737   */\n    tag_84:\n        /* \"#utility.yul\":7541:7544   */\n      0x00\n        /* \"#utility.yul\":7563:7711   */\n      tag_212\n        /* \"#utility.yul\":7707:7710   */\n      dup3\n        /* \"#utility.yul\":7563:7711   */\n      tag_176\n      jump\t// in\n    tag_212:\n        /* \"#utility.yul\":7556:7711   */\n      swap2\n      pop\n        /* \"#utility.yul\":7728:7731   */\n      dup2\n        /* \"#utility.yul\":7721:7731   */\n      swap1\n      pop\n        /* \"#utility.yul\":7356:7737   */\n      swap2\n      swap1\n      pop\n      jump\t// out\n        /* \"#utility.yul\":7743:8124   */\n    tag_78:\n        /* \"#utility.yul\":7928:7931   */\n      0x00\n        /* \"#utility.yul\":7950:8098   */\n      tag_214\n        /* \"#utility.yul\":8094:8097   */\n      dup3\n        /* \"#utility.yul\":7950:8098   */\n      tag_191\n      jump\t// in\n    tag_214:\n        /* \"#utility.yul\":7943:8098   */\n      swap2\n      pop\n        /* \"#utility.yul\":8115:8118   */\n      dup2\n        /* \"#utility.yul\":8108:8118   */\n      swap1\n      pop\n        /* \"#utility.yul\":7743:8124   */\n      swap2\n      swap1\n      pop\n      jump\t// out\n        /* \"#utility.yul\":8130:8340   */\n    tag_23:\n        /* \"#utility.yul\":8217:8221   */\n      0x00\n        /* \"#utility.yul\":8255:8257   */\n      0x20\n        /* \"#utility.yul\":8244:8253   */\n      dup3\n        /* \"#utility.yul\":8240:8258   */\n      add\n        /* \"#utility.yul\":8232:8258   */\n      swap1\n      pop\n        /* \"#utility.yul\":8268:8333   */\n      tag_216\n        /* \"#utility.yul\":8330:8331   */\n      0x00\n        /* \"#utility.yul\":8319:8328   */\n      dup4\n        /* \"#utility.yul\":8315:8332   */\n      add\n        /* \"#utility.yul\":8306:8312   */\n      dup5\n        /* \"#utility.yul\":8268:8333   */\n      tag_150\n      jump\t// in\n    tag_216:\n        /* \"#utility.yul\":8130:8340   */\n      swap3\n      swap2\n      pop\n      pop\n      jump\t// out\n        /* \"#utility.yul\":8346:8765   */\n    tag_64:\n        /* \"#utility.yul\":8512:8516   */\n      0x00\n        /* \"#utility.yul\":8550:8552   */\n      0x20\n        /* \"#utility.yul\":8539:8548   */\n      dup3\n        /* \"#utility.yul\":8535:8553   */\n      add\n        /* \"#utility.yul\":8527:8553   */\n      swap1\n      pop\n        /* \"#utility.yul\":8599:8608   */\n      dup2\n        /* \"#utility.yul\":8593:8597   */\n      dup2\n        /* \"#utility.yul\":8589:8609   */\n      sub\n        /* \"#utility.yul\":8585:8586   */\n      0x00\n        /* \"#utility.yul\":8574:8583   */\n      dup4\n        /* \"#utility.yul\":8570:8587   */\n      add\n        /* \"#utility.yul\":8563:8610   */\n      mstore\n        /* \"#utility.yul\":8627:8758   */\n      tag_218\n        /* \"#utility.yul\":8753:8757   */\n      dup2\n        /* \"#utility.yul\":8627:8758   */\n      tag_154\n      jump\t// in\n    tag_218:\n        /* \"#utility.yul\":8619:8758   */\n      swap1\n      pop\n        /* \"#utility.yul\":8346:8765   */\n      swap2\n      swap1\n      pop\n      jump\t// out\n        /* \"#utility.yul\":8771:9190   */\n    tag_111:\n        /* \"#utility.yul\":8937:8941   */\n      0x00\n        /* \"#utility.yul\":8975:8977   */\n      0x20\n        /* \"#utility.yul\":8964:8973   */\n      dup3\n        /* \"#utility.yul\":8960:8978   */\n      add\n        /* \"#utility.yul\":8952:8978   */\n      swap1\n      pop\n        /* \"#utility.yul\":9024:9033   */\n      dup2\n        /* \"#utility.yul\":9018:9022   */\n      dup2\n        /* \"#utility.yul\":9014:9034   */\n      sub\n        /* \"#utility.yul\":9010:9011   */\n      0x00\n        /* \"#utility.yul\":8999:9008   */\n      dup4\n        /* \"#utility.yul\":8995:9012   */\n      add\n        /* \"#utility.yul\":8988:9035   */\n      mstore\n        /* \"#utility.yul\":9052:9183   */\n      tag_220\n        /* \"#utility.yul\":9178:9182   */\n      dup2\n        /* \"#utility.yul\":9052:9183   */\n      tag_181\n      jump\t// in\n    tag_220:\n        /* \"#utility.yul\":9044:9183   */\n      swap1\n      pop\n        /* \"#utility.yul\":8771:9190   */\n      swap2\n      swap1\n      pop\n      jump\t// out\n        /* \"#utility.yul\":9196:9615   */\n    tag_73:\n        /* \"#utility.yul\":9362:9366   */\n      0x00\n        /* \"#utility.yul\":9400:9402   */\n      0x20\n        /* \"#utility.yul\":9389:9398   */\n      dup3\n        /* \"#utility.yul\":9385:9403   */\n      add\n        /* \"#utility.yul\":9377:9403   */\n      swap1\n      pop\n        /* \"#utility.yul\":9449:9458   */\n      dup2\n        /* \"#utility.yul\":9443:9447   */\n      dup2\n        /* \"#utility.yul\":9439:9459   */\n      sub\n        /* \"#utility.yul\":9435:9436   */\n      0x00\n        /* \"#utility.yul\":9424:9433   */\n      dup4\n        /* \"#utility.yul\":9420:9437   */\n      add\n        /* \"#utility.yul\":9413:9460   */\n      mstore\n        /* \"#utility.yul\":9477:9608   */\n      tag_222\n        /* \"#utility.yul\":9603:9607   */\n      dup2\n        /* \"#utility.yul\":9477:9608   */\n      tag_186\n      jump\t// in\n    tag_222:\n        /* \"#utility.yul\":9469:9608   */\n      swap1\n      pop\n        /* \"#utility.yul\":9196:9615   */\n      swap2\n      swap1\n      pop\n      jump\t// out\n        /* \"#utility.yul\":9621:10040   */\n    tag_108:\n        /* \"#utility.yul\":9787:9791   */\n      0x00\n        /* \"#utility.yul\":9825:9827   */\n      0x20\n        /* \"#utility.yul\":9814:9823   */\n      dup3\n        /* \"#utility.yul\":9810:9828   */\n      add\n        /* \"#utility.yul\":9802:9828   */\n      swap1\n      pop\n        /* \"#utility.yul\":9874:9883   */\n      dup2\n        /* \"#utility.yul\":9868:9872   */\n      dup2\n        /* \"#utility.yul\":9864:9884   */\n      sub\n        /* \"#utility.yul\":9860:9861   */\n      0x00\n        /* \"#utility.yul\":9849:9858   */\n      dup4\n        /* \"#utility.yul\":9845:9862   */\n      add\n        /* \"#utility.yul\":9838:9885   */\n      mstore\n        /* \"#utility.yul\":9902:10033   */\n      tag_224\n        /* \"#utility.yul\":10028:10032   */\n      dup2\n        /* \"#utility.yul\":9902:10033   */\n      tag_196\n      jump\t// in\n    tag_224:\n        /* \"#utility.yul\":9894:10033   */\n      swap1\n      pop\n        /* \"#utility.yul\":9621:10040   */\n      swap2\n      swap1\n      pop\n      jump\t// out\n        /* \"#utility.yul\":10046:10260   */\n    tag_38:\n        /* \"#utility.yul\":10135:10139   */\n      0x00\n        /* \"#utility.yul\":10173:10175   */\n      0x20\n        /* \"#utility.yul\":10162:10171   */\n      dup3\n        /* \"#utility.yul\":10158:10176   */\n      add\n        /* \"#utility.yul\":10150:10176   */\n      swap1\n      pop\n        /* \"#utility.yul\":10186:10253   */\n      tag_226\n        /* \"#utility.yul\":10250:10251   */\n      0x00\n        /* \"#utility.yul\":10239:10248   */\n      dup4\n        /* \"#utility.yul\":10235:10252   */\n      add\n        /* \"#utility.yul\":10226:10232   */\n      dup5\n        /* \"#utility.yul\":10186:10253   */\n      tag_201\n      jump\t// in\n    tag_226:\n        /* \"#utility.yul\":10046:10260   */\n      swap3\n      swap2\n      pop\n      pop\n      jump\t// out\n        /* \"#utility.yul\":10347:10516   */\n    tag_157:\n        /* \"#utility.yul\":10431:10442   */\n      0x00\n        /* \"#utility.yul\":10465:10471   */\n      dup3\n        /* \"#utility.yul\":10460:10463   */\n      dup3\n        /* \"#utility.yul\":10453:10472   */\n      mstore\n        /* \"#utility.yul\":10505:10509   */\n      0x20\n        /* \"#utility.yul\":10500:10503   */\n      dup3\n        /* \"#utility.yul\":10496:10510   */\n      add\n        /* \"#utility.yul\":10481:10510   */\n      swap1\n      pop\n        /* \"#utility.yul\":10347:10516   */\n      swap3\n      swap2\n      pop\n      pop\n      jump\t// out\n        /* \"#utility.yul\":10522:10670   */\n    tag_163:\n        /* \"#utility.yul\":10624:10635   */\n      0x00\n        /* \"#utility.yul\":10661:10664   */\n      dup2\n        /* \"#utility.yul\":10646:10664   */\n      swap1\n      pop\n        /* \"#utility.yul\":10522:10670   */\n      swap3\n      swap2\n      pop\n      pop\n      jump\t// out\n        /* \"#utility.yul\":10676:10772   */\n    tag_231:\n        /* \"#utility.yul\":10713:10720   */\n      0x00\n        /* \"#utility.yul\":10742:10766   */\n      tag_233\n        /* \"#utility.yul\":10760:10765   */\n      dup3\n        /* \"#utility.yul\":10742:10766   */\n      tag_234\n      jump\t// in\n    tag_233:\n        /* \"#utility.yul\":10731:10766   */\n      swap1\n      pop\n        /* \"#utility.yul\":10676:10772   */\n      swap2\n      swap1\n      pop\n      jump\t// out\n        /* \"#utility.yul\":10778:10868   */\n    tag_153:\n        /* \"#utility.yul\":10812:10819   */\n      0x00\n        /* \"#utility.yul\":10855:10860   */\n      dup2\n        /* \"#utility.yul\":10848:10861   */\n      iszero\n        /* \"#utility.yul\":10841:10862   */\n      iszero\n        /* \"#utility.yul\":10830:10862   */\n      swap1\n      pop\n        /* \"#utility.yul\":10778:10868   */\n      swap2\n      swap1\n      pop\n      jump\t// out\n        /* \"#utility.yul\":10874:10951   */\n    tag_236:\n        /* \"#utility.yul\":10911:10918   */\n      0x00\n        /* \"#utility.yul\":10940:10945   */\n      dup2\n        /* \"#utility.yul\":10929:10945   */\n      swap1\n      pop\n        /* \"#utility.yul\":10874:10951   */\n      swap2\n      swap1\n      pop\n      jump\t// out\n        /* \"#utility.yul\":10957:11083   */\n    tag_234:\n        /* \"#utility.yul\":10994:11001   */\n      0x00\n        /* \"#utility.yul\":11034:11076   */\n      0xffffffffffffffffffffffffffffffffffffffff\n        /* \"#utility.yul\":11027:11032   */\n      dup3\n        /* \"#utility.yul\":11023:11077   */\n      and\n        /* \"#utility.yul\":11012:11077   */\n      swap1\n      pop\n        /* \"#utility.yul\":10957:11083   */\n      swap2\n      swap1\n      pop\n      jump\t// out\n        /* \"#utility.yul\":11089:11175   */\n    tag_204:\n        /* \"#utility.yul\":11124:11131   */\n      0x00\n        /* \"#utility.yul\":11164:11168   */\n      0xff\n        /* \"#utility.yul\":11157:11162   */\n      dup3\n        /* \"#utility.yul\":11153:11169   */\n      and\n        /* \"#utility.yul\":11142:11169   */\n      swap1\n      pop\n        /* \"#utility.yul\":11089:11175   */\n      swap2\n      swap1\n      pop\n      jump\t// out\n        /* \"#utility.yul\":11181:11361   */\n    tag_70:\n        /* \"#utility.yul\":11229:11306   */\n      0x4e487b7100000000000000000000000000000000000000000000000000000000\n        /* \"#utility.yul\":11226:11227   */\n      0x00\n        /* \"#utility.yul\":11219:11307   */\n      mstore\n        /* \"#utility.yul\":11326:11330   */\n      0x21\n        /* \"#utility.yul\":11323:11324   */\n      0x04\n        /* \"#utility.yul\":11316:11331   */\n      mstore\n        /* \"#utility.yul\":11350:11354   */\n      0x24\n        /* \"#utility.yul\":11347:11348   */\n      0x00\n        /* \"#utility.yul\":11340:11355   */\n      revert\n        /* \"#utility.yul\":11490:11607   */\n    tag_132:\n        /* \"#utility.yul\":11599:11600   */\n      0x00\n        /* \"#utility.yul\":11596:11597   */\n      dup1\n        /* \"#utility.yul\":11589:11601   */\n      revert\n        /* \"#utility.yul\":11613:11836   */\n    tag_159:\n        /* \"#utility.yul\":11753:11787   */\n      0x4f6e6c79204c6f63616c20446f63746f72732061726520417574686f72697a65\n        /* \"#utility.yul\":11749:11750   */\n      0x00\n        /* \"#utility.yul\":11741:11747   */\n      dup3\n        /* \"#utility.yul\":11737:11751   */\n      add\n        /* \"#utility.yul\":11730:11788   */\n      mstore\n        /* \"#utility.yul\":11822:11828   */\n      0x6421212100000000000000000000000000000000000000000000000000000000\n        /* \"#utility.yul\":11817:11819   */\n      0x20\n        /* \"#utility.yul\":11809:11815   */\n      dup3\n        /* \"#utility.yul\":11805:11820   */\n      add\n        /* \"#utility.yul\":11798:11829   */\n      mstore\n        /* \"#utility.yul\":11613:11836   */\n      pop\n      jump\t// out\n        /* \"#utility.yul\":11842:12008   */\n    tag_165:\n        /* \"#utility.yul\":11982:12000   */\n      0x4e6f726d616c5f436c656172656e636500000000000000000000000000000000\n        /* \"#utility.yul\":11978:11979   */\n      0x00\n        /* \"#utility.yul\":11970:11976   */\n      dup3\n        /* \"#utility.yul\":11966:11980   */\n      add\n        /* \"#utility.yul\":11959:12001   */\n      mstore\n        /* \"#utility.yul\":11842:12008   */\n      pop\n      jump\t// out\n        /* \"#utility.yul\":12014:12184   */\n    tag_170:\n        /* \"#utility.yul\":12154:12176   */\n      0x494e5445524e414c5f4445504152544d454e5453000000000000000000000000\n        /* \"#utility.yul\":12150:12151   */\n      0x00\n        /* \"#utility.yul\":12142:12148   */\n      dup3\n        /* \"#utility.yul\":12138:12152   */\n      add\n        /* \"#utility.yul\":12131:12177   */\n      mstore\n        /* \"#utility.yul\":12014:12184   */\n      pop\n      jump\t// out\n        /* \"#utility.yul\":12190:12353   */\n    tag_175:\n        /* \"#utility.yul\":12330:12345   */\n      0x4c6f775f436c656172656e636500000000000000000000000000000000000000\n        /* \"#utility.yul\":12326:12327   */\n      0x00\n        /* \"#utility.yul\":12318:12324   */\n      dup3\n        /* \"#utility.yul\":12314:12328   */\n      add\n        /* \"#utility.yul\":12307:12346   */\n      mstore\n        /* \"#utility.yul\":12190:12353   */\n      pop\n      jump\t// out\n        /* \"#utility.yul\":12359:12523   */\n    tag_180:\n        /* \"#utility.yul\":12499:12515   */\n      0x486967685f436c656172656e6365000000000000000000000000000000000000\n        /* \"#utility.yul\":12495:12496   */\n      0x00\n        /* \"#utility.yul\":12487:12493   */\n      dup3\n        /* \"#utility.yul\":12483:12497   */\n      add\n        /* \"#utility.yul\":12476:12516   */\n      mstore\n        /* \"#utility.yul\":12359:12523   */\n      pop\n      jump\t// out\n        /* \"#utility.yul\":12529:12822   */\n    tag_185:\n        /* \"#utility.yul\":12669:12703   */\n      0x54686973206163636f756e74206973206e6f742061637469766520616e796d6f\n        /* \"#utility.yul\":12665:12666   */\n      0x00\n        /* \"#utility.yul\":12657:12663   */\n      dup3\n        /* \"#utility.yul\":12653:12667   */\n      add\n        /* \"#utility.yul\":12646:12704   */\n      mstore\n        /* \"#utility.yul\":12738:12772   */\n      0x72652c20506c6561736520636f6e746163742072656c6174656420417574686f\n        /* \"#utility.yul\":12733:12735   */\n      0x20\n        /* \"#utility.yul\":12725:12731   */\n      dup3\n        /* \"#utility.yul\":12721:12736   */\n      add\n        /* \"#utility.yul\":12714:12773   */\n      mstore\n        /* \"#utility.yul\":12807:12814   */\n      0x7269747921000000000000000000000000000000000000000000000000000000\n        /* \"#utility.yul\":12802:12804   */\n      0x40\n        /* \"#utility.yul\":12794:12800   */\n      dup3\n        /* \"#utility.yul\":12790:12805   */\n      add\n        /* \"#utility.yul\":12783:12815   */\n      mstore\n        /* \"#utility.yul\":12529:12822   */\n      pop\n      jump\t// out\n        /* \"#utility.yul\":12828:13052   */\n    tag_190:\n        /* \"#utility.yul\":12968:13002   */\n      0x436c656172656e6365204c6576656c204d757374204265204269676765722074\n        /* \"#utility.yul\":12964:12965   */\n      0x00\n        /* \"#utility.yul\":12956:12962   */\n      dup3\n        /* \"#utility.yul\":12952:12966   */\n      add\n        /* \"#utility.yul\":12945:13003   */\n      mstore\n        /* \"#utility.yul\":13037:13044   */\n      0x68616e2030000000000000000000000000000000000000000000000000000000\n        /* \"#utility.yul\":13032:13034   */\n      0x20\n        /* \"#utility.yul\":13024:13030   */\n      dup3\n        /* \"#utility.yul\":13020:13035   */\n      add\n        /* \"#utility.yul\":13013:13045   */\n      mstore\n        /* \"#utility.yul\":12828:13052   */\n      pop\n      jump\t// out\n        /* \"#utility.yul\":13058:13221   */\n    tag_195:\n        /* \"#utility.yul\":13198:13213   */\n      0x546f705f436c656172656e636500000000000000000000000000000000000000\n        /* \"#utility.yul\":13194:13195   */\n      0x00\n        /* \"#utility.yul\":13186:13192   */\n      dup3\n        /* \"#utility.yul\":13182:13196   */\n      add\n        /* \"#utility.yul\":13175:13214   */\n      mstore\n        /* \"#utility.yul\":13058:13221   */\n      pop\n      jump\t// out\n        /* \"#utility.yul\":13227:13398   */\n    tag_200:\n        /* \"#utility.yul\":13367:13390   */\n      0x4e6f7420612056616c696420446f63746f722121210000000000000000000000\n        /* \"#utility.yul\":13363:13364   */\n      0x00\n        /* \"#utility.yul\":13355:13361   */\n      dup3\n        /* \"#utility.yul\":13351:13365   */\n      add\n        /* \"#utility.yul\":13344:13391   */\n      mstore\n        /* \"#utility.yul\":13227:13398   */\n      pop\n      jump\t// out\n        /* \"#utility.yul\":13404:13526   */\n    tag_120:\n        /* \"#utility.yul\":13477:13501   */\n      tag_254\n        /* \"#utility.yul\":13495:13500   */\n      dup2\n        /* \"#utility.yul\":13477:13501   */\n      tag_231\n      jump\t// in\n    tag_254:\n        /* \"#utility.yul\":13470:13475   */\n      dup2\n        /* \"#utility.yul\":13467:13502   */\n      eq\n        /* \"#utility.yul\":13457:13520   */\n      tag_255\n      jumpi\n        /* \"#utility.yul\":13516:13517   */\n      0x00\n        /* \"#utility.yul\":13513:13514   */\n      dup1\n        /* \"#utility.yul\":13506:13518   */\n      revert\n        /* \"#utility.yul\":13457:13520   */\n    tag_255:\n        /* \"#utility.yul\":13404:13526   */\n      pop\n      jump\t// out\n        /* \"#utility.yul\":13532:13654   */\n    tag_124:\n        /* \"#utility.yul\":13605:13629   */\n      tag_257\n        /* \"#utility.yul\":13623:13628   */\n      dup2\n        /* \"#utility.yul\":13605:13629   */\n      tag_236\n      jump\t// in\n    tag_257:\n        /* \"#utility.yul\":13598:13603   */\n      dup2\n        /* \"#utility.yul\":13595:13630   */\n      eq\n        /* \"#utility.yul\":13585:13648   */\n      tag_258\n      jumpi\n        /* \"#utility.yul\":13644:13645   */\n      0x00\n        /* \"#utility.yul\":13641:13642   */\n      dup1\n        /* \"#utility.yul\":13634:13646   */\n      revert\n        /* \"#utility.yul\":13585:13648   */\n    tag_258:\n        /* \"#utility.yul\":13532:13654   */\n      pop\n      jump\t// out\n        /* \"#utility.yul\":13660:13777   */\n    tag_128:\n        /* \"#utility.yul\":13751:13752   */\n      0x05\n        /* \"#utility.yul\":13744:13749   */\n      dup2\n        /* \"#utility.yul\":13741:13753   */\n      lt\n        /* \"#utility.yul\":13731:13771   */\n      tag_260\n      jumpi\n        /* \"#utility.yul\":13767:13768   */\n      0x00\n        /* \"#utility.yul\":13764:13765   */\n      dup1\n        /* \"#utility.yul\":13757:13769   */\n      revert\n        /* \"#utility.yul\":13731:13771   */\n    tag_260:\n        /* \"#utility.yul\":13660:13777   */\n      pop\n      jump\t// out\n\n    auxdata: 0xa2646970667358221220895bf28120d3a35c52375d51ee4b43de7f9d7e2f88d68e559c7b9310956b40b564736f6c63430008070033\n}\n",
				"bytecode": {
					"linkReferences": {},
					"object": "608060405234801561001057600080fd5b5060018060003373ffffffffffffffffffffffffffffffffffffffff1673ffffffffffffffffffffffffffffffffffffffff16815260200190815260200160002060006101000a81548160ff0219169083151502179055506001600260003373ffffffffffffffffffffffffffffffffffffffff1673ffffffffffffffffffffffffffffffffffffffff16815260200190815260200160002060006101000a81548160ff0219169083151502179055507fe6ed86d632a71c92fc78ee69edb0bb73ffd8753aecbcea56fb4b61c6d5d6eb5560001b600360003373ffffffffffffffffffffffffffffffffffffffff1673ffffffffffffffffffffffffffffffffffffffff168152602001908152602001600020600001819055507f62e462c3db967710b1e6fa7fa197989f3de6a7b5977c1c87b6bab9a4f32f19e060001b600360003373ffffffffffffffffffffffffffffffffffffffff1673ffffffffffffffffffffffffffffffffffffffff168152602001908152602001600020600101819055506111ed806101a36000396000f3fe608060405234801561001057600080fd5b50600436106100a95760003560e01c8063665057ef11610071578063665057ef1461015057806368f1130f1461018057806381eaba9a1461019e578063996440c6146101ba578063db189d43146101ea578063f1ac2d6614610206576100a9565b80631d919395146100ae5780633c779869146100ca57806341d49487146100fa578063586008ef14610116578063589421f214610134575b600080fd5b6100c860048036038101906100c39190610b53565b610236565b005b6100e460048036038101906100df9190610b53565b610290565b6040516100f19190610e15565b60405180910390f35b610114600480360381019061010f9190610b53565b610343565b005b61011e61039e565b60405161012b9190610e15565b60405180910390f35b61014e60048036038101906101499190610bd3565b610448565b005b61016a60048036038101906101659190610b53565b610556565b6040516101779190610eb0565b60405180910390f35b610188610797565b6040516101959190610e15565b60405180910390f35b6101b860048036038101906101b39190610c26565b610841565b005b6101d460048036038101906101cf9190610b53565b61088b565b6040516101e19190610e15565b60405180910390f35b61020460048036038101906101ff9190610b80565b6109ae565b005b610220600480360381019061021b9190610b53565b610aa9565b60405161022d9190610eb0565b60405180910390f35b60018060008373ffffffffffffffffffffffffffffffffffffffff1673ffffffffffffffffffffffffffffffffffffffff16815260200190815260200160002060006101000a81548160ff02191690831515021790555050565b60006040516020016102a190610dc1565b60405160208183030381529060405280519060200120600360008473ffffffffffffffffffffffffffffffffffffffff1673ffffffffffffffffffffffffffffffffffffffff168152602001908152602001600020600101541461033a576040517f08c379a000000000000000000000000000000000000000000000000000000000815260040161033190610e30565b60405180910390fd5b60019050919050565b6001600260008373ffffffffffffffffffffffffffffffffffffffff1673ffffffffffffffffffffffffffffffffffffffff16815260200190815260200160002060006101000a81548160ff02191690831515021790555050565b6000600160003373ffffffffffffffffffffffffffffffffffffffff1673ffffffffffffffffffffffffffffffffffffffff16815260200190815260200160002060009054906101000a900460ff1615600160003373ffffffffffffffffffffffffffffffffffffffff1673ffffffffffffffffffffffffffffffffffffffff16815260200190815260200160002060006101000a81548160ff0219169083151502179055905090565b600081600481111561045d5761045c610f3c565b5b60ff16116104a0576040517f08c379a000000000000000000000000000000000000000000000000000000000815260040161049790610e70565b60405180910390fd5b81600460008573ffffffffffffffffffffffffffffffffffffffff1673ffffffffffffffffffffffffffffffffffffffff1681526020019081526020016000206000018190555080600460008573ffffffffffffffffffffffffffffffffffffffff1673ffffffffffffffffffffffffffffffffffffffff16815260200190815260200160002060010160006101000a81548160ff0219169083600481111561054c5761054b610f3c565b5b0217905550505050565b600060405160200161056790610e00565b60405160208183030381529060405280519060200120600360008473ffffffffffffffffffffffffffffffffffffffff1673ffffffffffffffffffffffffffffffffffffffff1681526020019081526020016000206000015414156105e0576004808111156105d9576105d8610f3c565b5b9050610792565b6040516020016105ef90610deb565b60405160208183030381529060405280519060200120600360008473ffffffffffffffffffffffffffffffffffffffff1673ffffffffffffffffffffffffffffffffffffffff168152602001908152602001600020600001541415610669576003600481111561066257610661610f3c565b5b9050610792565b60405160200161067890610dac565b60405160208183030381529060405280519060200120600360008473ffffffffffffffffffffffffffffffffffffffff1673ffffffffffffffffffffffffffffffffffffffff1681526020019081526020016000206000015414156106f257600260048111156106eb576106ea610f3c565b5b9050610792565b60405160200161070190610dd6565b60405160208183030381529060405280519060200120600360008473ffffffffffffffffffffffffffffffffffffffff1673ffffffffffffffffffffffffffffffffffffffff16815260200190815260200160002060000154141561077b576001600481111561077457610773610f3c565b5b9050610792565b6000600481111561078f5761078e610f3c565b5b90505b919050565b6000600260003373ffffffffffffffffffffffffffffffffffffffff1673ffffffffffffffffffffffffffffffffffffffff16815260200190815260200160002060009054906101000a900460ff1615600260003373ffffffffffffffffffffffffffffffffffffffff1673ffffffffffffffffffffffffffffffffffffffff16815260200190815260200160002060006101000a81548160ff0219169083151502179055905090565b80600360003373ffffffffffffffffffffffffffffffffffffffff1673ffffffffffffffffffffffffffffffffffffffff1681526020019081526020016000206000018190555050565b6000600160008373ffffffffffffffffffffffffffffffffffffffff1673ffffffffffffffffffffffffffffffffffffffff16815260200190815260200160002060009054906101000a900460ff16610919576040517f08c379a000000000000000000000000000000000000000000000000000000000815260040161091090610e90565b60405180910390fd5b600260008373ffffffffffffffffffffffffffffffffffffffff1673ffffffffffffffffffffffffffffffffffffffff16815260200190815260200160002060009054906101000a900460ff166109a5576040517f08c379a000000000000000000000000000000000000000000000000000000000815260040161099c90610e50565b60405180910390fd5b60019050919050565b81600360008573ffffffffffffffffffffffffffffffffffffffff1673ffffffffffffffffffffffffffffffffffffffff1681526020019081526020016000206000018190555080600360008573ffffffffffffffffffffffffffffffffffffffff1673ffffffffffffffffffffffffffffffffffffffff16815260200190815260200160002060010181905550600160008083815260200190815260200160002060008573ffffffffffffffffffffffffffffffffffffffff1673ffffffffffffffffffffffffffffffffffffffff16815260200190815260200160002060006101000a81548160ff021916908315150217905550505050565b6000600460008373ffffffffffffffffffffffffffffffffffffffff1673ffffffffffffffffffffffffffffffffffffffff16815260200190815260200160002060010160009054906101000a900460ff166004811115610b0d57610b0c610f3c565b5b9050919050565b600081359050610b2381611179565b92915050565b600081359050610b3881611190565b92915050565b600081359050610b4d816111a7565b92915050565b600060208284031215610b6957610b68610f6b565b5b6000610b7784828501610b14565b91505092915050565b600080600060608486031215610b9957610b98610f6b565b5b6000610ba786828701610b14565b9350506020610bb886828701610b29565b9250506040610bc986828701610b29565b9150509250925092565b600080600060608486031215610bec57610beb610f6b565b5b6000610bfa86828701610b14565b9350506020610c0b86828701610b29565b9250506040610c1c86828701610b3e565b9150509250925092565b600060208284031215610c3c57610c3b610f6b565b5b6000610c4a84828501610b29565b91505092915050565b610c5c81610ef9565b82525050565b6000610c6f602483610ecb565b9150610c7a82610f70565b604082019050919050565b6000610c92601083610edc565b9150610c9d82610fbf565b601082019050919050565b6000610cb5601483610edc565b9150610cc082610fe8565b601482019050919050565b6000610cd8600d83610edc565b9150610ce382611011565b600d82019050919050565b6000610cfb600e83610edc565b9150610d068261103a565b600e82019050919050565b6000610d1e604583610ecb565b9150610d2982611063565b606082019050919050565b6000610d41602583610ecb565b9150610d4c826110d8565b604082019050919050565b6000610d64600d83610edc565b9150610d6f82611127565b600d82019050919050565b6000610d87601583610ecb565b9150610d9282611150565b602082019050919050565b610da681610f2f565b82525050565b6000610db782610c85565b9150819050919050565b6000610dcc82610ca8565b9150819050919050565b6000610de182610ccb565b9150819050919050565b6000610df682610cee565b9150819050919050565b6000610e0b82610d57565b9150819050919050565b6000602082019050610e2a6000830184610c53565b92915050565b60006020820190508181036000830152610e4981610c62565b9050919050565b60006020820190508181036000830152610e6981610d11565b9050919050565b60006020820190508181036000830152610e8981610d34565b9050919050565b60006020820190508181036000830152610ea981610d7a565b9050919050565b6000602082019050610ec56000830184610d9d565b92915050565b600082825260208201905092915050565b600081905092915050565b6000610ef282610f0f565b9050919050565b60008115159050919050565b6000819050919050565b600073ffffffffffffffffffffffffffffffffffffffff82169050919050565b600060ff82169050919050565b7f4e487b7100000000000000000000000000000000000000000000000000000000600052602160045260246000fd5b600080fd5b7f4f6e6c79204c6f63616c20446f63746f72732061726520417574686f72697a6560008201527f6421212100000000000000000000000000000000000000000000000000000000602082015250565b7f4e6f726d616c5f436c656172656e636500000000000000000000000000000000600082015250565b7f494e5445524e414c5f4445504152544d454e5453000000000000000000000000600082015250565b7f4c6f775f436c656172656e636500000000000000000000000000000000000000600082015250565b7f486967685f436c656172656e6365000000000000000000000000000000000000600082015250565b7f54686973206163636f756e74206973206e6f742061637469766520616e796d6f60008201527f72652c20506c6561736520636f6e746163742072656c6174656420417574686f60208201527f7269747921000000000000000000000000000000000000000000000000000000604082015250565b7f436c656172656e6365204c6576656c204d75737420426520426967676572207460008201527f68616e2030000000000000000000000000000000000000000000000000000000602082015250565b7f546f705f436c656172656e636500000000000000000000000000000000000000600082015250565b7f4e6f7420612056616c696420446f63746f722121210000000000000000000000600082015250565b61118281610ee7565b811461118d57600080fd5b50565b61119981610f05565b81146111a457600080fd5b50565b600581106111b457600080fd5b5056fea2646970667358221220895bf28120d3a35c52375d51ee4b43de7f9d7e2f88d68e559c7b9310956b40b564736f6c63430008070033",
					"opcodes": "PUSH1 0x80 PUSH1 0x40 MSTORE CALLVALUE DUP1 ISZERO PUSH2 0x10 JUMPI PUSH1 0x0 DUP1 REVERT JUMPDEST POP PUSH1 0x1 DUP1 PUSH1 0x0 CALLER PUSH20 0xFFFFFFFFFFFFFFFFFFFFFFFFFFFFFFFFFFFFFFFF AND PUSH20 0xFFFFFFFFFFFFFFFFFFFFFFFFFFFFFFFFFFFFFFFF AND DUP2 MSTORE PUSH1 0x20 ADD SWAP1 DUP2 MSTORE PUSH1 0x20 ADD PUSH1 0x0 KECCAK256 PUSH1 0x0 PUSH2 0x100 EXP DUP2 SLOAD DUP2 PUSH1 0xFF MUL NOT AND SWAP1 DUP4 ISZERO ISZERO MUL OR SWAP1 SSTORE POP PUSH1 0x1 PUSH1 0x2 PUSH1 0x0 CALLER PUSH20 0xFFFFFFFFFFFFFFFFFFFFFFFFFFFFFFFFFFFFFFFF AND PUSH20 0xFFFFFFFFFFFFFFFFFFFFFFFFFFFFFFFFFFFFFFFF AND DUP2 MSTORE PUSH1 0x20 ADD SWAP1 DUP2 MSTORE PUSH1 0x20 ADD PUSH1 0x0 KECCAK256 PUSH1 0x0 PUSH2 0x100 EXP DUP2 SLOAD DUP2 PUSH1 0xFF MUL NOT AND SWAP1 DUP4 ISZERO ISZERO MUL OR SWAP1 SSTORE POP PUSH32 0xE6ED86D632A71C92FC78EE69EDB0BB73FFD8753AECBCEA56FB4B61C6D5D6EB55 PUSH1 0x0 SHL PUSH1 0x3 PUSH1 0x0 CALLER PUSH20 0xFFFFFFFFFFFFFFFFFFFFFFFFFFFFFFFFFFFFFFFF AND PUSH20 0xFFFFFFFFFFFFFFFFFFFFFFFFFFFFFFFFFFFFFFFF AND DUP2 MSTORE PUSH1 0x20 ADD SWAP1 DUP2 MSTORE PUSH1 0x20 ADD PUSH1 0x0 KECCAK256 PUSH1 0x0 ADD DUP2 SWAP1 SSTORE POP PUSH32 0x62E462C3DB967710B1E6FA7FA197989F3DE6A7B5977C1C87B6BAB9A4F32F19E0 PUSH1 0x0 SHL PUSH1 0x3 PUSH1 0x0 CALLER PUSH20 0xFFFFFFFFFFFFFFFFFFFFFFFFFFFFFFFFFFFFFFFF AND PUSH20 0xFFFFFFFFFFFFFFFFFFFFFFFFFFFFFFFFFFFFFFFF AND DUP2 MSTORE PUSH1 0x20 ADD SWAP1 DUP2 MSTORE PUSH1 0x20 ADD PUSH1 0x0 KECCAK256 PUSH1 0x1 ADD DUP2 SWAP1 SSTORE POP PUSH2 0x11ED DUP1 PUSH2 0x1A3 PUSH1 0x0 CODECOPY PUSH1 0x0 RETURN INVALID PUSH1 0x80 PUSH1 0x40 MSTORE CALLVALUE DUP1 ISZERO PUSH2 0x10 JUMPI PUSH1 0x0 DUP1 REVERT JUMPDEST POP PUSH1 0x4 CALLDATASIZE LT PUSH2 0xA9 JUMPI PUSH1 0x0 CALLDATALOAD PUSH1 0xE0 SHR DUP1 PUSH4 0x665057EF GT PUSH2 0x71 JUMPI DUP1 PUSH4 0x665057EF EQ PUSH2 0x150 JUMPI DUP1 PUSH4 0x68F1130F EQ PUSH2 0x180 JUMPI DUP1 PUSH4 0x81EABA9A EQ PUSH2 0x19E JUMPI DUP1 PUSH4 0x996440C6 EQ PUSH2 0x1BA JUMPI DUP1 PUSH4 0xDB189D43 EQ PUSH2 0x1EA JUMPI DUP1 PUSH4 0xF1AC2D66 EQ PUSH2 0x206 JUMPI PUSH2 0xA9 JUMP JUMPDEST DUP1 PUSH4 0x1D919395 EQ PUSH2 0xAE JUMPI DUP1 PUSH4 0x3C779869 EQ PUSH2 0xCA JUMPI DUP1 PUSH4 0x41D49487 EQ PUSH2 0xFA JUMPI DUP1 PUSH4 0x586008EF EQ PUSH2 0x116 JUMPI DUP1 PUSH4 0x589421F2 EQ PUSH2 0x134 JUMPI JUMPDEST PUSH1 0x0 DUP1 REVERT JUMPDEST PUSH2 0xC8 PUSH1 0x4 DUP1 CALLDATASIZE SUB DUP2 ADD SWAP1 PUSH2 0xC3 SWAP2 SWAP1 PUSH2 0xB53 JUMP JUMPDEST PUSH2 0x236 JUMP JUMPDEST STOP JUMPDEST PUSH2 0xE4 PUSH1 0x4 DUP1 CALLDATASIZE SUB DUP2 ADD SWAP1 PUSH2 0xDF SWAP2 SWAP1 PUSH2 0xB53 JUMP JUMPDEST PUSH2 0x290 JUMP JUMPDEST PUSH1 0x40 MLOAD PUSH2 0xF1 SWAP2 SWAP1 PUSH2 0xE15 JUMP JUMPDEST PUSH1 0x40 MLOAD DUP1 SWAP2 SUB SWAP1 RETURN JUMPDEST PUSH2 0x114 PUSH1 0x4 DUP1 CALLDATASIZE SUB DUP2 ADD SWAP1 PUSH2 0x10F SWAP2 SWAP1 PUSH2 0xB53 JUMP JUMPDEST PUSH2 0x343 JUMP JUMPDEST STOP JUMPDEST PUSH2 0x11E PUSH2 0x39E JUMP JUMPDEST PUSH1 0x40 MLOAD PUSH2 0x12B SWAP2 SWAP1 PUSH2 0xE15 JUMP JUMPDEST PUSH1 0x40 MLOAD DUP1 SWAP2 SUB SWAP1 RETURN JUMPDEST PUSH2 0x14E PUSH1 0x4 DUP1 CALLDATASIZE SUB DUP2 ADD SWAP1 PUSH2 0x149 SWAP2 SWAP1 PUSH2 0xBD3 JUMP JUMPDEST PUSH2 0x448 JUMP JUMPDEST STOP JUMPDEST PUSH2 0x16A PUSH1 0x4 DUP1 CALLDATASIZE SUB DUP2 ADD SWAP1 PUSH2 0x165 SWAP2 SWAP1 PUSH2 0xB53 JUMP JUMPDEST PUSH2 0x556 JUMP JUMPDEST PUSH1 0x40 MLOAD PUSH2 0x177 SWAP2 SWAP1 PUSH2 0xEB0 JUMP JUMPDEST PUSH1 0x40 MLOAD DUP1 SWAP2 SUB SWAP1 RETURN JUMPDEST PUSH2 0x188 PUSH2 0x797 JUMP JUMPDEST PUSH1 0x40 MLOAD PUSH2 0x195 SWAP2 SWAP1 PUSH2 0xE15 JUMP JUMPDEST PUSH1 0x40 MLOAD DUP1 SWAP2 SUB SWAP1 RETURN JUMPDEST PUSH2 0x1B8 PUSH1 0x4 DUP1 CALLDATASIZE SUB DUP2 ADD SWAP1 PUSH2 0x1B3 SWAP2 SWAP1 PUSH2 0xC26 JUMP JUMPDEST PUSH2 0x841 JUMP JUMPDEST STOP JUMPDEST PUSH2 0x1D4 PUSH1 0x4 DUP1 CALLDATASIZE SUB DUP2 ADD SWAP1 PUSH2 0x1CF SWAP2 SWAP1 PUSH2 0xB53 JUMP JUMPDEST PUSH2 0x88B JUMP JUMPDEST PUSH1 0x40 MLOAD PUSH2 0x1E1 SWAP2 SWAP1 PUSH2 0xE15 JUMP JUMPDEST PUSH1 0x40 MLOAD DUP1 SWAP2 SUB SWAP1 RETURN JUMPDEST PUSH2 0x204 PUSH1 0x4 DUP1 CALLDATASIZE SUB DUP2 ADD SWAP1 PUSH2 0x1FF SWAP2 SWAP1 PUSH2 0xB80 JUMP JUMPDEST PUSH2 0x9AE JUMP JUMPDEST STOP JUMPDEST PUSH2 0x220 PUSH1 0x4 DUP1 CALLDATASIZE SUB DUP2 ADD SWAP1 PUSH2 0x21B SWAP2 SWAP1 PUSH2 0xB53 JUMP JUMPDEST PUSH2 0xAA9 JUMP JUMPDEST PUSH1 0x40 MLOAD PUSH2 0x22D SWAP2 SWAP1 PUSH2 0xEB0 JUMP JUMPDEST PUSH1 0x40 MLOAD DUP1 SWAP2 SUB SWAP1 RETURN JUMPDEST PUSH1 0x1 DUP1 PUSH1 0x0 DUP4 PUSH20 0xFFFFFFFFFFFFFFFFFFFFFFFFFFFFFFFFFFFFFFFF AND PUSH20 0xFFFFFFFFFFFFFFFFFFFFFFFFFFFFFFFFFFFFFFFF AND DUP2 MSTORE PUSH1 0x20 ADD SWAP1 DUP2 MSTORE PUSH1 0x20 ADD PUSH1 0x0 KECCAK256 PUSH1 0x0 PUSH2 0x100 EXP DUP2 SLOAD DUP2 PUSH1 0xFF MUL NOT AND SWAP1 DUP4 ISZERO ISZERO MUL OR SWAP1 SSTORE POP POP JUMP JUMPDEST PUSH1 0x0 PUSH1 0x40 MLOAD PUSH1 0x20 ADD PUSH2 0x2A1 SWAP1 PUSH2 0xDC1 JUMP JUMPDEST PUSH1 0x40 MLOAD PUSH1 0x20 DUP2 DUP4 SUB SUB DUP2 MSTORE SWAP1 PUSH1 0x40 MSTORE DUP1 MLOAD SWAP1 PUSH1 0x20 ADD KECCAK256 PUSH1 0x3 PUSH1 0x0 DUP5 PUSH20 0xFFFFFFFFFFFFFFFFFFFFFFFFFFFFFFFFFFFFFFFF AND PUSH20 0xFFFFFFFFFFFFFFFFFFFFFFFFFFFFFFFFFFFFFFFF AND DUP2 MSTORE PUSH1 0x20 ADD SWAP1 DUP2 MSTORE PUSH1 0x20 ADD PUSH1 0x0 KECCAK256 PUSH1 0x1 ADD SLOAD EQ PUSH2 0x33A JUMPI PUSH1 0x40 MLOAD PUSH32 0x8C379A000000000000000000000000000000000000000000000000000000000 DUP2 MSTORE PUSH1 0x4 ADD PUSH2 0x331 SWAP1 PUSH2 0xE30 JUMP JUMPDEST PUSH1 0x40 MLOAD DUP1 SWAP2 SUB SWAP1 REVERT JUMPDEST PUSH1 0x1 SWAP1 POP SWAP2 SWAP1 POP JUMP JUMPDEST PUSH1 0x1 PUSH1 0x2 PUSH1 0x0 DUP4 PUSH20 0xFFFFFFFFFFFFFFFFFFFFFFFFFFFFFFFFFFFFFFFF AND PUSH20 0xFFFFFFFFFFFFFFFFFFFFFFFFFFFFFFFFFFFFFFFF AND DUP2 MSTORE PUSH1 0x20 ADD SWAP1 DUP2 MSTORE PUSH1 0x20 ADD PUSH1 0x0 KECCAK256 PUSH1 0x0 PUSH2 0x100 EXP DUP2 SLOAD DUP2 PUSH1 0xFF MUL NOT AND SWAP1 DUP4 ISZERO ISZERO MUL OR SWAP1 SSTORE POP POP JUMP JUMPDEST PUSH1 0x0 PUSH1 0x1 PUSH1 0x0 CALLER PUSH20 0xFFFFFFFFFFFFFFFFFFFFFFFFFFFFFFFFFFFFFFFF AND PUSH20 0xFFFFFFFFFFFFFFFFFFFFFFFFFFFFFFFFFFFFFFFF AND DUP2 MSTORE PUSH1 0x20 ADD SWAP1 DUP2 MSTORE PUSH1 0x20 ADD PUSH1 0x0 KECCAK256 PUSH1 0x0 SWAP1 SLOAD SWAP1 PUSH2 0x100 EXP SWAP1 DIV PUSH1 0xFF AND ISZERO PUSH1 0x1 PUSH1 0x0 CALLER PUSH20 0xFFFFFFFFFFFFFFFFFFFFFFFFFFFFFFFFFFFFFFFF AND PUSH20 0xFFFFFFFFFFFFFFFFFFFFFFFFFFFFFFFFFFFFFFFF AND DUP2 MSTORE PUSH1 0x20 ADD SWAP1 DUP2 MSTORE PUSH1 0x20 ADD PUSH1 0x0 KECCAK256 PUSH1 0x0 PUSH2 0x100 EXP DUP2 SLOAD DUP2 PUSH1 0xFF MUL NOT AND SWAP1 DUP4 ISZERO ISZERO MUL OR SWAP1 SSTORE SWAP1 POP SWAP1 JUMP JUMPDEST PUSH1 0x0 DUP2 PUSH1 0x4 DUP2 GT ISZERO PUSH2 0x45D JUMPI PUSH2 0x45C PUSH2 0xF3C JUMP JUMPDEST JUMPDEST PUSH1 0xFF AND GT PUSH2 0x4A0 JUMPI PUSH1 0x40 MLOAD PUSH32 0x8C379A000000000000000000000000000000000000000000000000000000000 DUP2 MSTORE PUSH1 0x4 ADD PUSH2 0x497 SWAP1 PUSH2 0xE70 JUMP JUMPDEST PUSH1 0x40 MLOAD DUP1 SWAP2 SUB SWAP1 REVERT JUMPDEST DUP2 PUSH1 0x4 PUSH1 0x0 DUP6 PUSH20 0xFFFFFFFFFFFFFFFFFFFFFFFFFFFFFFFFFFFFFFFF AND PUSH20 0xFFFFFFFFFFFFFFFFFFFFFFFFFFFFFFFFFFFFFFFF AND DUP2 MSTORE PUSH1 0x20 ADD SWAP1 DUP2 MSTORE PUSH1 0x20 ADD PUSH1 0x0 KECCAK256 PUSH1 0x0 ADD DUP2 SWAP1 SSTORE POP DUP1 PUSH1 0x4 PUSH1 0x0 DUP6 PUSH20 0xFFFFFFFFFFFFFFFFFFFFFFFFFFFFFFFFFFFFFFFF AND PUSH20 0xFFFFFFFFFFFFFFFFFFFFFFFFFFFFFFFFFFFFFFFF AND DUP2 MSTORE PUSH1 0x20 ADD SWAP1 DUP2 MSTORE PUSH1 0x20 ADD PUSH1 0x0 KECCAK256 PUSH1 0x1 ADD PUSH1 0x0 PUSH2 0x100 EXP DUP2 SLOAD DUP2 PUSH1 0xFF MUL NOT AND SWAP1 DUP4 PUSH1 0x4 DUP2 GT ISZERO PUSH2 0x54C JUMPI PUSH2 0x54B PUSH2 0xF3C JUMP JUMPDEST JUMPDEST MUL OR SWAP1 SSTORE POP POP POP POP JUMP JUMPDEST PUSH1 0x0 PUSH1 0x40 MLOAD PUSH1 0x20 ADD PUSH2 0x567 SWAP1 PUSH2 0xE00 JUMP JUMPDEST PUSH1 0x40 MLOAD PUSH1 0x20 DUP2 DUP4 SUB SUB DUP2 MSTORE SWAP1 PUSH1 0x40 MSTORE DUP1 MLOAD SWAP1 PUSH1 0x20 ADD KECCAK256 PUSH1 0x3 PUSH1 0x0 DUP5 PUSH20 0xFFFFFFFFFFFFFFFFFFFFFFFFFFFFFFFFFFFFFFFF AND PUSH20 0xFFFFFFFFFFFFFFFFFFFFFFFFFFFFFFFFFFFFFFFF AND DUP2 MSTORE PUSH1 0x20 ADD SWAP1 DUP2 MSTORE PUSH1 0x20 ADD PUSH1 0x0 KECCAK256 PUSH1 0x0 ADD SLOAD EQ ISZERO PUSH2 0x5E0 JUMPI PUSH1 0x4 DUP1 DUP2 GT ISZERO PUSH2 0x5D9 JUMPI PUSH2 0x5D8 PUSH2 0xF3C JUMP JUMPDEST JUMPDEST SWAP1 POP PUSH2 0x792 JUMP JUMPDEST PUSH1 0x40 MLOAD PUSH1 0x20 ADD PUSH2 0x5EF SWAP1 PUSH2 0xDEB JUMP JUMPDEST PUSH1 0x40 MLOAD PUSH1 0x20 DUP2 DUP4 SUB SUB DUP2 MSTORE SWAP1 PUSH1 0x40 MSTORE DUP1 MLOAD SWAP1 PUSH1 0x20 ADD KECCAK256 PUSH1 0x3 PUSH1 0x0 DUP5 PUSH20 0xFFFFFFFFFFFFFFFFFFFFFFFFFFFFFFFFFFFFFFFF AND PUSH20 0xFFFFFFFFFFFFFFFFFFFFFFFFFFFFFFFFFFFFFFFF AND DUP2 MSTORE PUSH1 0x20 ADD SWAP1 DUP2 MSTORE PUSH1 0x20 ADD PUSH1 0x0 KECCAK256 PUSH1 0x0 ADD SLOAD EQ ISZERO PUSH2 0x669 JUMPI PUSH1 0x3 PUSH1 0x4 DUP2 GT ISZERO PUSH2 0x662 JUMPI PUSH2 0x661 PUSH2 0xF3C JUMP JUMPDEST JUMPDEST SWAP1 POP PUSH2 0x792 JUMP JUMPDEST PUSH1 0x40 MLOAD PUSH1 0x20 ADD PUSH2 0x678 SWAP1 PUSH2 0xDAC JUMP JUMPDEST PUSH1 0x40 MLOAD PUSH1 0x20 DUP2 DUP4 SUB SUB DUP2 MSTORE SWAP1 PUSH1 0x40 MSTORE DUP1 MLOAD SWAP1 PUSH1 0x20 ADD KECCAK256 PUSH1 0x3 PUSH1 0x0 DUP5 PUSH20 0xFFFFFFFFFFFFFFFFFFFFFFFFFFFFFFFFFFFFFFFF AND PUSH20 0xFFFFFFFFFFFFFFFFFFFFFFFFFFFFFFFFFFFFFFFF AND DUP2 MSTORE PUSH1 0x20 ADD SWAP1 DUP2 MSTORE PUSH1 0x20 ADD PUSH1 0x0 KECCAK256 PUSH1 0x0 ADD SLOAD EQ ISZERO PUSH2 0x6F2 JUMPI PUSH1 0x2 PUSH1 0x4 DUP2 GT ISZERO PUSH2 0x6EB JUMPI PUSH2 0x6EA PUSH2 0xF3C JUMP JUMPDEST JUMPDEST SWAP1 POP PUSH2 0x792 JUMP JUMPDEST PUSH1 0x40 MLOAD PUSH1 0x20 ADD PUSH2 0x701 SWAP1 PUSH2 0xDD6 JUMP JUMPDEST PUSH1 0x40 MLOAD PUSH1 0x20 DUP2 DUP4 SUB SUB DUP2 MSTORE SWAP1 PUSH1 0x40 MSTORE DUP1 MLOAD SWAP1 PUSH1 0x20 ADD KECCAK256 PUSH1 0x3 PUSH1 0x0 DUP5 PUSH20 0xFFFFFFFFFFFFFFFFFFFFFFFFFFFFFFFFFFFFFFFF AND PUSH20 0xFFFFFFFFFFFFFFFFFFFFFFFFFFFFFFFFFFFFFFFF AND DUP2 MSTORE PUSH1 0x20 ADD SWAP1 DUP2 MSTORE PUSH1 0x20 ADD PUSH1 0x0 KECCAK256 PUSH1 0x0 ADD SLOAD EQ ISZERO PUSH2 0x77B JUMPI PUSH1 0x1 PUSH1 0x4 DUP2 GT ISZERO PUSH2 0x774 JUMPI PUSH2 0x773 PUSH2 0xF3C JUMP JUMPDEST JUMPDEST SWAP1 POP PUSH2 0x792 JUMP JUMPDEST PUSH1 0x0 PUSH1 0x4 DUP2 GT ISZERO PUSH2 0x78F JUMPI PUSH2 0x78E PUSH2 0xF3C JUMP JUMPDEST JUMPDEST SWAP1 POP JUMPDEST SWAP2 SWAP1 POP JUMP JUMPDEST PUSH1 0x0 PUSH1 0x2 PUSH1 0x0 CALLER PUSH20 0xFFFFFFFFFFFFFFFFFFFFFFFFFFFFFFFFFFFFFFFF AND PUSH20 0xFFFFFFFFFFFFFFFFFFFFFFFFFFFFFFFFFFFFFFFF AND DUP2 MSTORE PUSH1 0x20 ADD SWAP1 DUP2 MSTORE PUSH1 0x20 ADD PUSH1 0x0 KECCAK256 PUSH1 0x0 SWAP1 SLOAD SWAP1 PUSH2 0x100 EXP SWAP1 DIV PUSH1 0xFF AND ISZERO PUSH1 0x2 PUSH1 0x0 CALLER PUSH20 0xFFFFFFFFFFFFFFFFFFFFFFFFFFFFFFFFFFFFFFFF AND PUSH20 0xFFFFFFFFFFFFFFFFFFFFFFFFFFFFFFFFFFFFFFFF AND DUP2 MSTORE PUSH1 0x20 ADD SWAP1 DUP2 MSTORE PUSH1 0x20 ADD PUSH1 0x0 KECCAK256 PUSH1 0x0 PUSH2 0x100 EXP DUP2 SLOAD DUP2 PUSH1 0xFF MUL NOT AND SWAP1 DUP4 ISZERO ISZERO MUL OR SWAP1 SSTORE SWAP1 POP SWAP1 JUMP JUMPDEST DUP1 PUSH1 0x3 PUSH1 0x0 CALLER PUSH20 0xFFFFFFFFFFFFFFFFFFFFFFFFFFFFFFFFFFFFFFFF AND PUSH20 0xFFFFFFFFFFFFFFFFFFFFFFFFFFFFFFFFFFFFFFFF AND DUP2 MSTORE PUSH1 0x20 ADD SWAP1 DUP2 MSTORE PUSH1 0x20 ADD PUSH1 0x0 KECCAK256 PUSH1 0x0 ADD DUP2 SWAP1 SSTORE POP POP JUMP JUMPDEST PUSH1 0x0 PUSH1 0x1 PUSH1 0x0 DUP4 PUSH20 0xFFFFFFFFFFFFFFFFFFFFFFFFFFFFFFFFFFFFFFFF AND PUSH20 0xFFFFFFFFFFFFFFFFFFFFFFFFFFFFFFFFFFFFFFFF AND DUP2 MSTORE PUSH1 0x20 ADD SWAP1 DUP2 MSTORE PUSH1 0x20 ADD PUSH1 0x0 KECCAK256 PUSH1 0x0 SWAP1 SLOAD SWAP1 PUSH2 0x100 EXP SWAP1 DIV PUSH1 0xFF AND PUSH2 0x919 JUMPI PUSH1 0x40 MLOAD PUSH32 0x8C379A000000000000000000000000000000000000000000000000000000000 DUP2 MSTORE PUSH1 0x4 ADD PUSH2 0x910 SWAP1 PUSH2 0xE90 JUMP JUMPDEST PUSH1 0x40 MLOAD DUP1 SWAP2 SUB SWAP1 REVERT JUMPDEST PUSH1 0x2 PUSH1 0x0 DUP4 PUSH20 0xFFFFFFFFFFFFFFFFFFFFFFFFFFFFFFFFFFFFFFFF AND PUSH20 0xFFFFFFFFFFFFFFFFFFFFFFFFFFFFFFFFFFFFFFFF AND DUP2 MSTORE PUSH1 0x20 ADD SWAP1 DUP2 MSTORE PUSH1 0x20 ADD PUSH1 0x0 KECCAK256 PUSH1 0x0 SWAP1 SLOAD SWAP1 PUSH2 0x100 EXP SWAP1 DIV PUSH1 0xFF AND PUSH2 0x9A5 JUMPI PUSH1 0x40 MLOAD PUSH32 0x8C379A000000000000000000000000000000000000000000000000000000000 DUP2 MSTORE PUSH1 0x4 ADD PUSH2 0x99C SWAP1 PUSH2 0xE50 JUMP JUMPDEST PUSH1 0x40 MLOAD DUP1 SWAP2 SUB SWAP1 REVERT JUMPDEST PUSH1 0x1 SWAP1 POP SWAP2 SWAP1 POP JUMP JUMPDEST DUP2 PUSH1 0x3 PUSH1 0x0 DUP6 PUSH20 0xFFFFFFFFFFFFFFFFFFFFFFFFFFFFFFFFFFFFFFFF AND PUSH20 0xFFFFFFFFFFFFFFFFFFFFFFFFFFFFFFFFFFFFFFFF AND DUP2 MSTORE PUSH1 0x20 ADD SWAP1 DUP2 MSTORE PUSH1 0x20 ADD PUSH1 0x0 KECCAK256 PUSH1 0x0 ADD DUP2 SWAP1 SSTORE POP DUP1 PUSH1 0x3 PUSH1 0x0 DUP6 PUSH20 0xFFFFFFFFFFFFFFFFFFFFFFFFFFFFFFFFFFFFFFFF AND PUSH20 0xFFFFFFFFFFFFFFFFFFFFFFFFFFFFFFFFFFFFFFFF AND DUP2 MSTORE PUSH1 0x20 ADD SWAP1 DUP2 MSTORE PUSH1 0x20 ADD PUSH1 0x0 KECCAK256 PUSH1 0x1 ADD DUP2 SWAP1 SSTORE POP PUSH1 0x1 PUSH1 0x0 DUP1 DUP4 DUP2 MSTORE PUSH1 0x20 ADD SWAP1 DUP2 MSTORE PUSH1 0x20 ADD PUSH1 0x0 KECCAK256 PUSH1 0x0 DUP6 PUSH20 0xFFFFFFFFFFFFFFFFFFFFFFFFFFFFFFFFFFFFFFFF AND PUSH20 0xFFFFFFFFFFFFFFFFFFFFFFFFFFFFFFFFFFFFFFFF AND DUP2 MSTORE PUSH1 0x20 ADD SWAP1 DUP2 MSTORE PUSH1 0x20 ADD PUSH1 0x0 KECCAK256 PUSH1 0x0 PUSH2 0x100 EXP DUP2 SLOAD DUP2 PUSH1 0xFF MUL NOT AND SWAP1 DUP4 ISZERO ISZERO MUL OR SWAP1 SSTORE POP POP POP POP JUMP JUMPDEST PUSH1 0x0 PUSH1 0x4 PUSH1 0x0 DUP4 PUSH20 0xFFFFFFFFFFFFFFFFFFFFFFFFFFFFFFFFFFFFFFFF AND PUSH20 0xFFFFFFFFFFFFFFFFFFFFFFFFFFFFFFFFFFFFFFFF AND DUP2 MSTORE PUSH1 0x20 ADD SWAP1 DUP2 MSTORE PUSH1 0x20 ADD PUSH1 0x0 KECCAK256 PUSH1 0x1 ADD PUSH1 0x0 SWAP1 SLOAD SWAP1 PUSH2 0x100 EXP SWAP1 DIV PUSH1 0xFF AND PUSH1 0x4 DUP2 GT ISZERO PUSH2 0xB0D JUMPI PUSH2 0xB0C PUSH2 0xF3C JUMP JUMPDEST JUMPDEST SWAP1 POP SWAP2 SWAP1 POP JUMP JUMPDEST PUSH1 0x0 DUP2 CALLDATALOAD SWAP1 POP PUSH2 0xB23 DUP2 PUSH2 0x1179 JUMP JUMPDEST SWAP3 SWAP2 POP POP JUMP JUMPDEST PUSH1 0x0 DUP2 CALLDATALOAD SWAP1 POP PUSH2 0xB38 DUP2 PUSH2 0x1190 JUMP JUMPDEST SWAP3 SWAP2 POP POP JUMP JUMPDEST PUSH1 0x0 DUP2 CALLDATALOAD SWAP1 POP PUSH2 0xB4D DUP2 PUSH2 0x11A7 JUMP JUMPDEST SWAP3 SWAP2 POP POP JUMP JUMPDEST PUSH1 0x0 PUSH1 0x20 DUP3 DUP5 SUB SLT ISZERO PUSH2 0xB69 JUMPI PUSH2 0xB68 PUSH2 0xF6B JUMP JUMPDEST JUMPDEST PUSH1 0x0 PUSH2 0xB77 DUP5 DUP3 DUP6 ADD PUSH2 0xB14 JUMP JUMPDEST SWAP2 POP POP SWAP3 SWAP2 POP POP JUMP JUMPDEST PUSH1 0x0 DUP1 PUSH1 0x0 PUSH1 0x60 DUP5 DUP7 SUB SLT ISZERO PUSH2 0xB99 JUMPI PUSH2 0xB98 PUSH2 0xF6B JUMP JUMPDEST JUMPDEST PUSH1 0x0 PUSH2 0xBA7 DUP7 DUP3 DUP8 ADD PUSH2 0xB14 JUMP JUMPDEST SWAP4 POP POP PUSH1 0x20 PUSH2 0xBB8 DUP7 DUP3 DUP8 ADD PUSH2 0xB29 JUMP JUMPDEST SWAP3 POP POP PUSH1 0x40 PUSH2 0xBC9 DUP7 DUP3 DUP8 ADD PUSH2 0xB29 JUMP JUMPDEST SWAP2 POP POP SWAP3 POP SWAP3 POP SWAP3 JUMP JUMPDEST PUSH1 0x0 DUP1 PUSH1 0x0 PUSH1 0x60 DUP5 DUP7 SUB SLT ISZERO PUSH2 0xBEC JUMPI PUSH2 0xBEB PUSH2 0xF6B JUMP JUMPDEST JUMPDEST PUSH1 0x0 PUSH2 0xBFA DUP7 DUP3 DUP8 ADD PUSH2 0xB14 JUMP JUMPDEST SWAP4 POP POP PUSH1 0x20 PUSH2 0xC0B DUP7 DUP3 DUP8 ADD PUSH2 0xB29 JUMP JUMPDEST SWAP3 POP POP PUSH1 0x40 PUSH2 0xC1C DUP7 DUP3 DUP8 ADD PUSH2 0xB3E JUMP JUMPDEST SWAP2 POP POP SWAP3 POP SWAP3 POP SWAP3 JUMP JUMPDEST PUSH1 0x0 PUSH1 0x20 DUP3 DUP5 SUB SLT ISZERO PUSH2 0xC3C JUMPI PUSH2 0xC3B PUSH2 0xF6B JUMP JUMPDEST JUMPDEST PUSH1 0x0 PUSH2 0xC4A DUP5 DUP3 DUP6 ADD PUSH2 0xB29 JUMP JUMPDEST SWAP2 POP POP SWAP3 SWAP2 POP POP JUMP JUMPDEST PUSH2 0xC5C DUP2 PUSH2 0xEF9 JUMP JUMPDEST DUP3 MSTORE POP POP JUMP JUMPDEST PUSH1 0x0 PUSH2 0xC6F PUSH1 0x24 DUP4 PUSH2 0xECB JUMP JUMPDEST SWAP2 POP PUSH2 0xC7A DUP3 PUSH2 0xF70 JUMP JUMPDEST PUSH1 0x40 DUP3 ADD SWAP1 POP SWAP2 SWAP1 POP JUMP JUMPDEST PUSH1 0x0 PUSH2 0xC92 PUSH1 0x10 DUP4 PUSH2 0xEDC JUMP JUMPDEST SWAP2 POP PUSH2 0xC9D DUP3 PUSH2 0xFBF JUMP JUMPDEST PUSH1 0x10 DUP3 ADD SWAP1 POP SWAP2 SWAP1 POP JUMP JUMPDEST PUSH1 0x0 PUSH2 0xCB5 PUSH1 0x14 DUP4 PUSH2 0xEDC JUMP JUMPDEST SWAP2 POP PUSH2 0xCC0 DUP3 PUSH2 0xFE8 JUMP JUMPDEST PUSH1 0x14 DUP3 ADD SWAP1 POP SWAP2 SWAP1 POP JUMP JUMPDEST PUSH1 0x0 PUSH2 0xCD8 PUSH1 0xD DUP4 PUSH2 0xEDC JUMP JUMPDEST SWAP2 POP PUSH2 0xCE3 DUP3 PUSH2 0x1011 JUMP JUMPDEST PUSH1 0xD DUP3 ADD SWAP1 POP SWAP2 SWAP1 POP JUMP JUMPDEST PUSH1 0x0 PUSH2 0xCFB PUSH1 0xE DUP4 PUSH2 0xEDC JUMP JUMPDEST SWAP2 POP PUSH2 0xD06 DUP3 PUSH2 0x103A JUMP JUMPDEST PUSH1 0xE DUP3 ADD SWAP1 POP SWAP2 SWAP1 POP JUMP JUMPDEST PUSH1 0x0 PUSH2 0xD1E PUSH1 0x45 DUP4 PUSH2 0xECB JUMP JUMPDEST SWAP2 POP PUSH2 0xD29 DUP3 PUSH2 0x1063 JUMP JUMPDEST PUSH1 0x60 DUP3 ADD SWAP1 POP SWAP2 SWAP1 POP JUMP JUMPDEST PUSH1 0x0 PUSH2 0xD41 PUSH1 0x25 DUP4 PUSH2 0xECB JUMP JUMPDEST SWAP2 POP PUSH2 0xD4C DUP3 PUSH2 0x10D8 JUMP JUMPDEST PUSH1 0x40 DUP3 ADD SWAP1 POP SWAP2 SWAP1 POP JUMP JUMPDEST PUSH1 0x0 PUSH2 0xD64 PUSH1 0xD DUP4 PUSH2 0xEDC JUMP JUMPDEST SWAP2 POP PUSH2 0xD6F DUP3 PUSH2 0x1127 JUMP JUMPDEST PUSH1 0xD DUP3 ADD SWAP1 POP SWAP2 SWAP1 POP JUMP JUMPDEST PUSH1 0x0 PUSH2 0xD87 PUSH1 0x15 DUP4 PUSH2 0xECB JUMP JUMPDEST SWAP2 POP PUSH2 0xD92 DUP3 PUSH2 0x1150 JUMP JUMPDEST PUSH1 0x20 DUP3 ADD SWAP1 POP SWAP2 SWAP1 POP JUMP JUMPDEST PUSH2 0xDA6 DUP2 PUSH2 0xF2F JUMP JUMPDEST DUP3 MSTORE POP POP JUMP JUMPDEST PUSH1 0x0 PUSH2 0xDB7 DUP3 PUSH2 0xC85 JUMP JUMPDEST SWAP2 POP DUP2 SWAP1 POP SWAP2 SWAP1 POP JUMP JUMPDEST PUSH1 0x0 PUSH2 0xDCC DUP3 PUSH2 0xCA8 JUMP JUMPDEST SWAP2 POP DUP2 SWAP1 POP SWAP2 SWAP1 POP JUMP JUMPDEST PUSH1 0x0 PUSH2 0xDE1 DUP3 PUSH2 0xCCB JUMP JUMPDEST SWAP2 POP DUP2 SWAP1 POP SWAP2 SWAP1 POP JUMP JUMPDEST PUSH1 0x0 PUSH2 0xDF6 DUP3 PUSH2 0xCEE JUMP JUMPDEST SWAP2 POP DUP2 SWAP1 POP SWAP2 SWAP1 POP JUMP JUMPDEST PUSH1 0x0 PUSH2 0xE0B DUP3 PUSH2 0xD57 JUMP JUMPDEST SWAP2 POP DUP2 SWAP1 POP SWAP2 SWAP1 POP JUMP JUMPDEST PUSH1 0x0 PUSH1 0x20 DUP3 ADD SWAP1 POP PUSH2 0xE2A PUSH1 0x0 DUP4 ADD DUP5 PUSH2 0xC53 JUMP JUMPDEST SWAP3 SWAP2 POP POP JUMP JUMPDEST PUSH1 0x0 PUSH1 0x20 DUP3 ADD SWAP1 POP DUP2 DUP2 SUB PUSH1 0x0 DUP4 ADD MSTORE PUSH2 0xE49 DUP2 PUSH2 0xC62 JUMP JUMPDEST SWAP1 POP SWAP2 SWAP1 POP JUMP JUMPDEST PUSH1 0x0 PUSH1 0x20 DUP3 ADD SWAP1 POP DUP2 DUP2 SUB PUSH1 0x0 DUP4 ADD MSTORE PUSH2 0xE69 DUP2 PUSH2 0xD11 JUMP JUMPDEST SWAP1 POP SWAP2 SWAP1 POP JUMP JUMPDEST PUSH1 0x0 PUSH1 0x20 DUP3 ADD SWAP1 POP DUP2 DUP2 SUB PUSH1 0x0 DUP4 ADD MSTORE PUSH2 0xE89 DUP2 PUSH2 0xD34 JUMP JUMPDEST SWAP1 POP SWAP2 SWAP1 POP JUMP JUMPDEST PUSH1 0x0 PUSH1 0x20 DUP3 ADD SWAP1 POP DUP2 DUP2 SUB PUSH1 0x0 DUP4 ADD MSTORE PUSH2 0xEA9 DUP2 PUSH2 0xD7A JUMP JUMPDEST SWAP1 POP SWAP2 SWAP1 POP JUMP JUMPDEST PUSH1 0x0 PUSH1 0x20 DUP3 ADD SWAP1 POP PUSH2 0xEC5 PUSH1 0x0 DUP4 ADD DUP5 PUSH2 0xD9D JUMP JUMPDEST SWAP3 SWAP2 POP POP JUMP JUMPDEST PUSH1 0x0 DUP3 DUP3 MSTORE PUSH1 0x20 DUP3 ADD SWAP1 POP SWAP3 SWAP2 POP POP JUMP JUMPDEST PUSH1 0x0 DUP2 SWAP1 POP SWAP3 SWAP2 POP POP JUMP JUMPDEST PUSH1 0x0 PUSH2 0xEF2 DUP3 PUSH2 0xF0F JUMP JUMPDEST SWAP1 POP SWAP2 SWAP1 POP JUMP JUMPDEST PUSH1 0x0 DUP2 ISZERO ISZERO SWAP1 POP SWAP2 SWAP1 POP JUMP JUMPDEST PUSH1 0x0 DUP2 SWAP1 POP SWAP2 SWAP1 POP JUMP JUMPDEST PUSH1 0x0 PUSH20 0xFFFFFFFFFFFFFFFFFFFFFFFFFFFFFFFFFFFFFFFF DUP3 AND SWAP1 POP SWAP2 SWAP1 POP JUMP JUMPDEST PUSH1 0x0 PUSH1 0xFF DUP3 AND SWAP1 POP SWAP2 SWAP1 POP JUMP JUMPDEST PUSH32 0x4E487B7100000000000000000000000000000000000000000000000000000000 PUSH1 0x0 MSTORE PUSH1 0x21 PUSH1 0x4 MSTORE PUSH1 0x24 PUSH1 0x0 REVERT JUMPDEST PUSH1 0x0 DUP1 REVERT JUMPDEST PUSH32 0x4F6E6C79204C6F63616C20446F63746F72732061726520417574686F72697A65 PUSH1 0x0 DUP3 ADD MSTORE PUSH32 0x6421212100000000000000000000000000000000000000000000000000000000 PUSH1 0x20 DUP3 ADD MSTORE POP JUMP JUMPDEST PUSH32 0x4E6F726D616C5F436C656172656E636500000000000000000000000000000000 PUSH1 0x0 DUP3 ADD MSTORE POP JUMP JUMPDEST PUSH32 0x494E5445524E414C5F4445504152544D454E5453000000000000000000000000 PUSH1 0x0 DUP3 ADD MSTORE POP JUMP JUMPDEST PUSH32 0x4C6F775F436C656172656E636500000000000000000000000000000000000000 PUSH1 0x0 DUP3 ADD MSTORE POP JUMP JUMPDEST PUSH32 0x486967685F436C656172656E6365000000000000000000000000000000000000 PUSH1 0x0 DUP3 ADD MSTORE POP JUMP JUMPDEST PUSH32 0x54686973206163636F756E74206973206E6F742061637469766520616E796D6F PUSH1 0x0 DUP3 ADD MSTORE PUSH32 0x72652C20506C6561736520636F6E746163742072656C6174656420417574686F PUSH1 0x20 DUP3 ADD MSTORE PUSH32 0x7269747921000000000000000000000000000000000000000000000000000000 PUSH1 0x40 DUP3 ADD MSTORE POP JUMP JUMPDEST PUSH32 0x436C656172656E6365204C6576656C204D757374204265204269676765722074 PUSH1 0x0 DUP3 ADD MSTORE PUSH32 0x68616E2030000000000000000000000000000000000000000000000000000000 PUSH1 0x20 DUP3 ADD MSTORE POP JUMP JUMPDEST PUSH32 0x546F705F436C656172656E636500000000000000000000000000000000000000 PUSH1 0x0 DUP3 ADD MSTORE POP JUMP JUMPDEST PUSH32 0x4E6F7420612056616C696420446F63746F722121210000000000000000000000 PUSH1 0x0 DUP3 ADD MSTORE POP JUMP JUMPDEST PUSH2 0x1182 DUP2 PUSH2 0xEE7 JUMP JUMPDEST DUP2 EQ PUSH2 0x118D JUMPI PUSH1 0x0 DUP1 REVERT JUMPDEST POP JUMP JUMPDEST PUSH2 0x1199 DUP2 PUSH2 0xF05 JUMP JUMPDEST DUP2 EQ PUSH2 0x11A4 JUMPI PUSH1 0x0 DUP1 REVERT JUMPDEST POP JUMP JUMPDEST PUSH1 0x5 DUP2 LT PUSH2 0x11B4 JUMPI PUSH1 0x0 DUP1 REVERT JUMPDEST POP JUMP INVALID LOG2 PUSH5 0x6970667358 0x22 SLT KECCAK256 DUP10 JUMPDEST CALLCODE DUP2 KECCAK256 0xD3 LOG3 0x5C MSTORE CALLDATACOPY 0x5D MLOAD 0xEE 0x4B NUMBER 0xDE PUSH32 0x9D7E2F88D68E559C7B9310956B40B564736F6C63430008070033000000000000 "
				},
				"gasEstimates": {
					"creation": {
						"codeDepositCost": "917800",
						"executionCost": "94097",
						"totalCost": "1011897"
					},
					"external": {
						"checkDocClrLvl(address)": "infinite",
						"checkObjClrLvl(address)": "3025",
						"isDoctor(address)": "5333",
						"mustBeInternalDoc(address)": "3307",
						"setDoc2Active(address)": "24857",
						"setMsgSenderClrLvl(bytes32)": "22659",
						"setNewDoc(address)": "24813",
						"setNewDocClrRec(address,bytes32,bytes32)": "infinite",
						"setNewObjClr(address,bytes32,uint8)": "47492",
						"toggleDocActive()": "26944",
						"toggleDoctors()": "26989"
					}
				},
				"methodIdentifiers": {
					"checkDocClrLvl(address)": "665057ef",
					"checkObjClrLvl(address)": "f1ac2d66",
					"isDoctor(address)": "996440c6",
					"mustBeInternalDoc(address)": "3c779869",
					"setDoc2Active(address)": "41d49487",
					"setMsgSenderClrLvl(bytes32)": "81eaba9a",
					"setNewDoc(address)": "1d919395",
					"setNewDocClrRec(address,bytes32,bytes32)": "db189d43",
					"setNewObjClr(address,bytes32,uint8)": "589421f2",
					"toggleDocActive()": "68f1130f",
					"toggleDoctors()": "586008ef"
				}
			},
			"storageLayout": {
				"storage": [
					{
						"astId": 21,
						"contract": "contracts/AccessControl.sol:Access_Control",
						"label": "groupsAndOrganizations",
						"offset": 0,
						"slot": "0",
						"type": "t_mapping(t_bytes32,t_mapping(t_address,t_bool))"
					},
					{
						"astId": 83,
						"contract": "contracts/AccessControl.sol:Access_Control",
						"label": "doctors",
						"offset": 0,
						"slot": "1",
						"type": "t_mapping(t_address,t_bool)"
					},
					{
						"astId": 87,
						"contract": "contracts/AccessControl.sol:Access_Control",
						"label": "isDocActive",
						"offset": 0,
						"slot": "2",
						"type": "t_mapping(t_address,t_bool)"
					},
					{
						"astId": 177,
						"contract": "contracts/AccessControl.sol:Access_Control",
						"label": "clrRecords",
						"offset": 0,
						"slot": "3",
						"type": "t_mapping(t_address,t_struct(SubDatesClr)172_storage)"
					},
					{
						"astId": 317,
						"contract": "contracts/AccessControl.sol:Access_Control",
						"label": "objectClearence",
						"offset": 0,
						"slot": "4",
						"type": "t_mapping(t_address,t_struct(ObjectClearence)312_storage)"
					},
					{
						"astId": 372,
						"contract": "contracts/AccessControl.sol:Access_Control",
						"label": "admStrg_Clearence",
						"offset": 0,
						"slot": "5",
						"type": "t_mapping(t_address,t_bool)"
					}
				],
				"types": {
					"t_address": {
						"encoding": "inplace",
						"label": "address",
						"numberOfBytes": "20"
					},
					"t_bool": {
						"encoding": "inplace",
						"label": "bool",
						"numberOfBytes": "1"
					},
					"t_bytes32": {
						"encoding": "inplace",
						"label": "bytes32",
						"numberOfBytes": "32"
					},
					"t_enum(ClearenceLevel)203": {
						"encoding": "inplace",
						"label": "enum Access_Control.ClearenceLevel",
						"numberOfBytes": "1"
					},
					"t_mapping(t_address,t_bool)": {
						"encoding": "mapping",
						"key": "t_address",
						"label": "mapping(address => bool)",
						"numberOfBytes": "32",
						"value": "t_bool"
					},
					"t_mapping(t_address,t_struct(ObjectClearence)312_storage)": {
						"encoding": "mapping",
						"key": "t_address",
						"label": "mapping(address => struct Access_Control.ObjectClearence)",
						"numberOfBytes": "32",
						"value": "t_struct(ObjectClearence)312_storage"
					},
					"t_mapping(t_address,t_struct(SubDatesClr)172_storage)": {
						"encoding": "mapping",
						"key": "t_address",
						"label": "mapping(address => struct Access_Control.SubDatesClr)",
						"numberOfBytes": "32",
						"value": "t_struct(SubDatesClr)172_storage"
					},
					"t_mapping(t_bytes32,t_mapping(t_address,t_bool))": {
						"encoding": "mapping",
						"key": "t_bytes32",
						"label": "mapping(bytes32 => mapping(address => bool))",
						"numberOfBytes": "32",
						"value": "t_mapping(t_address,t_bool)"
					},
					"t_struct(ObjectClearence)312_storage": {
						"encoding": "inplace",
						"label": "struct Access_Control.ObjectClearence",
						"members": [
							{
								"astId": 308,
								"contract": "contracts/AccessControl.sol:Access_Control",
								"label": "clrLvl",
								"offset": 0,
								"slot": "0",
								"type": "t_bytes32"
							},
							{
								"astId": 311,
								"contract": "contracts/AccessControl.sol:Access_Control",
								"label": "clr",
								"offset": 0,
								"slot": "1",
								"type": "t_enum(ClearenceLevel)203"
							}
						],
						"numberOfBytes": "64"
					},
					"t_struct(SubDatesClr)172_storage": {
						"encoding": "inplace",
						"label": "struct Access_Control.SubDatesClr",
						"members": [
							{
								"astId": 169,
								"contract": "contracts/AccessControl.sol:Access_Control",
								"label": "ClrLvl",
								"offset": 0,
								"slot": "0",
								"type": "t_bytes32"
							},
							{
								"astId": 171,
								"contract": "contracts/AccessControl.sol:Access_Control",
								"label": "GrpOrg",
								"offset": 0,
								"slot": "1",
								"type": "t_bytes32"
							}
						],
						"numberOfBytes": "64"
					}
				}
			},
			"userdoc": {
				"kind": "user",
				"methods": {},
				"version": 1
			}
		}
	}
}