{
	"contracts/Libraries.sol": {
		"RoleHash": {
			"abi": [
				{
					"inputs": [
						{
							"internalType": "string",
							"name": "_str",
							"type": "string"
						},
						{
							"internalType": "bytes32",
							"name": "_hashed",
							"type": "bytes32"
						}
					],
					"name": "compareHash",
					"outputs": [
						{
							"internalType": "bool",
							"name": "",
							"type": "bool"
						}
					],
					"stateMutability": "pure",
					"type": "function"
				},
				{
					"inputs": [
						{
							"internalType": "string",
							"name": "_str",
							"type": "string"
						}
					],
					"name": "createHash",
					"outputs": [
						{
							"internalType": "bytes32",
							"name": "",
							"type": "bytes32"
						}
					],
					"stateMutability": "pure",
					"type": "function"
				}
			],
			"devdoc": {
				"kind": "dev",
				"methods": {},
				"version": 1
			},
			"evm": {
				"assembly": "    /* \"contracts/Libraries.sol\":239:876  library RoleHash {\r... */\n  dataSize(sub_0)\n  dataOffset(sub_0)\n  0x0b\n  dup3\n  dup3\n  dup3\n  codecopy\n  dup1\n  mload\n  0x00\n  byte\n  0x73\n  eq\n  tag_1\n  jumpi\n  mstore(0x00, 0x4e487b7100000000000000000000000000000000000000000000000000000000)\n  mstore(0x04, 0x00)\n  revert(0x00, 0x24)\ntag_1:\n  mstore(0x00, address)\n  0x73\n  dup2\n  mstore8\n  dup3\n  dup2\n  return\nstop\n\nsub_0: assembly {\n        /* \"contracts/Libraries.sol\":239:876  library RoleHash {\r... */\n      eq(address, deployTimeAddress())\n      mstore(0x40, 0x80)\n      jumpi(tag_1, lt(calldatasize, 0x04))\n      shr(0xe0, calldataload(0x00))\n      dup1\n      0xd9e32c0f\n      eq\n      tag_2\n      jumpi\n      dup1\n      0xdd3fd0f4\n      eq\n      tag_3\n      jumpi\n    tag_1:\n      0x00\n      dup1\n      revert\n        /* \"contracts/Libraries.sol\":631:873  function compareHash(string memory _str, bytes32 _hashed) public pure returns(bool) {\r... */\n    tag_2:\n      tag_4\n      0x04\n      dup1\n      calldatasize\n      sub\n      dup2\n      add\n      swap1\n      tag_5\n      swap2\n      swap1\n      tag_6\n      jump\t// in\n    tag_5:\n      tag_7\n      jump\t// in\n    tag_4:\n      mload(0x40)\n      tag_8\n      swap2\n      swap1\n      tag_9\n      jump\t// in\n    tag_8:\n      mload(0x40)\n      dup1\n      swap2\n      sub\n      swap1\n      return\n        /* \"contracts/Libraries.sol\":495:623  function createHash(string memory _str) public pure returns(bytes32) {\r... */\n    tag_3:\n      tag_10\n      0x04\n      dup1\n      calldatasize\n      sub\n      dup2\n      add\n      swap1\n      tag_11\n      swap2\n      swap1\n      tag_12\n      jump\t// in\n    tag_11:\n      tag_13\n      jump\t// in\n    tag_10:\n      mload(0x40)\n      tag_14\n      swap2\n      swap1\n      tag_15\n      jump\t// in\n    tag_14:\n      mload(0x40)\n      dup1\n      swap2\n      sub\n      swap1\n      return\n        /* \"contracts/Libraries.sol\":631:873  function compareHash(string memory _str, bytes32 _hashed) public pure returns(bool) {\r... */\n    tag_7:\n        /* \"contracts/Libraries.sol\":709:713  bool */\n      0x00\n        /* \"contracts/Libraries.sol\":726:740  bytes32 hashed */\n      dup1\n        /* \"contracts/Libraries.sol\":770:774  _str */\n      dup4\n        /* \"contracts/Libraries.sol\":753:775  abi.encodePacked(_str) */\n      add(0x20, mload(0x40))\n      tag_17\n      swap2\n      swap1\n      tag_18\n      jump\t// in\n    tag_17:\n      mload(0x40)\n      0x20\n      dup2\n      dup4\n      sub\n      sub\n      dup2\n      mstore\n      swap1\n      0x40\n      mstore\n        /* \"contracts/Libraries.sol\":743:776  keccak256(abi.encodePacked(_str)) */\n      dup1\n      mload\n      swap1\n      0x20\n      add\n      keccak256\n        /* \"contracts/Libraries.sol\":726:776  bytes32 hashed = keccak256(abi.encodePacked(_str)) */\n      swap1\n      pop\n        /* \"contracts/Libraries.sol\":805:812  _hashed */\n      dup3\n        /* \"contracts/Libraries.sol\":795:801  hashed */\n      dup2\n        /* \"contracts/Libraries.sol\":795:812  hashed == _hashed */\n      eq\n        /* \"contracts/Libraries.sol\":787:843  require(hashed == _hashed, \"Hashed does not Matched!!!\") */\n      tag_19\n      jumpi\n      mload(0x40)\n      0x08c379a000000000000000000000000000000000000000000000000000000000\n      dup2\n      mstore\n      0x04\n      add\n      tag_20\n      swap1\n      tag_21\n      jump\t// in\n    tag_20:\n      mload(0x40)\n      dup1\n      swap2\n      sub\n      swap1\n      revert\n    tag_19:\n        /* \"contracts/Libraries.sol\":861:865  true */\n      0x01\n        /* \"contracts/Libraries.sol\":854:865  return true */\n      swap2\n      pop\n      pop\n        /* \"contracts/Libraries.sol\":631:873  function compareHash(string memory _str, bytes32 _hashed) public pure returns(bool) {\r... */\n      swap3\n      swap2\n      pop\n      pop\n      jump\t// out\n        /* \"contracts/Libraries.sol\":495:623  function createHash(string memory _str) public pure returns(bytes32) {\r... */\n    tag_13:\n        /* \"contracts/Libraries.sol\":555:562  bytes32 */\n      0x00\n        /* \"contracts/Libraries.sol\":609:613  _str */\n      dup2\n        /* \"contracts/Libraries.sol\":592:614  abi.encodePacked(_str) */\n      add(0x20, mload(0x40))\n      tag_23\n      swap2\n      swap1\n      tag_18\n      jump\t// in\n    tag_23:\n      mload(0x40)\n      0x20\n      dup2\n      dup4\n      sub\n      sub\n      dup2\n      mstore\n      swap1\n      0x40\n      mstore\n        /* \"contracts/Libraries.sol\":582:615  keccak256(abi.encodePacked(_str)) */\n      dup1\n      mload\n      swap1\n      0x20\n      add\n      keccak256\n        /* \"contracts/Libraries.sol\":575:615  return keccak256(abi.encodePacked(_str)) */\n      swap1\n      pop\n        /* \"contracts/Libraries.sol\":495:623  function createHash(string memory _str) public pure returns(bytes32) {\r... */\n      swap2\n      swap1\n      pop\n      jump\t// out\n        /* \"#utility.yul\":7:419   */\n    tag_25:\n        /* \"#utility.yul\":85:90   */\n      0x00\n        /* \"#utility.yul\":110:176   */\n      tag_27\n        /* \"#utility.yul\":126:175   */\n      tag_28\n        /* \"#utility.yul\":168:174   */\n      dup5\n        /* \"#utility.yul\":126:175   */\n      tag_29\n      jump\t// in\n    tag_28:\n        /* \"#utility.yul\":110:176   */\n      tag_30\n      jump\t// in\n    tag_27:\n        /* \"#utility.yul\":101:176   */\n      swap1\n      pop\n        /* \"#utility.yul\":199:205   */\n      dup3\n        /* \"#utility.yul\":192:197   */\n      dup2\n        /* \"#utility.yul\":185:206   */\n      mstore\n        /* \"#utility.yul\":237:241   */\n      0x20\n        /* \"#utility.yul\":230:235   */\n      dup2\n        /* \"#utility.yul\":226:242   */\n      add\n        /* \"#utility.yul\":275:278   */\n      dup5\n        /* \"#utility.yul\":266:272   */\n      dup5\n        /* \"#utility.yul\":261:264   */\n      dup5\n        /* \"#utility.yul\":257:273   */\n      add\n        /* \"#utility.yul\":254:279   */\n      gt\n        /* \"#utility.yul\":251:363   */\n      iszero\n      tag_31\n      jumpi\n        /* \"#utility.yul\":282:361   */\n      tag_32\n      tag_33\n      jump\t// in\n    tag_32:\n        /* \"#utility.yul\":251:363   */\n    tag_31:\n        /* \"#utility.yul\":372:413   */\n      tag_34\n        /* \"#utility.yul\":406:412   */\n      dup5\n        /* \"#utility.yul\":401:404   */\n      dup3\n        /* \"#utility.yul\":396:399   */\n      dup6\n        /* \"#utility.yul\":372:413   */\n      tag_35\n      jump\t// in\n    tag_34:\n        /* \"#utility.yul\":91:419   */\n      pop\n        /* \"#utility.yul\":7:419   */\n      swap4\n      swap3\n      pop\n      pop\n      pop\n      jump\t// out\n        /* \"#utility.yul\":425:564   */\n    tag_36:\n        /* \"#utility.yul\":471:476   */\n      0x00\n        /* \"#utility.yul\":509:515   */\n      dup2\n        /* \"#utility.yul\":496:516   */\n      calldataload\n        /* \"#utility.yul\":487:516   */\n      swap1\n      pop\n        /* \"#utility.yul\":525:558   */\n      tag_38\n        /* \"#utility.yul\":552:557   */\n      dup2\n        /* \"#utility.yul\":525:558   */\n      tag_39\n      jump\t// in\n    tag_38:\n        /* \"#utility.yul\":425:564   */\n      swap3\n      swap2\n      pop\n      pop\n      jump\t// out\n        /* \"#utility.yul\":584:924   */\n    tag_40:\n        /* \"#utility.yul\":640:645   */\n      0x00\n        /* \"#utility.yul\":689:692   */\n      dup3\n        /* \"#utility.yul\":682:686   */\n      0x1f\n        /* \"#utility.yul\":674:680   */\n      dup4\n        /* \"#utility.yul\":670:687   */\n      add\n        /* \"#utility.yul\":666:693   */\n      slt\n        /* \"#utility.yul\":656:778   */\n      tag_42\n      jumpi\n        /* \"#utility.yul\":697:776   */\n      tag_43\n      tag_44\n      jump\t// in\n    tag_43:\n        /* \"#utility.yul\":656:778   */\n    tag_42:\n        /* \"#utility.yul\":814:820   */\n      dup2\n        /* \"#utility.yul\":801:821   */\n      calldataload\n        /* \"#utility.yul\":839:918   */\n      tag_45\n        /* \"#utility.yul\":914:917   */\n      dup5\n        /* \"#utility.yul\":906:912   */\n      dup3\n        /* \"#utility.yul\":899:903   */\n      0x20\n        /* \"#utility.yul\":891:897   */\n      dup7\n        /* \"#utility.yul\":887:904   */\n      add\n        /* \"#utility.yul\":839:918   */\n      tag_25\n      jump\t// in\n    tag_45:\n        /* \"#utility.yul\":830:918   */\n      swap2\n      pop\n        /* \"#utility.yul\":646:924   */\n      pop\n        /* \"#utility.yul\":584:924   */\n      swap3\n      swap2\n      pop\n      pop\n      jump\t// out\n        /* \"#utility.yul\":930:1439   */\n    tag_12:\n        /* \"#utility.yul\":999:1005   */\n      0x00\n        /* \"#utility.yul\":1048:1050   */\n      0x20\n        /* \"#utility.yul\":1036:1045   */\n      dup3\n        /* \"#utility.yul\":1027:1034   */\n      dup5\n        /* \"#utility.yul\":1023:1046   */\n      sub\n        /* \"#utility.yul\":1019:1051   */\n      slt\n        /* \"#utility.yul\":1016:1135   */\n      iszero\n      tag_47\n      jumpi\n        /* \"#utility.yul\":1054:1133   */\n      tag_48\n      tag_49\n      jump\t// in\n    tag_48:\n        /* \"#utility.yul\":1016:1135   */\n    tag_47:\n        /* \"#utility.yul\":1202:1203   */\n      0x00\n        /* \"#utility.yul\":1191:1200   */\n      dup3\n        /* \"#utility.yul\":1187:1204   */\n      add\n        /* \"#utility.yul\":1174:1205   */\n      calldataload\n        /* \"#utility.yul\":1232:1250   */\n      0xffffffffffffffff\n        /* \"#utility.yul\":1224:1230   */\n      dup2\n        /* \"#utility.yul\":1221:1251   */\n      gt\n        /* \"#utility.yul\":1218:1335   */\n      iszero\n      tag_50\n      jumpi\n        /* \"#utility.yul\":1254:1333   */\n      tag_51\n      tag_52\n      jump\t// in\n    tag_51:\n        /* \"#utility.yul\":1218:1335   */\n    tag_50:\n        /* \"#utility.yul\":1359:1422   */\n      tag_53\n        /* \"#utility.yul\":1414:1421   */\n      dup5\n        /* \"#utility.yul\":1405:1411   */\n      dup3\n        /* \"#utility.yul\":1394:1403   */\n      dup6\n        /* \"#utility.yul\":1390:1412   */\n      add\n        /* \"#utility.yul\":1359:1422   */\n      tag_40\n      jump\t// in\n    tag_53:\n        /* \"#utility.yul\":1349:1422   */\n      swap2\n      pop\n        /* \"#utility.yul\":1145:1432   */\n      pop\n        /* \"#utility.yul\":930:1439   */\n      swap3\n      swap2\n      pop\n      pop\n      jump\t// out\n        /* \"#utility.yul\":1445:2099   */\n    tag_6:\n        /* \"#utility.yul\":1523:1529   */\n      0x00\n        /* \"#utility.yul\":1531:1537   */\n      dup1\n        /* \"#utility.yul\":1580:1582   */\n      0x40\n        /* \"#utility.yul\":1568:1577   */\n      dup4\n        /* \"#utility.yul\":1559:1566   */\n      dup6\n        /* \"#utility.yul\":1555:1578   */\n      sub\n        /* \"#utility.yul\":1551:1583   */\n      slt\n        /* \"#utility.yul\":1548:1667   */\n      iszero\n      tag_55\n      jumpi\n        /* \"#utility.yul\":1586:1665   */\n      tag_56\n      tag_49\n      jump\t// in\n    tag_56:\n        /* \"#utility.yul\":1548:1667   */\n    tag_55:\n        /* \"#utility.yul\":1734:1735   */\n      0x00\n        /* \"#utility.yul\":1723:1732   */\n      dup4\n        /* \"#utility.yul\":1719:1736   */\n      add\n        /* \"#utility.yul\":1706:1737   */\n      calldataload\n        /* \"#utility.yul\":1764:1782   */\n      0xffffffffffffffff\n        /* \"#utility.yul\":1756:1762   */\n      dup2\n        /* \"#utility.yul\":1753:1783   */\n      gt\n        /* \"#utility.yul\":1750:1867   */\n      iszero\n      tag_57\n      jumpi\n        /* \"#utility.yul\":1786:1865   */\n      tag_58\n      tag_52\n      jump\t// in\n    tag_58:\n        /* \"#utility.yul\":1750:1867   */\n    tag_57:\n        /* \"#utility.yul\":1891:1954   */\n      tag_59\n        /* \"#utility.yul\":1946:1953   */\n      dup6\n        /* \"#utility.yul\":1937:1943   */\n      dup3\n        /* \"#utility.yul\":1926:1935   */\n      dup7\n        /* \"#utility.yul\":1922:1944   */\n      add\n        /* \"#utility.yul\":1891:1954   */\n      tag_40\n      jump\t// in\n    tag_59:\n        /* \"#utility.yul\":1881:1954   */\n      swap3\n      pop\n        /* \"#utility.yul\":1677:1964   */\n      pop\n        /* \"#utility.yul\":2003:2005   */\n      0x20\n        /* \"#utility.yul\":2029:2082   */\n      tag_60\n        /* \"#utility.yul\":2074:2081   */\n      dup6\n        /* \"#utility.yul\":2065:2071   */\n      dup3\n        /* \"#utility.yul\":2054:2063   */\n      dup7\n        /* \"#utility.yul\":2050:2072   */\n      add\n        /* \"#utility.yul\":2029:2082   */\n      tag_36\n      jump\t// in\n    tag_60:\n        /* \"#utility.yul\":2019:2082   */\n      swap2\n      pop\n        /* \"#utility.yul\":1974:2092   */\n      pop\n        /* \"#utility.yul\":1445:2099   */\n      swap3\n      pop\n      swap3\n      swap1\n      pop\n      jump\t// out\n        /* \"#utility.yul\":2105:2222   */\n    tag_61:\n        /* \"#utility.yul\":2194:2215   */\n      tag_63\n        /* \"#utility.yul\":2209:2214   */\n      dup2\n        /* \"#utility.yul\":2194:2215   */\n      tag_64\n      jump\t// in\n    tag_63:\n        /* \"#utility.yul\":2189:2192   */\n      dup3\n        /* \"#utility.yul\":2182:2216   */\n      mstore\n        /* \"#utility.yul\":2105:2222   */\n      pop\n      pop\n      jump\t// out\n        /* \"#utility.yul\":2228:2354   */\n    tag_65:\n        /* \"#utility.yul\":2323:2347   */\n      tag_67\n        /* \"#utility.yul\":2341:2346   */\n      dup2\n        /* \"#utility.yul\":2323:2347   */\n      tag_68\n      jump\t// in\n    tag_67:\n        /* \"#utility.yul\":2318:2321   */\n      dup3\n        /* \"#utility.yul\":2311:2348   */\n      mstore\n        /* \"#utility.yul\":2228:2354   */\n      pop\n      pop\n      jump\t// out\n        /* \"#utility.yul\":2360:2737   */\n    tag_69:\n        /* \"#utility.yul\":2466:2469   */\n      0x00\n        /* \"#utility.yul\":2494:2533   */\n      tag_71\n        /* \"#utility.yul\":2527:2532   */\n      dup3\n        /* \"#utility.yul\":2494:2533   */\n      tag_72\n      jump\t// in\n    tag_71:\n        /* \"#utility.yul\":2549:2638   */\n      tag_73\n        /* \"#utility.yul\":2631:2637   */\n      dup2\n        /* \"#utility.yul\":2626:2629   */\n      dup6\n        /* \"#utility.yul\":2549:2638   */\n      tag_74\n      jump\t// in\n    tag_73:\n        /* \"#utility.yul\":2542:2638   */\n      swap4\n      pop\n        /* \"#utility.yul\":2647:2699   */\n      tag_75\n        /* \"#utility.yul\":2692:2698   */\n      dup2\n        /* \"#utility.yul\":2687:2690   */\n      dup6\n        /* \"#utility.yul\":2680:2684   */\n      0x20\n        /* \"#utility.yul\":2673:2678   */\n      dup7\n        /* \"#utility.yul\":2669:2685   */\n      add\n        /* \"#utility.yul\":2647:2699   */\n      tag_76\n      jump\t// in\n    tag_75:\n        /* \"#utility.yul\":2724:2730   */\n      dup1\n        /* \"#utility.yul\":2719:2722   */\n      dup5\n        /* \"#utility.yul\":2715:2731   */\n      add\n        /* \"#utility.yul\":2708:2731   */\n      swap2\n      pop\n        /* \"#utility.yul\":2470:2737   */\n      pop\n        /* \"#utility.yul\":2360:2737   */\n      swap3\n      swap2\n      pop\n      pop\n      jump\t// out\n        /* \"#utility.yul\":2743:3109   */\n    tag_77:\n        /* \"#utility.yul\":2885:2888   */\n      0x00\n        /* \"#utility.yul\":2906:2973   */\n      tag_79\n        /* \"#utility.yul\":2970:2972   */\n      0x1a\n        /* \"#utility.yul\":2965:2968   */\n      dup4\n        /* \"#utility.yul\":2906:2973   */\n      tag_80\n      jump\t// in\n    tag_79:\n        /* \"#utility.yul\":2899:2973   */\n      swap2\n      pop\n        /* \"#utility.yul\":2982:3075   */\n      tag_81\n        /* \"#utility.yul\":3071:3074   */\n      dup3\n        /* \"#utility.yul\":2982:3075   */\n      tag_82\n      jump\t// in\n    tag_81:\n        /* \"#utility.yul\":3100:3102   */\n      0x20\n        /* \"#utility.yul\":3095:3098   */\n      dup3\n        /* \"#utility.yul\":3091:3103   */\n      add\n        /* \"#utility.yul\":3084:3103   */\n      swap1\n      pop\n        /* \"#utility.yul\":2743:3109   */\n      swap2\n      swap1\n      pop\n      jump\t// out\n        /* \"#utility.yul\":3115:3390   */\n    tag_18:\n        /* \"#utility.yul\":3247:3250   */\n      0x00\n        /* \"#utility.yul\":3269:3364   */\n      tag_84\n        /* \"#utility.yul\":3360:3363   */\n      dup3\n        /* \"#utility.yul\":3351:3357   */\n      dup5\n        /* \"#utility.yul\":3269:3364   */\n      tag_69\n      jump\t// in\n    tag_84:\n        /* \"#utility.yul\":3262:3364   */\n      swap2\n      pop\n        /* \"#utility.yul\":3381:3384   */\n      dup2\n        /* \"#utility.yul\":3374:3384   */\n      swap1\n      pop\n        /* \"#utility.yul\":3115:3390   */\n      swap3\n      swap2\n      pop\n      pop\n      jump\t// out\n        /* \"#utility.yul\":3396:3622   */\n    tag_9:\n        /* \"#utility.yul\":3491:3495   */\n      0x00\n        /* \"#utility.yul\":3529:3531   */\n      0x20\n        /* \"#utility.yul\":3518:3527   */\n      dup3\n        /* \"#utility.yul\":3514:3532   */\n      add\n        /* \"#utility.yul\":3506:3532   */\n      swap1\n      pop\n        /* \"#utility.yul\":3542:3615   */\n      tag_86\n        /* \"#utility.yul\":3612:3613   */\n      0x00\n        /* \"#utility.yul\":3601:3610   */\n      dup4\n        /* \"#utility.yul\":3597:3614   */\n      add\n        /* \"#utility.yul\":3588:3594   */\n      dup5\n        /* \"#utility.yul\":3542:3615   */\n      tag_61\n      jump\t// in\n    tag_86:\n        /* \"#utility.yul\":3396:3622   */\n      swap3\n      swap2\n      pop\n      pop\n      jump\t// out\n        /* \"#utility.yul\":3628:3866   */\n    tag_15:\n        /* \"#utility.yul\":3729:3733   */\n      0x00\n        /* \"#utility.yul\":3767:3769   */\n      0x20\n        /* \"#utility.yul\":3756:3765   */\n      dup3\n        /* \"#utility.yul\":3752:3770   */\n      add\n        /* \"#utility.yul\":3744:3770   */\n      swap1\n      pop\n        /* \"#utility.yul\":3780:3859   */\n      tag_88\n        /* \"#utility.yul\":3856:3857   */\n      0x00\n        /* \"#utility.yul\":3845:3854   */\n      dup4\n        /* \"#utility.yul\":3841:3858   */\n      add\n        /* \"#utility.yul\":3832:3838   */\n      dup5\n        /* \"#utility.yul\":3780:3859   */\n      tag_65\n      jump\t// in\n    tag_88:\n        /* \"#utility.yul\":3628:3866   */\n      swap3\n      swap2\n      pop\n      pop\n      jump\t// out\n        /* \"#utility.yul\":3872:4291   */\n    tag_21:\n        /* \"#utility.yul\":4038:4042   */\n      0x00\n        /* \"#utility.yul\":4076:4078   */\n      0x20\n        /* \"#utility.yul\":4065:4074   */\n      dup3\n        /* \"#utility.yul\":4061:4079   */\n      add\n        /* \"#utility.yul\":4053:4079   */\n      swap1\n      pop\n        /* \"#utility.yul\":4125:4134   */\n      dup2\n        /* \"#utility.yul\":4119:4123   */\n      dup2\n        /* \"#utility.yul\":4115:4135   */\n      sub\n        /* \"#utility.yul\":4111:4112   */\n      0x00\n        /* \"#utility.yul\":4100:4109   */\n      dup4\n        /* \"#utility.yul\":4096:4113   */\n      add\n        /* \"#utility.yul\":4089:4136   */\n      mstore\n        /* \"#utility.yul\":4153:4284   */\n      tag_90\n        /* \"#utility.yul\":4279:4283   */\n      dup2\n        /* \"#utility.yul\":4153:4284   */\n      tag_77\n      jump\t// in\n    tag_90:\n        /* \"#utility.yul\":4145:4284   */\n      swap1\n      pop\n        /* \"#utility.yul\":3872:4291   */\n      swap2\n      swap1\n      pop\n      jump\t// out\n        /* \"#utility.yul\":4297:4426   */\n    tag_30:\n        /* \"#utility.yul\":4331:4337   */\n      0x00\n        /* \"#utility.yul\":4358:4378   */\n      tag_92\n      tag_93\n      jump\t// in\n    tag_92:\n        /* \"#utility.yul\":4348:4378   */\n      swap1\n      pop\n        /* \"#utility.yul\":4387:4420   */\n      tag_94\n        /* \"#utility.yul\":4415:4419   */\n      dup3\n        /* \"#utility.yul\":4407:4413   */\n      dup3\n        /* \"#utility.yul\":4387:4420   */\n      tag_95\n      jump\t// in\n    tag_94:\n        /* \"#utility.yul\":4297:4426   */\n      swap2\n      swap1\n      pop\n      jump\t// out\n        /* \"#utility.yul\":4432:4507   */\n    tag_93:\n        /* \"#utility.yul\":4465:4471   */\n      0x00\n        /* \"#utility.yul\":4498:4500   */\n      0x40\n        /* \"#utility.yul\":4492:4501   */\n      mload\n        /* \"#utility.yul\":4482:4501   */\n      swap1\n      pop\n        /* \"#utility.yul\":4432:4507   */\n      swap1\n      jump\t// out\n        /* \"#utility.yul\":4513:4821   */\n    tag_29:\n        /* \"#utility.yul\":4575:4579   */\n      0x00\n        /* \"#utility.yul\":4665:4683   */\n      0xffffffffffffffff\n        /* \"#utility.yul\":4657:4663   */\n      dup3\n        /* \"#utility.yul\":4654:4684   */\n      gt\n        /* \"#utility.yul\":4651:4707   */\n      iszero\n      tag_98\n      jumpi\n        /* \"#utility.yul\":4687:4705   */\n      tag_99\n      tag_100\n      jump\t// in\n    tag_99:\n        /* \"#utility.yul\":4651:4707   */\n    tag_98:\n        /* \"#utility.yul\":4725:4754   */\n      tag_101\n        /* \"#utility.yul\":4747:4753   */\n      dup3\n        /* \"#utility.yul\":4725:4754   */\n      tag_102\n      jump\t// in\n    tag_101:\n        /* \"#utility.yul\":4717:4754   */\n      swap1\n      pop\n        /* \"#utility.yul\":4809:4813   */\n      0x20\n        /* \"#utility.yul\":4803:4807   */\n      dup2\n        /* \"#utility.yul\":4799:4814   */\n      add\n        /* \"#utility.yul\":4791:4814   */\n      swap1\n      pop\n        /* \"#utility.yul\":4513:4821   */\n      swap2\n      swap1\n      pop\n      jump\t// out\n        /* \"#utility.yul\":4827:4926   */\n    tag_72:\n        /* \"#utility.yul\":4879:4885   */\n      0x00\n        /* \"#utility.yul\":4913:4918   */\n      dup2\n        /* \"#utility.yul\":4907:4919   */\n      mload\n        /* \"#utility.yul\":4897:4919   */\n      swap1\n      pop\n        /* \"#utility.yul\":4827:4926   */\n      swap2\n      swap1\n      pop\n      jump\t// out\n        /* \"#utility.yul\":4932:5101   */\n    tag_80:\n        /* \"#utility.yul\":5016:5027   */\n      0x00\n        /* \"#utility.yul\":5050:5056   */\n      dup3\n        /* \"#utility.yul\":5045:5048   */\n      dup3\n        /* \"#utility.yul\":5038:5057   */\n      mstore\n        /* \"#utility.yul\":5090:5094   */\n      0x20\n        /* \"#utility.yul\":5085:5088   */\n      dup3\n        /* \"#utility.yul\":5081:5095   */\n      add\n        /* \"#utility.yul\":5066:5095   */\n      swap1\n      pop\n        /* \"#utility.yul\":4932:5101   */\n      swap3\n      swap2\n      pop\n      pop\n      jump\t// out\n        /* \"#utility.yul\":5107:5255   */\n    tag_74:\n        /* \"#utility.yul\":5209:5220   */\n      0x00\n        /* \"#utility.yul\":5246:5249   */\n      dup2\n        /* \"#utility.yul\":5231:5249   */\n      swap1\n      pop\n        /* \"#utility.yul\":5107:5255   */\n      swap3\n      swap2\n      pop\n      pop\n      jump\t// out\n        /* \"#utility.yul\":5261:5351   */\n    tag_64:\n        /* \"#utility.yul\":5295:5302   */\n      0x00\n        /* \"#utility.yul\":5338:5343   */\n      dup2\n        /* \"#utility.yul\":5331:5344   */\n      iszero\n        /* \"#utility.yul\":5324:5345   */\n      iszero\n        /* \"#utility.yul\":5313:5345   */\n      swap1\n      pop\n        /* \"#utility.yul\":5261:5351   */\n      swap2\n      swap1\n      pop\n      jump\t// out\n        /* \"#utility.yul\":5357:5434   */\n    tag_68:\n        /* \"#utility.yul\":5394:5401   */\n      0x00\n        /* \"#utility.yul\":5423:5428   */\n      dup2\n        /* \"#utility.yul\":5412:5428   */\n      swap1\n      pop\n        /* \"#utility.yul\":5357:5434   */\n      swap2\n      swap1\n      pop\n      jump\t// out\n        /* \"#utility.yul\":5440:5594   */\n    tag_35:\n        /* \"#utility.yul\":5524:5530   */\n      dup3\n        /* \"#utility.yul\":5519:5522   */\n      dup2\n        /* \"#utility.yul\":5514:5517   */\n      dup4\n        /* \"#utility.yul\":5501:5531   */\n      calldatacopy\n        /* \"#utility.yul\":5586:5587   */\n      0x00\n        /* \"#utility.yul\":5577:5583   */\n      dup4\n        /* \"#utility.yul\":5572:5575   */\n      dup4\n        /* \"#utility.yul\":5568:5584   */\n      add\n        /* \"#utility.yul\":5561:5588   */\n      mstore\n        /* \"#utility.yul\":5440:5594   */\n      pop\n      pop\n      pop\n      jump\t// out\n        /* \"#utility.yul\":5600:5907   */\n    tag_76:\n        /* \"#utility.yul\":5668:5669   */\n      0x00\n        /* \"#utility.yul\":5678:5791   */\n    tag_110:\n        /* \"#utility.yul\":5692:5698   */\n      dup4\n        /* \"#utility.yul\":5689:5690   */\n      dup2\n        /* \"#utility.yul\":5686:5699   */\n      lt\n        /* \"#utility.yul\":5678:5791   */\n      iszero\n      tag_112\n      jumpi\n        /* \"#utility.yul\":5777:5778   */\n      dup1\n        /* \"#utility.yul\":5772:5775   */\n      dup3\n        /* \"#utility.yul\":5768:5779   */\n      add\n        /* \"#utility.yul\":5762:5780   */\n      mload\n        /* \"#utility.yul\":5758:5759   */\n      dup2\n        /* \"#utility.yul\":5753:5756   */\n      dup5\n        /* \"#utility.yul\":5749:5760   */\n      add\n        /* \"#utility.yul\":5742:5781   */\n      mstore\n        /* \"#utility.yul\":5714:5716   */\n      0x20\n        /* \"#utility.yul\":5711:5712   */\n      dup2\n        /* \"#utility.yul\":5707:5717   */\n      add\n        /* \"#utility.yul\":5702:5717   */\n      swap1\n      pop\n        /* \"#utility.yul\":5678:5791   */\n      jump(tag_110)\n    tag_112:\n        /* \"#utility.yul\":5809:5815   */\n      dup4\n        /* \"#utility.yul\":5806:5807   */\n      dup2\n        /* \"#utility.yul\":5803:5816   */\n      gt\n        /* \"#utility.yul\":5800:5901   */\n      iszero\n      tag_113\n      jumpi\n        /* \"#utility.yul\":5889:5890   */\n      0x00\n        /* \"#utility.yul\":5880:5886   */\n      dup5\n        /* \"#utility.yul\":5875:5878   */\n      dup5\n        /* \"#utility.yul\":5871:5887   */\n      add\n        /* \"#utility.yul\":5864:5891   */\n      mstore\n        /* \"#utility.yul\":5800:5901   */\n    tag_113:\n        /* \"#utility.yul\":5649:5907   */\n      pop\n        /* \"#utility.yul\":5600:5907   */\n      pop\n      pop\n      pop\n      jump\t// out\n        /* \"#utility.yul\":5913:6194   */\n    tag_95:\n        /* \"#utility.yul\":5996:6023   */\n      tag_115\n        /* \"#utility.yul\":6018:6022   */\n      dup3\n        /* \"#utility.yul\":5996:6023   */\n      tag_102\n      jump\t// in\n    tag_115:\n        /* \"#utility.yul\":5988:5994   */\n      dup2\n        /* \"#utility.yul\":5984:6024   */\n      add\n        /* \"#utility.yul\":6126:6132   */\n      dup2\n        /* \"#utility.yul\":6114:6124   */\n      dup2\n        /* \"#utility.yul\":6111:6133   */\n      lt\n        /* \"#utility.yul\":6090:6108   */\n      0xffffffffffffffff\n        /* \"#utility.yul\":6078:6088   */\n      dup3\n        /* \"#utility.yul\":6075:6109   */\n      gt\n        /* \"#utility.yul\":6072:6134   */\n      or\n        /* \"#utility.yul\":6069:6157   */\n      iszero\n      tag_116\n      jumpi\n        /* \"#utility.yul\":6137:6155   */\n      tag_117\n      tag_100\n      jump\t// in\n    tag_117:\n        /* \"#utility.yul\":6069:6157   */\n    tag_116:\n        /* \"#utility.yul\":6177:6187   */\n      dup1\n        /* \"#utility.yul\":6173:6175   */\n      0x40\n        /* \"#utility.yul\":6166:6188   */\n      mstore\n        /* \"#utility.yul\":5956:6194   */\n      pop\n        /* \"#utility.yul\":5913:6194   */\n      pop\n      pop\n      jump\t// out\n        /* \"#utility.yul\":6200:6380   */\n    tag_100:\n        /* \"#utility.yul\":6248:6325   */\n      0x4e487b7100000000000000000000000000000000000000000000000000000000\n        /* \"#utility.yul\":6245:6246   */\n      0x00\n        /* \"#utility.yul\":6238:6326   */\n      mstore\n        /* \"#utility.yul\":6345:6349   */\n      0x41\n        /* \"#utility.yul\":6342:6343   */\n      0x04\n        /* \"#utility.yul\":6335:6350   */\n      mstore\n        /* \"#utility.yul\":6369:6373   */\n      0x24\n        /* \"#utility.yul\":6366:6367   */\n      0x00\n        /* \"#utility.yul\":6359:6374   */\n      revert\n        /* \"#utility.yul\":6386:6503   */\n    tag_44:\n        /* \"#utility.yul\":6495:6496   */\n      0x00\n        /* \"#utility.yul\":6492:6493   */\n      dup1\n        /* \"#utility.yul\":6485:6497   */\n      revert\n        /* \"#utility.yul\":6509:6626   */\n    tag_33:\n        /* \"#utility.yul\":6618:6619   */\n      0x00\n        /* \"#utility.yul\":6615:6616   */\n      dup1\n        /* \"#utility.yul\":6608:6620   */\n      revert\n        /* \"#utility.yul\":6632:6749   */\n    tag_52:\n        /* \"#utility.yul\":6741:6742   */\n      0x00\n        /* \"#utility.yul\":6738:6739   */\n      dup1\n        /* \"#utility.yul\":6731:6743   */\n      revert\n        /* \"#utility.yul\":6755:6872   */\n    tag_49:\n        /* \"#utility.yul\":6864:6865   */\n      0x00\n        /* \"#utility.yul\":6861:6862   */\n      dup1\n        /* \"#utility.yul\":6854:6866   */\n      revert\n        /* \"#utility.yul\":6878:6980   */\n    tag_102:\n        /* \"#utility.yul\":6919:6925   */\n      0x00\n        /* \"#utility.yul\":6970:6972   */\n      0x1f\n        /* \"#utility.yul\":6966:6973   */\n      not\n        /* \"#utility.yul\":6961:6963   */\n      0x1f\n        /* \"#utility.yul\":6954:6959   */\n      dup4\n        /* \"#utility.yul\":6950:6964   */\n      add\n        /* \"#utility.yul\":6946:6974   */\n      and\n        /* \"#utility.yul\":6936:6974   */\n      swap1\n      pop\n        /* \"#utility.yul\":6878:6980   */\n      swap2\n      swap1\n      pop\n      jump\t// out\n        /* \"#utility.yul\":6986:7162   */\n    tag_82:\n        /* \"#utility.yul\":7126:7154   */\n      0x48617368656420646f6573206e6f74204d617463686564212121000000000000\n        /* \"#utility.yul\":7122:7123   */\n      0x00\n        /* \"#utility.yul\":7114:7120   */\n      dup3\n        /* \"#utility.yul\":7110:7124   */\n      add\n        /* \"#utility.yul\":7103:7155   */\n      mstore\n        /* \"#utility.yul\":6986:7162   */\n      pop\n      jump\t// out\n        /* \"#utility.yul\":7168:7290   */\n    tag_39:\n        /* \"#utility.yul\":7241:7265   */\n      tag_126\n        /* \"#utility.yul\":7259:7264   */\n      dup2\n        /* \"#utility.yul\":7241:7265   */\n      tag_68\n      jump\t// in\n    tag_126:\n        /* \"#utility.yul\":7234:7239   */\n      dup2\n        /* \"#utility.yul\":7231:7266   */\n      eq\n        /* \"#utility.yul\":7221:7284   */\n      tag_127\n      jumpi\n        /* \"#utility.yul\":7280:7281   */\n      0x00\n        /* \"#utility.yul\":7277:7278   */\n      dup1\n        /* \"#utility.yul\":7270:7282   */\n      revert\n        /* \"#utility.yul\":7221:7284   */\n    tag_127:\n        /* \"#utility.yul\":7168:7290   */\n      pop\n      jump\t// out\n\n    auxdata: 0xa2646970667358221220727870d39a48b2f49fdec8f428d34bbe6c9744ae823b16d221456dccdf6f692d64736f6c63430008070033\n}\n",
				"bytecode": {
					"linkReferences": {},
					"object": "610527610053600b82828239805160001a607314610046577f4e487b7100000000000000000000000000000000000000000000000000000000600052600060045260246000fd5b30600052607381538281f3fe73000000000000000000000000000000000000000030146080604052600436106100405760003560e01c8063d9e32c0f14610045578063dd3fd0f414610075575b600080fd5b61005f600480360381019061005a919061021c565b6100a5565b60405161006c9190610301565b60405180910390f35b61008f600480360381019061008a91906101d3565b61011e565b60405161009c919061031c565b60405180910390f35b600080836040516020016100b991906102ea565b604051602081830303815290604052805190602001209050828114610113576040517f08c379a000000000000000000000000000000000000000000000000000000000815260040161010a90610337565b60405180910390fd5b600191505092915050565b60008160405160200161013191906102ea565b604051602081830303815290604052805190602001209050919050565b600061016161015c8461037c565b610357565b90508281526020810184848401111561017d5761017c610491565b5b6101888482856103ea565b509392505050565b60008135905061019f816104da565b92915050565b600082601f8301126101ba576101b961048c565b5b81356101ca84826020860161014e565b91505092915050565b6000602082840312156101e9576101e861049b565b5b600082013567ffffffffffffffff81111561020757610206610496565b5b610213848285016101a5565b91505092915050565b600080604083850312156102335761023261049b565b5b600083013567ffffffffffffffff81111561025157610250610496565b5b61025d858286016101a5565b925050602061026e85828601610190565b9150509250929050565b610281816103d4565b82525050565b610290816103e0565b82525050565b60006102a1826103ad565b6102ab81856103c9565b93506102bb8185602086016103f9565b80840191505092915050565b60006102d4601a836103b8565b91506102df826104b1565b602082019050919050565b60006102f68284610296565b915081905092915050565b60006020820190506103166000830184610278565b92915050565b60006020820190506103316000830184610287565b92915050565b60006020820190508181036000830152610350816102c7565b9050919050565b6000610361610372565b905061036d828261042c565b919050565b6000604051905090565b600067ffffffffffffffff8211156103975761039661045d565b5b6103a0826104a0565b9050602081019050919050565b600081519050919050565b600082825260208201905092915050565b600081905092915050565b60008115159050919050565b6000819050919050565b82818337600083830152505050565b60005b838110156104175780820151818401526020810190506103fc565b83811115610426576000848401525b50505050565b610435826104a0565b810181811067ffffffffffffffff821117156104545761045361045d565b5b80604052505050565b7f4e487b7100000000000000000000000000000000000000000000000000000000600052604160045260246000fd5b600080fd5b600080fd5b600080fd5b600080fd5b6000601f19601f8301169050919050565b7f48617368656420646f6573206e6f74204d617463686564212121000000000000600082015250565b6104e3816103e0565b81146104ee57600080fd5b5056fea2646970667358221220727870d39a48b2f49fdec8f428d34bbe6c9744ae823b16d221456dccdf6f692d64736f6c63430008070033",
					"opcodes": "PUSH2 0x527 PUSH2 0x53 PUSH1 0xB DUP3 DUP3 DUP3 CODECOPY DUP1 MLOAD PUSH1 0x0 BYTE PUSH1 0x73 EQ PUSH2 0x46 JUMPI PUSH32 0x4E487B7100000000000000000000000000000000000000000000000000000000 PUSH1 0x0 MSTORE PUSH1 0x0 PUSH1 0x4 MSTORE PUSH1 0x24 PUSH1 0x0 REVERT JUMPDEST ADDRESS PUSH1 0x0 MSTORE PUSH1 0x73 DUP2 MSTORE8 DUP3 DUP2 RETURN INVALID PUSH20 0x0 ADDRESS EQ PUSH1 0x80 PUSH1 0x40 MSTORE PUSH1 0x4 CALLDATASIZE LT PUSH2 0x40 JUMPI PUSH1 0x0 CALLDATALOAD PUSH1 0xE0 SHR DUP1 PUSH4 0xD9E32C0F EQ PUSH2 0x45 JUMPI DUP1 PUSH4 0xDD3FD0F4 EQ PUSH2 0x75 JUMPI JUMPDEST PUSH1 0x0 DUP1 REVERT JUMPDEST PUSH2 0x5F PUSH1 0x4 DUP1 CALLDATASIZE SUB DUP2 ADD SWAP1 PUSH2 0x5A SWAP2 SWAP1 PUSH2 0x21C JUMP JUMPDEST PUSH2 0xA5 JUMP JUMPDEST PUSH1 0x40 MLOAD PUSH2 0x6C SWAP2 SWAP1 PUSH2 0x301 JUMP JUMPDEST PUSH1 0x40 MLOAD DUP1 SWAP2 SUB SWAP1 RETURN JUMPDEST PUSH2 0x8F PUSH1 0x4 DUP1 CALLDATASIZE SUB DUP2 ADD SWAP1 PUSH2 0x8A SWAP2 SWAP1 PUSH2 0x1D3 JUMP JUMPDEST PUSH2 0x11E JUMP JUMPDEST PUSH1 0x40 MLOAD PUSH2 0x9C SWAP2 SWAP1 PUSH2 0x31C JUMP JUMPDEST PUSH1 0x40 MLOAD DUP1 SWAP2 SUB SWAP1 RETURN JUMPDEST PUSH1 0x0 DUP1 DUP4 PUSH1 0x40 MLOAD PUSH1 0x20 ADD PUSH2 0xB9 SWAP2 SWAP1 PUSH2 0x2EA JUMP JUMPDEST PUSH1 0x40 MLOAD PUSH1 0x20 DUP2 DUP4 SUB SUB DUP2 MSTORE SWAP1 PUSH1 0x40 MSTORE DUP1 MLOAD SWAP1 PUSH1 0x20 ADD KECCAK256 SWAP1 POP DUP3 DUP2 EQ PUSH2 0x113 JUMPI PUSH1 0x40 MLOAD PUSH32 0x8C379A000000000000000000000000000000000000000000000000000000000 DUP2 MSTORE PUSH1 0x4 ADD PUSH2 0x10A SWAP1 PUSH2 0x337 JUMP JUMPDEST PUSH1 0x40 MLOAD DUP1 SWAP2 SUB SWAP1 REVERT JUMPDEST PUSH1 0x1 SWAP2 POP POP SWAP3 SWAP2 POP POP JUMP JUMPDEST PUSH1 0x0 DUP2 PUSH1 0x40 MLOAD PUSH1 0x20 ADD PUSH2 0x131 SWAP2 SWAP1 PUSH2 0x2EA JUMP JUMPDEST PUSH1 0x40 MLOAD PUSH1 0x20 DUP2 DUP4 SUB SUB DUP2 MSTORE SWAP1 PUSH1 0x40 MSTORE DUP1 MLOAD SWAP1 PUSH1 0x20 ADD KECCAK256 SWAP1 POP SWAP2 SWAP1 POP JUMP JUMPDEST PUSH1 0x0 PUSH2 0x161 PUSH2 0x15C DUP5 PUSH2 0x37C JUMP JUMPDEST PUSH2 0x357 JUMP JUMPDEST SWAP1 POP DUP3 DUP2 MSTORE PUSH1 0x20 DUP2 ADD DUP5 DUP5 DUP5 ADD GT ISZERO PUSH2 0x17D JUMPI PUSH2 0x17C PUSH2 0x491 JUMP JUMPDEST JUMPDEST PUSH2 0x188 DUP5 DUP3 DUP6 PUSH2 0x3EA JUMP JUMPDEST POP SWAP4 SWAP3 POP POP POP JUMP JUMPDEST PUSH1 0x0 DUP2 CALLDATALOAD SWAP1 POP PUSH2 0x19F DUP2 PUSH2 0x4DA JUMP JUMPDEST SWAP3 SWAP2 POP POP JUMP JUMPDEST PUSH1 0x0 DUP3 PUSH1 0x1F DUP4 ADD SLT PUSH2 0x1BA JUMPI PUSH2 0x1B9 PUSH2 0x48C JUMP JUMPDEST JUMPDEST DUP2 CALLDATALOAD PUSH2 0x1CA DUP5 DUP3 PUSH1 0x20 DUP7 ADD PUSH2 0x14E JUMP JUMPDEST SWAP2 POP POP SWAP3 SWAP2 POP POP JUMP JUMPDEST PUSH1 0x0 PUSH1 0x20 DUP3 DUP5 SUB SLT ISZERO PUSH2 0x1E9 JUMPI PUSH2 0x1E8 PUSH2 0x49B JUMP JUMPDEST JUMPDEST PUSH1 0x0 DUP3 ADD CALLDATALOAD PUSH8 0xFFFFFFFFFFFFFFFF DUP2 GT ISZERO PUSH2 0x207 JUMPI PUSH2 0x206 PUSH2 0x496 JUMP JUMPDEST JUMPDEST PUSH2 0x213 DUP5 DUP3 DUP6 ADD PUSH2 0x1A5 JUMP JUMPDEST SWAP2 POP POP SWAP3 SWAP2 POP POP JUMP JUMPDEST PUSH1 0x0 DUP1 PUSH1 0x40 DUP4 DUP6 SUB SLT ISZERO PUSH2 0x233 JUMPI PUSH2 0x232 PUSH2 0x49B JUMP JUMPDEST JUMPDEST PUSH1 0x0 DUP4 ADD CALLDATALOAD PUSH8 0xFFFFFFFFFFFFFFFF DUP2 GT ISZERO PUSH2 0x251 JUMPI PUSH2 0x250 PUSH2 0x496 JUMP JUMPDEST JUMPDEST PUSH2 0x25D DUP6 DUP3 DUP7 ADD PUSH2 0x1A5 JUMP JUMPDEST SWAP3 POP POP PUSH1 0x20 PUSH2 0x26E DUP6 DUP3 DUP7 ADD PUSH2 0x190 JUMP JUMPDEST SWAP2 POP POP SWAP3 POP SWAP3 SWAP1 POP JUMP JUMPDEST PUSH2 0x281 DUP2 PUSH2 0x3D4 JUMP JUMPDEST DUP3 MSTORE POP POP JUMP JUMPDEST PUSH2 0x290 DUP2 PUSH2 0x3E0 JUMP JUMPDEST DUP3 MSTORE POP POP JUMP JUMPDEST PUSH1 0x0 PUSH2 0x2A1 DUP3 PUSH2 0x3AD JUMP JUMPDEST PUSH2 0x2AB DUP2 DUP6 PUSH2 0x3C9 JUMP JUMPDEST SWAP4 POP PUSH2 0x2BB DUP2 DUP6 PUSH1 0x20 DUP7 ADD PUSH2 0x3F9 JUMP JUMPDEST DUP1 DUP5 ADD SWAP2 POP POP SWAP3 SWAP2 POP POP JUMP JUMPDEST PUSH1 0x0 PUSH2 0x2D4 PUSH1 0x1A DUP4 PUSH2 0x3B8 JUMP JUMPDEST SWAP2 POP PUSH2 0x2DF DUP3 PUSH2 0x4B1 JUMP JUMPDEST PUSH1 0x20 DUP3 ADD SWAP1 POP SWAP2 SWAP1 POP JUMP JUMPDEST PUSH1 0x0 PUSH2 0x2F6 DUP3 DUP5 PUSH2 0x296 JUMP JUMPDEST SWAP2 POP DUP2 SWAP1 POP SWAP3 SWAP2 POP POP JUMP JUMPDEST PUSH1 0x0 PUSH1 0x20 DUP3 ADD SWAP1 POP PUSH2 0x316 PUSH1 0x0 DUP4 ADD DUP5 PUSH2 0x278 JUMP JUMPDEST SWAP3 SWAP2 POP POP JUMP JUMPDEST PUSH1 0x0 PUSH1 0x20 DUP3 ADD SWAP1 POP PUSH2 0x331 PUSH1 0x0 DUP4 ADD DUP5 PUSH2 0x287 JUMP JUMPDEST SWAP3 SWAP2 POP POP JUMP JUMPDEST PUSH1 0x0 PUSH1 0x20 DUP3 ADD SWAP1 POP DUP2 DUP2 SUB PUSH1 0x0 DUP4 ADD MSTORE PUSH2 0x350 DUP2 PUSH2 0x2C7 JUMP JUMPDEST SWAP1 POP SWAP2 SWAP1 POP JUMP JUMPDEST PUSH1 0x0 PUSH2 0x361 PUSH2 0x372 JUMP JUMPDEST SWAP1 POP PUSH2 0x36D DUP3 DUP3 PUSH2 0x42C JUMP JUMPDEST SWAP2 SWAP1 POP JUMP JUMPDEST PUSH1 0x0 PUSH1 0x40 MLOAD SWAP1 POP SWAP1 JUMP JUMPDEST PUSH1 0x0 PUSH8 0xFFFFFFFFFFFFFFFF DUP3 GT ISZERO PUSH2 0x397 JUMPI PUSH2 0x396 PUSH2 0x45D JUMP JUMPDEST JUMPDEST PUSH2 0x3A0 DUP3 PUSH2 0x4A0 JUMP JUMPDEST SWAP1 POP PUSH1 0x20 DUP2 ADD SWAP1 POP SWAP2 SWAP1 POP JUMP JUMPDEST PUSH1 0x0 DUP2 MLOAD SWAP1 POP SWAP2 SWAP1 POP JUMP JUMPDEST PUSH1 0x0 DUP3 DUP3 MSTORE PUSH1 0x20 DUP3 ADD SWAP1 POP SWAP3 SWAP2 POP POP JUMP JUMPDEST PUSH1 0x0 DUP2 SWAP1 POP SWAP3 SWAP2 POP POP JUMP JUMPDEST PUSH1 0x0 DUP2 ISZERO ISZERO SWAP1 POP SWAP2 SWAP1 POP JUMP JUMPDEST PUSH1 0x0 DUP2 SWAP1 POP SWAP2 SWAP1 POP JUMP JUMPDEST DUP3 DUP2 DUP4 CALLDATACOPY PUSH1 0x0 DUP4 DUP4 ADD MSTORE POP POP POP JUMP JUMPDEST PUSH1 0x0 JUMPDEST DUP4 DUP2 LT ISZERO PUSH2 0x417 JUMPI DUP1 DUP3 ADD MLOAD DUP2 DUP5 ADD MSTORE PUSH1 0x20 DUP2 ADD SWAP1 POP PUSH2 0x3FC JUMP JUMPDEST DUP4 DUP2 GT ISZERO PUSH2 0x426 JUMPI PUSH1 0x0 DUP5 DUP5 ADD MSTORE JUMPDEST POP POP POP POP JUMP JUMPDEST PUSH2 0x435 DUP3 PUSH2 0x4A0 JUMP JUMPDEST DUP2 ADD DUP2 DUP2 LT PUSH8 0xFFFFFFFFFFFFFFFF DUP3 GT OR ISZERO PUSH2 0x454 JUMPI PUSH2 0x453 PUSH2 0x45D JUMP JUMPDEST JUMPDEST DUP1 PUSH1 0x40 MSTORE POP POP POP JUMP JUMPDEST PUSH32 0x4E487B7100000000000000000000000000000000000000000000000000000000 PUSH1 0x0 MSTORE PUSH1 0x41 PUSH1 0x4 MSTORE PUSH1 0x24 PUSH1 0x0 REVERT JUMPDEST PUSH1 0x0 DUP1 REVERT JUMPDEST PUSH1 0x0 DUP1 REVERT JUMPDEST PUSH1 0x0 DUP1 REVERT JUMPDEST PUSH1 0x0 DUP1 REVERT JUMPDEST PUSH1 0x0 PUSH1 0x1F NOT PUSH1 0x1F DUP4 ADD AND SWAP1 POP SWAP2 SWAP1 POP JUMP JUMPDEST PUSH32 0x48617368656420646F6573206E6F74204D617463686564212121000000000000 PUSH1 0x0 DUP3 ADD MSTORE POP JUMP JUMPDEST PUSH2 0x4E3 DUP2 PUSH2 0x3E0 JUMP JUMPDEST DUP2 EQ PUSH2 0x4EE JUMPI PUSH1 0x0 DUP1 REVERT JUMPDEST POP JUMP INVALID LOG2 PUSH5 0x6970667358 0x22 SLT KECCAK256 PUSH19 0x7870D39A48B2F49FDEC8F428D34BBE6C9744AE DUP3 EXTCODESIZE AND 0xD2 0x21 GASLIMIT PUSH14 0xCCDF6F692D64736F6C6343000807 STOP CALLER "
				},
				"gasEstimates": {
					"creation": {
						"codeDepositCost": "263800",
						"executionCost": "331",
						"totalCost": "264131"
					},
					"external": {
						"compareHash(string,bytes32)": "infinite",
						"createHash(string)": "infinite"
					}
				},
				"methodIdentifiers": {
					"compareHash(string,bytes32)": "d9e32c0f",
					"createHash(string)": "dd3fd0f4"
				}
			},
			"storageLayout": {
				"storage": [],
				"types": null
			},
			"userdoc": {
				"kind": "user",
				"methods": {},
				"version": 1
			}
		}
	}
}