{
	"data": {
		"bytecode": {
			"linkReferences": {},
			"object": "608060405234801561001057600080fd5b50610b9d806100206000396000f3fe608060405234801561001057600080fd5b50600436106100415760003560e01c80636d2bb5f1146100465780639f2527f814610076578063f15d084814610092575b600080fd5b610060600480360381019061005b91906106f6565b6100c2565b60405161006d919061092d565b60405180910390f35b610090600480360381019061008b91906106b5565b610185565b005b6100ac60048036038101906100a791906106f6565b6103e2565b6040516100b9919061090b565b60405180910390f35b6100ca610546565b600160008381526020019081526020016000206000600160008086815260200190815260200160002060009054906101000a900461ffff1661010c91906109a7565b61ffff1661ffff16815260200190815260200160002060405180610100016040529081600082015481526020016001820154815260200160028201548152602001600382015481526020016004820154815260200160058201548152602001600682015481526020016007820154815250509050919050565b60008060008461ffff16815260200190815260200160002060009054906101000a900461ffff1690508160000151600160008561ffff16815260200190815260200160002060008361ffff1661ffff168152602001908152602001600020600001819055508160200151600160008561ffff16815260200190815260200160002060008361ffff1661ffff168152602001908152602001600020600101819055508160400151600160008561ffff16815260200190815260200160002060008361ffff1661ffff168152602001908152602001600020600201819055508160600151600160008561ffff16815260200190815260200160002060008361ffff1661ffff168152602001908152602001600020600301819055508160800151600160008561ffff16815260200190815260200160002060008361ffff1661ffff168152602001908152602001600020600401819055508160a00151600160008561ffff16815260200190815260200160002060008361ffff1661ffff168152602001908152602001600020600501819055508160c00151600160008561ffff16815260200190815260200160002060008361ffff1661ffff168152602001908152602001600020600601819055508160e00151600160008561ffff16815260200190815260200160002060008361ffff1661ffff168152602001908152602001600020600701819055506000808461ffff168152602001908152602001600020600081819054906101000a900461ffff16809291906103c290610a38565b91906101000a81548161ffff021916908361ffff16021790555050505050565b6060600080600084815260200190815260200160002060009054906101000a900461ffff16905060008161ffff1667ffffffffffffffff81111561042957610428610ac1565b5b60405190808252806020026020018201604052801561046257816020015b61044f610546565b8152602001906001900390816104475790505b50905060005b8261ffff168161ffff16101561053b5760006001600087815260200190815260200160002060008361ffff1661ffff1681526020019081526020016000206040518061010001604052908160008201548152602001600182015481526020016002820154815260200160038201548152602001600482015481526020016005820154815260200160068201548152602001600782015481525050905080838361ffff168151811061051c5761051b610a92565b5b602002602001018190525050808061053390610a38565b915050610468565b508092505050919050565b60405180610100016040528060008152602001600081526020016000815260200160008152602001600080191681526020016000801916815260200160008019168152602001600080191681525090565b6000813590506105a681610b0b565b92915050565b6000813590506105bb81610b22565b92915050565b600061010082840312156105d8576105d7610af0565b5b6105e3610100610949565b905060006105f3848285016106a0565b6000830152506020610607848285016105ac565b602083015250604061061b848285016105ac565b604083015250606061062f848285016105ac565b606083015250608061064384828501610597565b60808301525060a061065784828501610597565b60a08301525060c061066b84828501610597565b60c08301525060e061067f84828501610597565b60e08301525092915050565b60008135905061069a81610b39565b92915050565b6000813590506106af81610b50565b92915050565b60008061012083850312156106cd576106cc610af5565b5b60006106db8582860161068b565b92505060206106ec858286016105c1565b9150509250929050565b60006020828403121561070c5761070b610af5565b5b600061071a848285016106a0565b91505092915050565b600061072f83836107b8565b6101008301905092915050565b60006107478261097e565b6107518185610996565b935061075c8361096e565b8060005b8381101561078d5781516107748882610723565b975061077f83610989565b925050600181019050610760565b5085935050505092915050565b6107a3816109db565b82525050565b6107b2816109e5565b82525050565b610100820160008201516107cf60008501826108fc565b5060208201516107e260208501826107a9565b5060408201516107f560408501826107a9565b50606082015161080860608501826107a9565b50608082015161081b608085018261079a565b5060a082015161082e60a085018261079a565b5060c082015161084160c085018261079a565b5060e082015161085460e085018261079a565b50505050565b6101008201600082015161087160008501826108fc565b50602082015161088460208501826107a9565b50604082015161089760408501826107a9565b5060608201516108aa60608501826107a9565b5060808201516108bd608085018261079a565b5060a08201516108d060a085018261079a565b5060c08201516108e360c085018261079a565b5060e08201516108f660e085018261079a565b50505050565b610905816109fd565b82525050565b60006020820190508181036000830152610925818461073c565b905092915050565b600061010082019050610943600083018461085a565b92915050565b6000610953610964565b905061095f8282610a07565b919050565b6000604051905090565b6000819050602082019050919050565b600081519050919050565b6000602082019050919050565b600082825260208201905092915050565b60006109b2826109ef565b91506109bd836109ef565b9250828210156109d0576109cf610a63565b5b828203905092915050565b6000819050919050565b6000819050919050565b600061ffff82169050919050565b6000819050919050565b610a1082610afa565b810181811067ffffffffffffffff82111715610a2f57610a2e610ac1565b5b80604052505050565b6000610a43826109ef565b915061ffff821415610a5857610a57610a63565b5b600182019050919050565b7f4e487b7100000000000000000000000000000000000000000000000000000000600052601160045260246000fd5b7f4e487b7100000000000000000000000000000000000000000000000000000000600052603260045260246000fd5b7f4e487b7100000000000000000000000000000000000000000000000000000000600052604160045260246000fd5b600080fd5b600080fd5b6000601f19601f8301169050919050565b610b14816109db565b8114610b1f57600080fd5b50565b610b2b816109e5565b8114610b3657600080fd5b50565b610b42816109ef565b8114610b4d57600080fd5b50565b610b59816109fd565b8114610b6457600080fd5b5056fea2646970667358221220da7440eecd7e5ec0bdfc226c8bce9582086b608f5f03c814bed7b68c308217e964736f6c63430008070033",
			"opcodes": "PUSH1 0x80 PUSH1 0x40 MSTORE CALLVALUE DUP1 ISZERO PUSH2 0x10 JUMPI PUSH1 0x0 DUP1 REVERT JUMPDEST POP PUSH2 0xB9D DUP1 PUSH2 0x20 PUSH1 0x0 CODECOPY PUSH1 0x0 RETURN INVALID PUSH1 0x80 PUSH1 0x40 MSTORE CALLVALUE DUP1 ISZERO PUSH2 0x10 JUMPI PUSH1 0x0 DUP1 REVERT JUMPDEST POP PUSH1 0x4 CALLDATASIZE LT PUSH2 0x41 JUMPI PUSH1 0x0 CALLDATALOAD PUSH1 0xE0 SHR DUP1 PUSH4 0x6D2BB5F1 EQ PUSH2 0x46 JUMPI DUP1 PUSH4 0x9F2527F8 EQ PUSH2 0x76 JUMPI DUP1 PUSH4 0xF15D0848 EQ PUSH2 0x92 JUMPI JUMPDEST PUSH1 0x0 DUP1 REVERT JUMPDEST PUSH2 0x60 PUSH1 0x4 DUP1 CALLDATASIZE SUB DUP2 ADD SWAP1 PUSH2 0x5B SWAP2 SWAP1 PUSH2 0x6F6 JUMP JUMPDEST PUSH2 0xC2 JUMP JUMPDEST PUSH1 0x40 MLOAD PUSH2 0x6D SWAP2 SWAP1 PUSH2 0x92D JUMP JUMPDEST PUSH1 0x40 MLOAD DUP1 SWAP2 SUB SWAP1 RETURN JUMPDEST PUSH2 0x90 PUSH1 0x4 DUP1 CALLDATASIZE SUB DUP2 ADD SWAP1 PUSH2 0x8B SWAP2 SWAP1 PUSH2 0x6B5 JUMP JUMPDEST PUSH2 0x185 JUMP JUMPDEST STOP JUMPDEST PUSH2 0xAC PUSH1 0x4 DUP1 CALLDATASIZE SUB DUP2 ADD SWAP1 PUSH2 0xA7 SWAP2 SWAP1 PUSH2 0x6F6 JUMP JUMPDEST PUSH2 0x3E2 JUMP JUMPDEST PUSH1 0x40 MLOAD PUSH2 0xB9 SWAP2 SWAP1 PUSH2 0x90B JUMP JUMPDEST PUSH1 0x40 MLOAD DUP1 SWAP2 SUB SWAP1 RETURN JUMPDEST PUSH2 0xCA PUSH2 0x546 JUMP JUMPDEST PUSH1 0x1 PUSH1 0x0 DUP4 DUP2 MSTORE PUSH1 0x20 ADD SWAP1 DUP2 MSTORE PUSH1 0x20 ADD PUSH1 0x0 KECCAK256 PUSH1 0x0 PUSH1 0x1 PUSH1 0x0 DUP1 DUP7 DUP2 MSTORE PUSH1 0x20 ADD SWAP1 DUP2 MSTORE PUSH1 0x20 ADD PUSH1 0x0 KECCAK256 PUSH1 0x0 SWAP1 SLOAD SWAP1 PUSH2 0x100 EXP SWAP1 DIV PUSH2 0xFFFF AND PUSH2 0x10C SWAP2 SWAP1 PUSH2 0x9A7 JUMP JUMPDEST PUSH2 0xFFFF AND PUSH2 0xFFFF AND DUP2 MSTORE PUSH1 0x20 ADD SWAP1 DUP2 MSTORE PUSH1 0x20 ADD PUSH1 0x0 KECCAK256 PUSH1 0x40 MLOAD DUP1 PUSH2 0x100 ADD PUSH1 0x40 MSTORE SWAP1 DUP2 PUSH1 0x0 DUP3 ADD SLOAD DUP2 MSTORE PUSH1 0x20 ADD PUSH1 0x1 DUP3 ADD SLOAD DUP2 MSTORE PUSH1 0x20 ADD PUSH1 0x2 DUP3 ADD SLOAD DUP2 MSTORE PUSH1 0x20 ADD PUSH1 0x3 DUP3 ADD SLOAD DUP2 MSTORE PUSH1 0x20 ADD PUSH1 0x4 DUP3 ADD SLOAD DUP2 MSTORE PUSH1 0x20 ADD PUSH1 0x5 DUP3 ADD SLOAD DUP2 MSTORE PUSH1 0x20 ADD PUSH1 0x6 DUP3 ADD SLOAD DUP2 MSTORE PUSH1 0x20 ADD PUSH1 0x7 DUP3 ADD SLOAD DUP2 MSTORE POP POP SWAP1 POP SWAP2 SWAP1 POP JUMP JUMPDEST PUSH1 0x0 DUP1 PUSH1 0x0 DUP5 PUSH2 0xFFFF AND DUP2 MSTORE PUSH1 0x20 ADD SWAP1 DUP2 MSTORE PUSH1 0x20 ADD PUSH1 0x0 KECCAK256 PUSH1 0x0 SWAP1 SLOAD SWAP1 PUSH2 0x100 EXP SWAP1 DIV PUSH2 0xFFFF AND SWAP1 POP DUP2 PUSH1 0x0 ADD MLOAD PUSH1 0x1 PUSH1 0x0 DUP6 PUSH2 0xFFFF AND DUP2 MSTORE PUSH1 0x20 ADD SWAP1 DUP2 MSTORE PUSH1 0x20 ADD PUSH1 0x0 KECCAK256 PUSH1 0x0 DUP4 PUSH2 0xFFFF AND PUSH2 0xFFFF AND DUP2 MSTORE PUSH1 0x20 ADD SWAP1 DUP2 MSTORE PUSH1 0x20 ADD PUSH1 0x0 KECCAK256 PUSH1 0x0 ADD DUP2 SWAP1 SSTORE POP DUP2 PUSH1 0x20 ADD MLOAD PUSH1 0x1 PUSH1 0x0 DUP6 PUSH2 0xFFFF AND DUP2 MSTORE PUSH1 0x20 ADD SWAP1 DUP2 MSTORE PUSH1 0x20 ADD PUSH1 0x0 KECCAK256 PUSH1 0x0 DUP4 PUSH2 0xFFFF AND PUSH2 0xFFFF AND DUP2 MSTORE PUSH1 0x20 ADD SWAP1 DUP2 MSTORE PUSH1 0x20 ADD PUSH1 0x0 KECCAK256 PUSH1 0x1 ADD DUP2 SWAP1 SSTORE POP DUP2 PUSH1 0x40 ADD MLOAD PUSH1 0x1 PUSH1 0x0 DUP6 PUSH2 0xFFFF AND DUP2 MSTORE PUSH1 0x20 ADD SWAP1 DUP2 MSTORE PUSH1 0x20 ADD PUSH1 0x0 KECCAK256 PUSH1 0x0 DUP4 PUSH2 0xFFFF AND PUSH2 0xFFFF AND DUP2 MSTORE PUSH1 0x20 ADD SWAP1 DUP2 MSTORE PUSH1 0x20 ADD PUSH1 0x0 KECCAK256 PUSH1 0x2 ADD DUP2 SWAP1 SSTORE POP DUP2 PUSH1 0x60 ADD MLOAD PUSH1 0x1 PUSH1 0x0 DUP6 PUSH2 0xFFFF AND DUP2 MSTORE PUSH1 0x20 ADD SWAP1 DUP2 MSTORE PUSH1 0x20 ADD PUSH1 0x0 KECCAK256 PUSH1 0x0 DUP4 PUSH2 0xFFFF AND PUSH2 0xFFFF AND DUP2 MSTORE PUSH1 0x20 ADD SWAP1 DUP2 MSTORE PUSH1 0x20 ADD PUSH1 0x0 KECCAK256 PUSH1 0x3 ADD DUP2 SWAP1 SSTORE POP DUP2 PUSH1 0x80 ADD MLOAD PUSH1 0x1 PUSH1 0x0 DUP6 PUSH2 0xFFFF AND DUP2 MSTORE PUSH1 0x20 ADD SWAP1 DUP2 MSTORE PUSH1 0x20 ADD PUSH1 0x0 KECCAK256 PUSH1 0x0 DUP4 PUSH2 0xFFFF AND PUSH2 0xFFFF AND DUP2 MSTORE PUSH1 0x20 ADD SWAP1 DUP2 MSTORE PUSH1 0x20 ADD PUSH1 0x0 KECCAK256 PUSH1 0x4 ADD DUP2 SWAP1 SSTORE POP DUP2 PUSH1 0xA0 ADD MLOAD PUSH1 0x1 PUSH1 0x0 DUP6 PUSH2 0xFFFF AND DUP2 MSTORE PUSH1 0x20 ADD SWAP1 DUP2 MSTORE PUSH1 0x20 ADD PUSH1 0x0 KECCAK256 PUSH1 0x0 DUP4 PUSH2 0xFFFF AND PUSH2 0xFFFF AND DUP2 MSTORE PUSH1 0x20 ADD SWAP1 DUP2 MSTORE PUSH1 0x20 ADD PUSH1 0x0 KECCAK256 PUSH1 0x5 ADD DUP2 SWAP1 SSTORE POP DUP2 PUSH1 0xC0 ADD MLOAD PUSH1 0x1 PUSH1 0x0 DUP6 PUSH2 0xFFFF AND DUP2 MSTORE PUSH1 0x20 ADD SWAP1 DUP2 MSTORE PUSH1 0x20 ADD PUSH1 0x0 KECCAK256 PUSH1 0x0 DUP4 PUSH2 0xFFFF AND PUSH2 0xFFFF AND DUP2 MSTORE PUSH1 0x20 ADD SWAP1 DUP2 MSTORE PUSH1 0x20 ADD PUSH1 0x0 KECCAK256 PUSH1 0x6 ADD DUP2 SWAP1 SSTORE POP DUP2 PUSH1 0xE0 ADD MLOAD PUSH1 0x1 PUSH1 0x0 DUP6 PUSH2 0xFFFF AND DUP2 MSTORE PUSH1 0x20 ADD SWAP1 DUP2 MSTORE PUSH1 0x20 ADD PUSH1 0x0 KECCAK256 PUSH1 0x0 DUP4 PUSH2 0xFFFF AND PUSH2 0xFFFF AND DUP2 MSTORE PUSH1 0x20 ADD SWAP1 DUP2 MSTORE PUSH1 0x20 ADD PUSH1 0x0 KECCAK256 PUSH1 0x7 ADD DUP2 SWAP1 SSTORE POP PUSH1 0x0 DUP1 DUP5 PUSH2 0xFFFF AND DUP2 MSTORE PUSH1 0x20 ADD SWAP1 DUP2 MSTORE PUSH1 0x20 ADD PUSH1 0x0 KECCAK256 PUSH1 0x0 DUP2 DUP2 SWAP1 SLOAD SWAP1 PUSH2 0x100 EXP SWAP1 DIV PUSH2 0xFFFF AND DUP1 SWAP3 SWAP2 SWAP1 PUSH2 0x3C2 SWAP1 PUSH2 0xA38 JUMP JUMPDEST SWAP2 SWAP1 PUSH2 0x100 EXP DUP2 SLOAD DUP2 PUSH2 0xFFFF MUL NOT AND SWAP1 DUP4 PUSH2 0xFFFF AND MUL OR SWAP1 SSTORE POP POP POP POP POP JUMP JUMPDEST PUSH1 0x60 PUSH1 0x0 DUP1 PUSH1 0x0 DUP5 DUP2 MSTORE PUSH1 0x20 ADD SWAP1 DUP2 MSTORE PUSH1 0x20 ADD PUSH1 0x0 KECCAK256 PUSH1 0x0 SWAP1 SLOAD SWAP1 PUSH2 0x100 EXP SWAP1 DIV PUSH2 0xFFFF AND SWAP1 POP PUSH1 0x0 DUP2 PUSH2 0xFFFF AND PUSH8 0xFFFFFFFFFFFFFFFF DUP2 GT ISZERO PUSH2 0x429 JUMPI PUSH2 0x428 PUSH2 0xAC1 JUMP JUMPDEST JUMPDEST PUSH1 0x40 MLOAD SWAP1 DUP1 DUP3 MSTORE DUP1 PUSH1 0x20 MUL PUSH1 0x20 ADD DUP3 ADD PUSH1 0x40 MSTORE DUP1 ISZERO PUSH2 0x462 JUMPI DUP2 PUSH1 0x20 ADD JUMPDEST PUSH2 0x44F PUSH2 0x546 JUMP JUMPDEST DUP2 MSTORE PUSH1 0x20 ADD SWAP1 PUSH1 0x1 SWAP1 SUB SWAP1 DUP2 PUSH2 0x447 JUMPI SWAP1 POP JUMPDEST POP SWAP1 POP PUSH1 0x0 JUMPDEST DUP3 PUSH2 0xFFFF AND DUP2 PUSH2 0xFFFF AND LT ISZERO PUSH2 0x53B JUMPI PUSH1 0x0 PUSH1 0x1 PUSH1 0x0 DUP8 DUP2 MSTORE PUSH1 0x20 ADD SWAP1 DUP2 MSTORE PUSH1 0x20 ADD PUSH1 0x0 KECCAK256 PUSH1 0x0 DUP4 PUSH2 0xFFFF AND PUSH2 0xFFFF AND DUP2 MSTORE PUSH1 0x20 ADD SWAP1 DUP2 MSTORE PUSH1 0x20 ADD PUSH1 0x0 KECCAK256 PUSH1 0x40 MLOAD DUP1 PUSH2 0x100 ADD PUSH1 0x40 MSTORE SWAP1 DUP2 PUSH1 0x0 DUP3 ADD SLOAD DUP2 MSTORE PUSH1 0x20 ADD PUSH1 0x1 DUP3 ADD SLOAD DUP2 MSTORE PUSH1 0x20 ADD PUSH1 0x2 DUP3 ADD SLOAD DUP2 MSTORE PUSH1 0x20 ADD PUSH1 0x3 DUP3 ADD SLOAD DUP2 MSTORE PUSH1 0x20 ADD PUSH1 0x4 DUP3 ADD SLOAD DUP2 MSTORE PUSH1 0x20 ADD PUSH1 0x5 DUP3 ADD SLOAD DUP2 MSTORE PUSH1 0x20 ADD PUSH1 0x6 DUP3 ADD SLOAD DUP2 MSTORE PUSH1 0x20 ADD PUSH1 0x7 DUP3 ADD SLOAD DUP2 MSTORE POP POP SWAP1 POP DUP1 DUP4 DUP4 PUSH2 0xFFFF AND DUP2 MLOAD DUP2 LT PUSH2 0x51C JUMPI PUSH2 0x51B PUSH2 0xA92 JUMP JUMPDEST JUMPDEST PUSH1 0x20 MUL PUSH1 0x20 ADD ADD DUP2 SWAP1 MSTORE POP POP DUP1 DUP1 PUSH2 0x533 SWAP1 PUSH2 0xA38 JUMP JUMPDEST SWAP2 POP POP PUSH2 0x468 JUMP JUMPDEST POP DUP1 SWAP3 POP POP POP SWAP2 SWAP1 POP JUMP JUMPDEST PUSH1 0x40 MLOAD DUP1 PUSH2 0x100 ADD PUSH1 0x40 MSTORE DUP1 PUSH1 0x0 DUP2 MSTORE PUSH1 0x20 ADD PUSH1 0x0 DUP2 MSTORE PUSH1 0x20 ADD PUSH1 0x0 DUP2 MSTORE PUSH1 0x20 ADD PUSH1 0x0 DUP2 MSTORE PUSH1 0x20 ADD PUSH1 0x0 DUP1 NOT AND DUP2 MSTORE PUSH1 0x20 ADD PUSH1 0x0 DUP1 NOT AND DUP2 MSTORE PUSH1 0x20 ADD PUSH1 0x0 DUP1 NOT AND DUP2 MSTORE PUSH1 0x20 ADD PUSH1 0x0 DUP1 NOT AND DUP2 MSTORE POP SWAP1 JUMP JUMPDEST PUSH1 0x0 DUP2 CALLDATALOAD SWAP1 POP PUSH2 0x5A6 DUP2 PUSH2 0xB0B JUMP JUMPDEST SWAP3 SWAP2 POP POP JUMP JUMPDEST PUSH1 0x0 DUP2 CALLDATALOAD SWAP1 POP PUSH2 0x5BB DUP2 PUSH2 0xB22 JUMP JUMPDEST SWAP3 SWAP2 POP POP JUMP JUMPDEST PUSH1 0x0 PUSH2 0x100 DUP3 DUP5 SUB SLT ISZERO PUSH2 0x5D8 JUMPI PUSH2 0x5D7 PUSH2 0xAF0 JUMP JUMPDEST JUMPDEST PUSH2 0x5E3 PUSH2 0x100 PUSH2 0x949 JUMP JUMPDEST SWAP1 POP PUSH1 0x0 PUSH2 0x5F3 DUP5 DUP3 DUP6 ADD PUSH2 0x6A0 JUMP JUMPDEST PUSH1 0x0 DUP4 ADD MSTORE POP PUSH1 0x20 PUSH2 0x607 DUP5 DUP3 DUP6 ADD PUSH2 0x5AC JUMP JUMPDEST PUSH1 0x20 DUP4 ADD MSTORE POP PUSH1 0x40 PUSH2 0x61B DUP5 DUP3 DUP6 ADD PUSH2 0x5AC JUMP JUMPDEST PUSH1 0x40 DUP4 ADD MSTORE POP PUSH1 0x60 PUSH2 0x62F DUP5 DUP3 DUP6 ADD PUSH2 0x5AC JUMP JUMPDEST PUSH1 0x60 DUP4 ADD MSTORE POP PUSH1 0x80 PUSH2 0x643 DUP5 DUP3 DUP6 ADD PUSH2 0x597 JUMP JUMPDEST PUSH1 0x80 DUP4 ADD MSTORE POP PUSH1 0xA0 PUSH2 0x657 DUP5 DUP3 DUP6 ADD PUSH2 0x597 JUMP JUMPDEST PUSH1 0xA0 DUP4 ADD MSTORE POP PUSH1 0xC0 PUSH2 0x66B DUP5 DUP3 DUP6 ADD PUSH2 0x597 JUMP JUMPDEST PUSH1 0xC0 DUP4 ADD MSTORE POP PUSH1 0xE0 PUSH2 0x67F DUP5 DUP3 DUP6 ADD PUSH2 0x597 JUMP JUMPDEST PUSH1 0xE0 DUP4 ADD MSTORE POP SWAP3 SWAP2 POP POP JUMP JUMPDEST PUSH1 0x0 DUP2 CALLDATALOAD SWAP1 POP PUSH2 0x69A DUP2 PUSH2 0xB39 JUMP JUMPDEST SWAP3 SWAP2 POP POP JUMP JUMPDEST PUSH1 0x0 DUP2 CALLDATALOAD SWAP1 POP PUSH2 0x6AF DUP2 PUSH2 0xB50 JUMP JUMPDEST SWAP3 SWAP2 POP POP JUMP JUMPDEST PUSH1 0x0 DUP1 PUSH2 0x120 DUP4 DUP6 SUB SLT ISZERO PUSH2 0x6CD JUMPI PUSH2 0x6CC PUSH2 0xAF5 JUMP JUMPDEST JUMPDEST PUSH1 0x0 PUSH2 0x6DB DUP6 DUP3 DUP7 ADD PUSH2 0x68B JUMP JUMPDEST SWAP3 POP POP PUSH1 0x20 PUSH2 0x6EC DUP6 DUP3 DUP7 ADD PUSH2 0x5C1 JUMP JUMPDEST SWAP2 POP POP SWAP3 POP SWAP3 SWAP1 POP JUMP JUMPDEST PUSH1 0x0 PUSH1 0x20 DUP3 DUP5 SUB SLT ISZERO PUSH2 0x70C JUMPI PUSH2 0x70B PUSH2 0xAF5 JUMP JUMPDEST JUMPDEST PUSH1 0x0 PUSH2 0x71A DUP5 DUP3 DUP6 ADD PUSH2 0x6A0 JUMP JUMPDEST SWAP2 POP POP SWAP3 SWAP2 POP POP JUMP JUMPDEST PUSH1 0x0 PUSH2 0x72F DUP4 DUP4 PUSH2 0x7B8 JUMP JUMPDEST PUSH2 0x100 DUP4 ADD SWAP1 POP SWAP3 SWAP2 POP POP JUMP JUMPDEST PUSH1 0x0 PUSH2 0x747 DUP3 PUSH2 0x97E JUMP JUMPDEST PUSH2 0x751 DUP2 DUP6 PUSH2 0x996 JUMP JUMPDEST SWAP4 POP PUSH2 0x75C DUP4 PUSH2 0x96E JUMP JUMPDEST DUP1 PUSH1 0x0 JUMPDEST DUP4 DUP2 LT ISZERO PUSH2 0x78D JUMPI DUP2 MLOAD PUSH2 0x774 DUP9 DUP3 PUSH2 0x723 JUMP JUMPDEST SWAP8 POP PUSH2 0x77F DUP4 PUSH2 0x989 JUMP JUMPDEST SWAP3 POP POP PUSH1 0x1 DUP2 ADD SWAP1 POP PUSH2 0x760 JUMP JUMPDEST POP DUP6 SWAP4 POP POP POP POP SWAP3 SWAP2 POP POP JUMP JUMPDEST PUSH2 0x7A3 DUP2 PUSH2 0x9DB JUMP JUMPDEST DUP3 MSTORE POP POP JUMP JUMPDEST PUSH2 0x7B2 DUP2 PUSH2 0x9E5 JUMP JUMPDEST DUP3 MSTORE POP POP JUMP JUMPDEST PUSH2 0x100 DUP3 ADD PUSH1 0x0 DUP3 ADD MLOAD PUSH2 0x7CF PUSH1 0x0 DUP6 ADD DUP3 PUSH2 0x8FC JUMP JUMPDEST POP PUSH1 0x20 DUP3 ADD MLOAD PUSH2 0x7E2 PUSH1 0x20 DUP6 ADD DUP3 PUSH2 0x7A9 JUMP JUMPDEST POP PUSH1 0x40 DUP3 ADD MLOAD PUSH2 0x7F5 PUSH1 0x40 DUP6 ADD DUP3 PUSH2 0x7A9 JUMP JUMPDEST POP PUSH1 0x60 DUP3 ADD MLOAD PUSH2 0x808 PUSH1 0x60 DUP6 ADD DUP3 PUSH2 0x7A9 JUMP JUMPDEST POP PUSH1 0x80 DUP3 ADD MLOAD PUSH2 0x81B PUSH1 0x80 DUP6 ADD DUP3 PUSH2 0x79A JUMP JUMPDEST POP PUSH1 0xA0 DUP3 ADD MLOAD PUSH2 0x82E PUSH1 0xA0 DUP6 ADD DUP3 PUSH2 0x79A JUMP JUMPDEST POP PUSH1 0xC0 DUP3 ADD MLOAD PUSH2 0x841 PUSH1 0xC0 DUP6 ADD DUP3 PUSH2 0x79A JUMP JUMPDEST POP PUSH1 0xE0 DUP3 ADD MLOAD PUSH2 0x854 PUSH1 0xE0 DUP6 ADD DUP3 PUSH2 0x79A JUMP JUMPDEST POP POP POP POP JUMP JUMPDEST PUSH2 0x100 DUP3 ADD PUSH1 0x0 DUP3 ADD MLOAD PUSH2 0x871 PUSH1 0x0 DUP6 ADD DUP3 PUSH2 0x8FC JUMP JUMPDEST POP PUSH1 0x20 DUP3 ADD MLOAD PUSH2 0x884 PUSH1 0x20 DUP6 ADD DUP3 PUSH2 0x7A9 JUMP JUMPDEST POP PUSH1 0x40 DUP3 ADD MLOAD PUSH2 0x897 PUSH1 0x40 DUP6 ADD DUP3 PUSH2 0x7A9 JUMP JUMPDEST POP PUSH1 0x60 DUP3 ADD MLOAD PUSH2 0x8AA PUSH1 0x60 DUP6 ADD DUP3 PUSH2 0x7A9 JUMP JUMPDEST POP PUSH1 0x80 DUP3 ADD MLOAD PUSH2 0x8BD PUSH1 0x80 DUP6 ADD DUP3 PUSH2 0x79A JUMP JUMPDEST POP PUSH1 0xA0 DUP3 ADD MLOAD PUSH2 0x8D0 PUSH1 0xA0 DUP6 ADD DUP3 PUSH2 0x79A JUMP JUMPDEST POP PUSH1 0xC0 DUP3 ADD MLOAD PUSH2 0x8E3 PUSH1 0xC0 DUP6 ADD DUP3 PUSH2 0x79A JUMP JUMPDEST POP PUSH1 0xE0 DUP3 ADD MLOAD PUSH2 0x8F6 PUSH1 0xE0 DUP6 ADD DUP3 PUSH2 0x79A JUMP JUMPDEST POP POP POP POP JUMP JUMPDEST PUSH2 0x905 DUP2 PUSH2 0x9FD JUMP JUMPDEST DUP3 MSTORE POP POP JUMP JUMPDEST PUSH1 0x0 PUSH1 0x20 DUP3 ADD SWAP1 POP DUP2 DUP2 SUB PUSH1 0x0 DUP4 ADD MSTORE PUSH2 0x925 DUP2 DUP5 PUSH2 0x73C JUMP JUMPDEST SWAP1 POP SWAP3 SWAP2 POP POP JUMP JUMPDEST PUSH1 0x0 PUSH2 0x100 DUP3 ADD SWAP1 POP PUSH2 0x943 PUSH1 0x0 DUP4 ADD DUP5 PUSH2 0x85A JUMP JUMPDEST SWAP3 SWAP2 POP POP JUMP JUMPDEST PUSH1 0x0 PUSH2 0x953 PUSH2 0x964 JUMP JUMPDEST SWAP1 POP PUSH2 0x95F DUP3 DUP3 PUSH2 0xA07 JUMP JUMPDEST SWAP2 SWAP1 POP JUMP JUMPDEST PUSH1 0x0 PUSH1 0x40 MLOAD SWAP1 POP SWAP1 JUMP JUMPDEST PUSH1 0x0 DUP2 SWAP1 POP PUSH1 0x20 DUP3 ADD SWAP1 POP SWAP2 SWAP1 POP JUMP JUMPDEST PUSH1 0x0 DUP2 MLOAD SWAP1 POP SWAP2 SWAP1 POP JUMP JUMPDEST PUSH1 0x0 PUSH1 0x20 DUP3 ADD SWAP1 POP SWAP2 SWAP1 POP JUMP JUMPDEST PUSH1 0x0 DUP3 DUP3 MSTORE PUSH1 0x20 DUP3 ADD SWAP1 POP SWAP3 SWAP2 POP POP JUMP JUMPDEST PUSH1 0x0 PUSH2 0x9B2 DUP3 PUSH2 0x9EF JUMP JUMPDEST SWAP2 POP PUSH2 0x9BD DUP4 PUSH2 0x9EF JUMP JUMPDEST SWAP3 POP DUP3 DUP3 LT ISZERO PUSH2 0x9D0 JUMPI PUSH2 0x9CF PUSH2 0xA63 JUMP JUMPDEST JUMPDEST DUP3 DUP3 SUB SWAP1 POP SWAP3 SWAP2 POP POP JUMP JUMPDEST PUSH1 0x0 DUP2 SWAP1 POP SWAP2 SWAP1 POP JUMP JUMPDEST PUSH1 0x0 DUP2 SWAP1 POP SWAP2 SWAP1 POP JUMP JUMPDEST PUSH1 0x0 PUSH2 0xFFFF DUP3 AND SWAP1 POP SWAP2 SWAP1 POP JUMP JUMPDEST PUSH1 0x0 DUP2 SWAP1 POP SWAP2 SWAP1 POP JUMP JUMPDEST PUSH2 0xA10 DUP3 PUSH2 0xAFA JUMP JUMPDEST DUP2 ADD DUP2 DUP2 LT PUSH8 0xFFFFFFFFFFFFFFFF DUP3 GT OR ISZERO PUSH2 0xA2F JUMPI PUSH2 0xA2E PUSH2 0xAC1 JUMP JUMPDEST JUMPDEST DUP1 PUSH1 0x40 MSTORE POP POP POP JUMP JUMPDEST PUSH1 0x0 PUSH2 0xA43 DUP3 PUSH2 0x9EF JUMP JUMPDEST SWAP2 POP PUSH2 0xFFFF DUP3 EQ ISZERO PUSH2 0xA58 JUMPI PUSH2 0xA57 PUSH2 0xA63 JUMP JUMPDEST JUMPDEST PUSH1 0x1 DUP3 ADD SWAP1 POP SWAP2 SWAP1 POP JUMP JUMPDEST PUSH32 0x4E487B7100000000000000000000000000000000000000000000000000000000 PUSH1 0x0 MSTORE PUSH1 0x11 PUSH1 0x4 MSTORE PUSH1 0x24 PUSH1 0x0 REVERT JUMPDEST PUSH32 0x4E487B7100000000000000000000000000000000000000000000000000000000 PUSH1 0x0 MSTORE PUSH1 0x32 PUSH1 0x4 MSTORE PUSH1 0x24 PUSH1 0x0 REVERT JUMPDEST PUSH32 0x4E487B7100000000000000000000000000000000000000000000000000000000 PUSH1 0x0 MSTORE PUSH1 0x41 PUSH1 0x4 MSTORE PUSH1 0x24 PUSH1 0x0 REVERT JUMPDEST PUSH1 0x0 DUP1 REVERT JUMPDEST PUSH1 0x0 DUP1 REVERT JUMPDEST PUSH1 0x0 PUSH1 0x1F NOT PUSH1 0x1F DUP4 ADD AND SWAP1 POP SWAP2 SWAP1 POP JUMP JUMPDEST PUSH2 0xB14 DUP2 PUSH2 0x9DB JUMP JUMPDEST DUP2 EQ PUSH2 0xB1F JUMPI PUSH1 0x0 DUP1 REVERT JUMPDEST POP JUMP JUMPDEST PUSH2 0xB2B DUP2 PUSH2 0x9E5 JUMP JUMPDEST DUP2 EQ PUSH2 0xB36 JUMPI PUSH1 0x0 DUP1 REVERT JUMPDEST POP JUMP JUMPDEST PUSH2 0xB42 DUP2 PUSH2 0x9EF JUMP JUMPDEST DUP2 EQ PUSH2 0xB4D JUMPI PUSH1 0x0 DUP1 REVERT JUMPDEST POP JUMP JUMPDEST PUSH2 0xB59 DUP2 PUSH2 0x9FD JUMP JUMPDEST DUP2 EQ PUSH2 0xB64 JUMPI PUSH1 0x0 DUP1 REVERT JUMPDEST POP JUMP INVALID LOG2 PUSH5 0x6970667358 0x22 SLT KECCAK256 0xDA PUSH21 0x40EECD7E5EC0BDFC226C8BCE9582086B608F5F03C8 EQ 0xBE 0xD7 0xB6 DUP13 ADDRESS DUP3 OR 0xE9 PUSH5 0x736F6C6343 STOP ADDMOD SMOD STOP CALLER "
		},
		"gasEstimates": {
			"creation": {
				"codeDepositCost": "594600",
				"executionCost": "625",
				"totalCost": "595225"
			},
			"external": {
				"addPatient(uint16,(uint256,int256,int256,int256,bytes32,bytes32,bytes32,bytes32))": "infinite",
				"getAllRecords(uint256)": "infinite",
				"getLatestOneRec(uint256)": "infinite"
			}
		},
		"methodIdentifiers": {
			"addPatient(uint16,(uint256,int256,int256,int256,bytes32,bytes32,bytes32,bytes32))": "9f2527f8",
			"getAllRecords(uint256)": "f15d0848",
			"getLatestOneRec(uint256)": "6d2bb5f1"
		}
	},
	"abi": [
		{
			"inputs": [
				{
					"internalType": "uint16",
					"name": "_subjectID",
					"type": "uint16"
				},
				{
					"components": [
						{
							"internalType": "uint256",
							"name": "HadmID",
							"type": "uint256"
						},
						{
							"internalType": "int256",
							"name": "AdmitTime",
							"type": "int256"
						},
						{
							"internalType": "int256",
							"name": "DischTime",
							"type": "int256"
						},
						{
							"internalType": "int256",
							"name": "DeathTime",
							"type": "int256"
						},
						{
							"internalType": "bytes32",
							"name": "Admission_Type",
							"type": "bytes32"
						},
						{
							"internalType": "bytes32",
							"name": "Admission_Location",
							"type": "bytes32"
						},
						{
							"internalType": "bytes32",
							"name": "Discharge_Location",
							"type": "bytes32"
						},
						{
							"internalType": "bytes32",
							"name": "Insurance",
							"type": "bytes32"
						}
					],
					"internalType": "struct Admission_Storage.PatientRecords",
					"name": "addPnt",
					"type": "tuple"
				}
			],
			"name": "addPatient",
			"outputs": [],
			"stateMutability": "nonpayable",
			"type": "function"
		},
		{
			"inputs": [
				{
					"internalType": "uint256",
					"name": "_subjectID",
					"type": "uint256"
				}
			],
			"name": "getAllRecords",
			"outputs": [
				{
					"components": [
						{
							"internalType": "uint256",
							"name": "HadmID",
							"type": "uint256"
						},
						{
							"internalType": "int256",
							"name": "AdmitTime",
							"type": "int256"
						},
						{
							"internalType": "int256",
							"name": "DischTime",
							"type": "int256"
						},
						{
							"internalType": "int256",
							"name": "DeathTime",
							"type": "int256"
						},
						{
							"internalType": "bytes32",
							"name": "Admission_Type",
							"type": "bytes32"
						},
						{
							"internalType": "bytes32",
							"name": "Admission_Location",
							"type": "bytes32"
						},
						{
							"internalType": "bytes32",
							"name": "Discharge_Location",
							"type": "bytes32"
						},
						{
							"internalType": "bytes32",
							"name": "Insurance",
							"type": "bytes32"
						}
					],
					"internalType": "struct Admission_Storage.PatientRecords[]",
					"name": "",
					"type": "tuple[]"
				}
			],
			"stateMutability": "view",
			"type": "function"
		},
		{
			"inputs": [
				{
					"internalType": "uint256",
					"name": "_subjectID",
					"type": "uint256"
				}
			],
			"name": "getLatestOneRec",
			"outputs": [
				{
					"components": [
						{
							"internalType": "uint256",
							"name": "HadmID",
							"type": "uint256"
						},
						{
							"internalType": "int256",
							"name": "AdmitTime",
							"type": "int256"
						},
						{
							"internalType": "int256",
							"name": "DischTime",
							"type": "int256"
						},
						{
							"internalType": "int256",
							"name": "DeathTime",
							"type": "int256"
						},
						{
							"internalType": "bytes32",
							"name": "Admission_Type",
							"type": "bytes32"
						},
						{
							"internalType": "bytes32",
							"name": "Admission_Location",
							"type": "bytes32"
						},
						{
							"internalType": "bytes32",
							"name": "Discharge_Location",
							"type": "bytes32"
						},
						{
							"internalType": "bytes32",
							"name": "Insurance",
							"type": "bytes32"
						}
					],
					"internalType": "struct Admission_Storage.PatientRecords",
					"name": "",
					"type": "tuple"
				}
			],
			"stateMutability": "view",
			"type": "function"
		}
	]
}