{
	"data": {
		"bytecode": {
			"linkReferences": {},
			"object": "60806040523480156200001157600080fd5b50604051620020ec380380620020ec833981810160405281019062000037919062000118565b336000806101000a81548173ffffffffffffffffffffffffffffffffffffffff021916908373ffffffffffffffffffffffffffffffffffffffff16021790555081600160006101000a81548173ffffffffffffffffffffffffffffffffffffffff021916908373ffffffffffffffffffffffffffffffffffffffff16021790555080600260006101000a81548173ffffffffffffffffffffffffffffffffffffffff021916908373ffffffffffffffffffffffffffffffffffffffff1602179055505050620001b2565b600081519050620001128162000198565b92915050565b6000806040838503121562000132576200013162000193565b5b6000620001428582860162000101565b9250506020620001558582860162000101565b9150509250929050565b60006200016c8262000173565b9050919050565b600073ffffffffffffffffffffffffffffffffffffffff82169050919050565b600080fd5b620001a3816200015f565b8114620001af57600080fd5b50565b611f2a80620001c26000396000f3fe608060405234801561001057600080fd5b50600436106100415760003560e01c806303365eb814610046578063973d129314610076578063f0d6e2c1146100a6575b600080fd5b610060600480360381019061005b9190611484565b6100c2565b60405161006d9190611a16565b60405180910390f35b610090600480360381019061008b9190611484565b61040d565b60405161009d919061190f565b60405180910390f35b6100c060048036038101906100bb91906113e4565b610756565b005b6100ca610f4c565b83836100d68282610b8a565b610115576040517f08c379a000000000000000000000000000000000000000000000000000000000815260040161010c90611976565b60405180910390fd5b33600160009054906101000a900473ffffffffffffffffffffffffffffffffffffffff16600360006101000a81548173ffffffffffffffffffffffffffffffffffffffff021916908373ffffffffffffffffffffffffffffffffffffffff160217905550600360009054906101000a900473ffffffffffffffffffffffffffffffffffffffff1673ffffffffffffffffffffffffffffffffffffffff1663996440c6826040518263ffffffff1660e01b81526004016101d491906118f4565b60206040518083038186803b1580156101ec57600080fd5b505afa158015610200573d6000803e3d6000fd5b505050506040513d601f19601f8201168201806040525081019061022491906113b7565b50600061023033610be7565b905060008160ff1611610278576040517f08c379a000000000000000000000000000000000000000000000000000000000815260040161026f906119d6565b60405180910390fd5b60006102a5600260009054906101000a900473ffffffffffffffffffffffffffffffffffffffff16610cfe565b90508060ff168260ff1610156102f0576040517f08c379a00000000000000000000000000000000000000000000000000000000081526004016102e7906119b6565b60405180910390fd5b600260009054906101000a900473ffffffffffffffffffffffffffffffffffffffff16600460006101000a81548173ffffffffffffffffffffffffffffffffffffffff021916908373ffffffffffffffffffffffffffffffffffffffff160217905550600460009054906101000a900473ffffffffffffffffffffffffffffffffffffffff1673ffffffffffffffffffffffffffffffffffffffff16636d2bb5f1886040518263ffffffff1660e01b81526004016103ae9190611a5c565b6101006040518083038186803b1580156103c757600080fd5b505afa1580156103db573d6000803e3d6000fd5b505050506040513d601f19601f820116820180604052508101906103ff919061150f565b955050505050509392505050565b6060838361041b8282610b8a565b61045a576040517f08c379a000000000000000000000000000000000000000000000000000000000815260040161045190611976565b60405180910390fd5b33600160009054906101000a900473ffffffffffffffffffffffffffffffffffffffff16600360006101000a81548173ffffffffffffffffffffffffffffffffffffffff021916908373ffffffffffffffffffffffffffffffffffffffff160217905550600360009054906101000a900473ffffffffffffffffffffffffffffffffffffffff1673ffffffffffffffffffffffffffffffffffffffff1663996440c6826040518263ffffffff1660e01b815260040161051991906118f4565b60206040518083038186803b15801561053157600080fd5b505afa158015610545573d6000803e3d6000fd5b505050506040513d601f19601f8201168201806040525081019061056991906113b7565b50600061057533610be7565b905060008160ff16116105bd576040517f08c379a00000000000000000000000000000000000000000000000000000000081526004016105b4906119d6565b60405180910390fd5b60006105ea600260009054906101000a900473ffffffffffffffffffffffffffffffffffffffff16610cfe565b90508060ff168260ff161015610635576040517f08c379a000000000000000000000000000000000000000000000000000000000815260040161062c906119b6565b60405180910390fd5b600260009054906101000a900473ffffffffffffffffffffffffffffffffffffffff16600460006101000a81548173ffffffffffffffffffffffffffffffffffffffff021916908373ffffffffffffffffffffffffffffffffffffffff160217905550600460009054906101000a900473ffffffffffffffffffffffffffffffffffffffff1673ffffffffffffffffffffffffffffffffffffffff1663f15d0848886040518263ffffffff1660e01b81526004016106f39190611a5c565b60006040518083038186803b15801561070b57600080fd5b505afa15801561071f573d6000803e3d6000fd5b505050506040513d6000823e3d601f19601f82011682018060405250810190610748919061136e565b955050505050509392505050565b83836107628282610b8a565b6107a1576040517f08c379a000000000000000000000000000000000000000000000000000000000815260040161079890611976565b60405180910390fd5b33600160009054906101000a900473ffffffffffffffffffffffffffffffffffffffff16600360006101000a81548173ffffffffffffffffffffffffffffffffffffffff021916908373ffffffffffffffffffffffffffffffffffffffff160217905550600360009054906101000a900473ffffffffffffffffffffffffffffffffffffffff1673ffffffffffffffffffffffffffffffffffffffff1663996440c6826040518263ffffffff1660e01b815260040161086091906118f4565b60206040518083038186803b15801561087857600080fd5b505afa15801561088c573d6000803e3d6000fd5b505050506040513d601f19601f820116820180604052508101906108b091906113b7565b5033600160009054906101000a900473ffffffffffffffffffffffffffffffffffffffff16600360006101000a81548173ffffffffffffffffffffffffffffffffffffffff021916908373ffffffffffffffffffffffffffffffffffffffff160217905550600360009054906101000a900473ffffffffffffffffffffffffffffffffffffffff1673ffffffffffffffffffffffffffffffffffffffff16633c779869826040518263ffffffff1660e01b815260040161097091906118f4565b60206040518083038186803b15801561098857600080fd5b505afa15801561099c573d6000803e3d6000fd5b505050506040513d601f19601f820116820180604052508101906109c091906113b7565b5060006109cc33610be7565b905060008160ff1611610a14576040517f08c379a0000000000000000000000000000000000000000000000000000000008152600401610a0b906119d6565b60405180910390fd5b6000610a41600260009054906101000a900473ffffffffffffffffffffffffffffffffffffffff16610cfe565b90508060ff168260ff161115610a8c576040517f08c379a0000000000000000000000000000000000000000000000000000000008152600401610a83906119f6565b60405180910390fd5b600260009054906101000a900473ffffffffffffffffffffffffffffffffffffffff16600460006101000a81548173ffffffffffffffffffffffffffffffffffffffff021916908373ffffffffffffffffffffffffffffffffffffffff160217905550600460009054906101000a900473ffffffffffffffffffffffffffffffffffffffff1673ffffffffffffffffffffffffffffffffffffffff16639f2527f889896040518363ffffffff1660e01b8152600401610b4c929190611a32565b600060405180830381600087803b158015610b6657600080fd5b505af1158015610b7a573d6000803e3d6000fd5b5050505050505050505050505050565b600080610b9684610e15565b90506000610ba382610e45565b90503373ffffffffffffffffffffffffffffffffffffffff16610bc68286610e75565b73ffffffffffffffffffffffffffffffffffffffff16149250505092915050565b6000600160009054906101000a900473ffffffffffffffffffffffffffffffffffffffff16600360006101000a81548173ffffffffffffffffffffffffffffffffffffffff021916908373ffffffffffffffffffffffffffffffffffffffff160217905550600360009054906101000a900473ffffffffffffffffffffffffffffffffffffffff1673ffffffffffffffffffffffffffffffffffffffff1663665057ef836040518263ffffffff1660e01b8152600401610ca791906118f4565b60206040518083038186803b158015610cbf57600080fd5b505afa158015610cd3573d6000803e3d6000fd5b505050506040513d601f19601f82011682018060405250810190610cf7919061153d565b9050919050565b6000600160009054906101000a900473ffffffffffffffffffffffffffffffffffffffff16600360006101000a81548173ffffffffffffffffffffffffffffffffffffffff021916908373ffffffffffffffffffffffffffffffffffffffff160217905550600360009054906101000a900473ffffffffffffffffffffffffffffffffffffffff1673ffffffffffffffffffffffffffffffffffffffff1663f1ac2d66836040518263ffffffff1660e01b8152600401610dbe91906118f4565b60206040518083038186803b158015610dd657600080fd5b505afa158015610dea573d6000803e3d6000fd5b505050506040513d601f19601f82011682018060405250810190610e0e919061153d565b9050919050565b600081604051602001610e2891906118b7565b604051602081830303815290604052805190602001209050919050565b600081604051602001610e5891906118ce565b604051602081830303815290604052805190602001209050919050565b600080600080610e8485610ee4565b92509250925060018682858560405160008152602001604052604051610ead9493929190611931565b6020604051602081039080840390855afa158015610ecf573d6000803e3d6000fd5b50505060206040510351935050505092915050565b60008060006041845114610f2d576040517f08c379a0000000000000000000000000000000000000000000000000000000008152600401610f2490611996565b60405180910390fd5b6020840151925060408401519150606084015160001a90509193909250565b60405180610100016040528060008152602001600081526020016000815260200160008152602001600080191681526020016000801916815260200160008019168152602001600080191681525090565b6000610fb0610fab84611a9c565b611a77565b9050808382526020820190508285610100860282011115610fd457610fd3611cb7565b5b60005b858110156110055781610fea8882611250565b84526020840193506101008301925050600181019050610fd7565b5050509392505050565b600061102261101d84611ac8565b611a77565b90508281526020810184848401111561103e5761103d611cbc565b5b611049848285611c01565b509392505050565b600061106461105f84611af9565b611a77565b9050828152602081018484840111156110805761107f611cbc565b5b61108b848285611c01565b509392505050565b600082601f8301126110a8576110a7611cad565b5b81516110b8848260208601610f9d565b91505092915050565b6000815190506110d081611e6a565b92915050565b6000813590506110e581611e81565b92915050565b6000815190506110fa81611e81565b92915050565b600082601f83011261111557611114611cad565b5b813561112584826020860161100f565b91505092915050565b60008135905061113d81611e98565b92915050565b60008151905061115281611e98565b92915050565b600082601f83011261116d5761116c611cad565b5b813561117d848260208601611051565b91505092915050565b6000610100828403121561119d5761119c611cb2565b5b6111a8610100611a77565b905060006111b88482850161132f565b60008301525060206111cc8482850161112e565b60208301525060406111e08482850161112e565b60408301525060606111f48482850161112e565b6060830152506080611208848285016110d6565b60808301525060a061121c848285016110d6565b60a08301525060c0611230848285016110d6565b60c08301525060e0611244848285016110d6565b60e08301525092915050565b6000610100828403121561126757611266611cb2565b5b611272610100611a77565b9050600061128284828501611344565b600083015250602061129684828501611143565b60208301525060406112aa84828501611143565b60408301525060606112be84828501611143565b60608301525060806112d2848285016110eb565b60808301525060a06112e6848285016110eb565b60a08301525060c06112fa848285016110eb565b60c08301525060e061130e848285016110eb565b60e08301525092915050565b60008135905061132981611eaf565b92915050565b60008135905061133e81611ec6565b92915050565b60008151905061135381611ec6565b92915050565b60008151905061136881611edd565b92915050565b60006020828403121561138457611383611cc6565b5b600082015167ffffffffffffffff8111156113a2576113a1611cc1565b5b6113ae84828501611093565b91505092915050565b6000602082840312156113cd576113cc611cc6565b5b60006113db848285016110c1565b91505092915050565b60008060008061016085870312156113ff576113fe611cc6565b5b600085013567ffffffffffffffff81111561141d5761141c611cc1565b5b61142987828801611158565b945050602085013567ffffffffffffffff81111561144a57611449611cc1565b5b61145687828801611100565b93505060406114678782880161131a565b925050606061147887828801611186565b91505092959194509250565b60008060006060848603121561149d5761149c611cc6565b5b600084013567ffffffffffffffff8111156114bb576114ba611cc1565b5b6114c786828701611158565b935050602084013567ffffffffffffffff8111156114e8576114e7611cc1565b5b6114f486828701611100565b92505060406115058682870161132f565b9150509250925092565b6000610100828403121561152657611525611cc6565b5b600061153484828501611250565b91505092915050565b60006020828403121561155357611552611cc6565b5b600061156184828501611359565b91505092915050565b60006115768383611737565b6101008301905092915050565b61158c81611b8a565b82525050565b600061159d82611b3a565b6115a78185611b5d565b93506115b283611b2a565b8060005b838110156115e35781516115ca888261156a565b97506115d583611b50565b9250506001810190506115b6565b5085935050505092915050565b6115f981611ba8565b82525050565b61160881611ba8565b82525050565b61161f61161a82611ba8565b611c74565b82525050565b61162e81611bb2565b82525050565b600061163f82611b45565b6116498185611b7f565b9350611659818560208601611c10565b80840191505092915050565b6000611672601e83611b6e565b915061167d82611cdc565b602082019050919050565b6000611695601c83611b7f565b91506116a082611d05565b601c82019050919050565b60006116b8601883611b6e565b91506116c382611d2e565b602082019050919050565b60006116db604183611b6e565b91506116e682611d57565b606082019050919050565b60006116fe600e83611b6e565b915061170982611dcc565b602082019050919050565b6000611721604183611b6e565b915061172c82611df5565b606082019050919050565b6101008201600082015161174e600085018261188a565b5060208201516117616020850182611625565b5060408201516117746040850182611625565b5060608201516117876060850182611625565b50608082015161179a60808501826115f0565b5060a08201516117ad60a08501826115f0565b5060c08201516117c060c08501826115f0565b5060e08201516117d360e08501826115f0565b50505050565b610100820160008201516117f0600085018261188a565b5060208201516118036020850182611625565b5060408201516118166040850182611625565b5060608201516118296060850182611625565b50608082015161183c60808501826115f0565b5060a082015161184f60a08501826115f0565b5060c082015161186260c08501826115f0565b5060e082015161187560e08501826115f0565b50505050565b61188481611bbc565b82525050565b61189381611bea565b82525050565b6118a281611bea565b82525050565b6118b181611bf4565b82525050565b60006118c38284611634565b915081905092915050565b60006118d982611688565b91506118e5828461160e565b60208201915081905092915050565b60006020820190506119096000830184611583565b92915050565b600060208201905081810360008301526119298184611592565b905092915050565b600060808201905061194660008301876115ff565b61195360208301866118a8565b61196060408301856115ff565b61196d60608301846115ff565b95945050505050565b6000602082019050818103600083015261198f81611665565b9050919050565b600060208201905081810360008301526119af816116ab565b9050919050565b600060208201905081810360008301526119cf816116ce565b9050919050565b600060208201905081810360008301526119ef816116f1565b9050919050565b60006020820190508181036000830152611a0f81611714565b9050919050565b600061010082019050611a2c60008301846117d9565b92915050565b600061012082019050611a48600083018561187b565b611a5560208301846117d9565b9392505050565b6000602082019050611a716000830184611899565b92915050565b6000611a81611a92565b9050611a8d8282611c43565b919050565b6000604051905090565b600067ffffffffffffffff821115611ab757611ab6611c7e565b5b602082029050602081019050919050565b600067ffffffffffffffff821115611ae357611ae2611c7e565b5b611aec82611ccb565b9050602081019050919050565b600067ffffffffffffffff821115611b1457611b13611c7e565b5b611b1d82611ccb565b9050602081019050919050565b6000819050602082019050919050565b600081519050919050565b600081519050919050565b6000602082019050919050565b600082825260208201905092915050565b600082825260208201905092915050565b600081905092915050565b6000611b9582611bca565b9050919050565b60008115159050919050565b6000819050919050565b6000819050919050565b600061ffff82169050919050565b600073ffffffffffffffffffffffffffffffffffffffff82169050919050565b6000819050919050565b600060ff82169050919050565b82818337600083830152505050565b60005b83811015611c2e578082015181840152602081019050611c13565b83811115611c3d576000848401525b50505050565b611c4c82611ccb565b810181811067ffffffffffffffff82111715611c6b57611c6a611c7e565b5b80604052505050565b6000819050919050565b7f4e487b7100000000000000000000000000000000000000000000000000000000600052604160045260246000fd5b600080fd5b600080fd5b600080fd5b600080fd5b600080fd5b600080fd5b6000601f19601f8301169050919050565b7f4661696c6564205369676e617475726520566572696669636174696f6e210000600082015250565b7f19457468657265756d205369676e6564204d6573736167653a0a333200000000600082015250565b7f496e76616c6964205369676e6174757265204c656e6774680000000000000000600082015250565b7f596f752068617665206e6f205265616420436c656172656e636520746f204f6260008201527f6a65637420436c656172656e636520486967686572207468616e20796f75212160208201527f2100000000000000000000000000000000000000000000000000000000000000604082015250565b7f4e6f20436c6572656e6365212121000000000000000000000000000000000000600082015250565b7f596f752068617665206e6f20577269746520436c656172656e636520746f204f60008201527f626a65637420436c656172656e6365204c6f776572207468616e20796f75212160208201527f2100000000000000000000000000000000000000000000000000000000000000604082015250565b611e7381611b9c565b8114611e7e57600080fd5b50565b611e8a81611ba8565b8114611e9557600080fd5b50565b611ea181611bb2565b8114611eac57600080fd5b50565b611eb881611bbc565b8114611ec357600080fd5b50565b611ecf81611bea565b8114611eda57600080fd5b50565b611ee681611bf4565b8114611ef157600080fd5b5056fea2646970667358221220af0586bc07993b71b64499ab711d713f47bcd44362d3018881175c4fad0cefeb64736f6c63430008070033",
			"opcodes": "PUSH1 0x80 PUSH1 0x40 MSTORE CALLVALUE DUP1 ISZERO PUSH3 0x11 JUMPI PUSH1 0x0 DUP1 REVERT JUMPDEST POP PUSH1 0x40 MLOAD PUSH3 0x20EC CODESIZE SUB DUP1 PUSH3 0x20EC DUP4 CODECOPY DUP2 DUP2 ADD PUSH1 0x40 MSTORE DUP2 ADD SWAP1 PUSH3 0x37 SWAP2 SWAP1 PUSH3 0x118 JUMP JUMPDEST CALLER PUSH1 0x0 DUP1 PUSH2 0x100 EXP DUP2 SLOAD DUP2 PUSH20 0xFFFFFFFFFFFFFFFFFFFFFFFFFFFFFFFFFFFFFFFF MUL NOT AND SWAP1 DUP4 PUSH20 0xFFFFFFFFFFFFFFFFFFFFFFFFFFFFFFFFFFFFFFFF AND MUL OR SWAP1 SSTORE POP DUP2 PUSH1 0x1 PUSH1 0x0 PUSH2 0x100 EXP DUP2 SLOAD DUP2 PUSH20 0xFFFFFFFFFFFFFFFFFFFFFFFFFFFFFFFFFFFFFFFF MUL NOT AND SWAP1 DUP4 PUSH20 0xFFFFFFFFFFFFFFFFFFFFFFFFFFFFFFFFFFFFFFFF AND MUL OR SWAP1 SSTORE POP DUP1 PUSH1 0x2 PUSH1 0x0 PUSH2 0x100 EXP DUP2 SLOAD DUP2 PUSH20 0xFFFFFFFFFFFFFFFFFFFFFFFFFFFFFFFFFFFFFFFF MUL NOT AND SWAP1 DUP4 PUSH20 0xFFFFFFFFFFFFFFFFFFFFFFFFFFFFFFFFFFFFFFFF AND MUL OR SWAP1 SSTORE POP POP POP PUSH3 0x1B2 JUMP JUMPDEST PUSH1 0x0 DUP2 MLOAD SWAP1 POP PUSH3 0x112 DUP2 PUSH3 0x198 JUMP JUMPDEST SWAP3 SWAP2 POP POP JUMP JUMPDEST PUSH1 0x0 DUP1 PUSH1 0x40 DUP4 DUP6 SUB SLT ISZERO PUSH3 0x132 JUMPI PUSH3 0x131 PUSH3 0x193 JUMP JUMPDEST JUMPDEST PUSH1 0x0 PUSH3 0x142 DUP6 DUP3 DUP7 ADD PUSH3 0x101 JUMP JUMPDEST SWAP3 POP POP PUSH1 0x20 PUSH3 0x155 DUP6 DUP3 DUP7 ADD PUSH3 0x101 JUMP JUMPDEST SWAP2 POP POP SWAP3 POP SWAP3 SWAP1 POP JUMP JUMPDEST PUSH1 0x0 PUSH3 0x16C DUP3 PUSH3 0x173 JUMP JUMPDEST SWAP1 POP SWAP2 SWAP1 POP JUMP JUMPDEST PUSH1 0x0 PUSH20 0xFFFFFFFFFFFFFFFFFFFFFFFFFFFFFFFFFFFFFFFF DUP3 AND SWAP1 POP SWAP2 SWAP1 POP JUMP JUMPDEST PUSH1 0x0 DUP1 REVERT JUMPDEST PUSH3 0x1A3 DUP2 PUSH3 0x15F JUMP JUMPDEST DUP2 EQ PUSH3 0x1AF JUMPI PUSH1 0x0 DUP1 REVERT JUMPDEST POP JUMP JUMPDEST PUSH2 0x1F2A DUP1 PUSH3 0x1C2 PUSH1 0x0 CODECOPY PUSH1 0x0 RETURN INVALID PUSH1 0x80 PUSH1 0x40 MSTORE CALLVALUE DUP1 ISZERO PUSH2 0x10 JUMPI PUSH1 0x0 DUP1 REVERT JUMPDEST POP PUSH1 0x4 CALLDATASIZE LT PUSH2 0x41 JUMPI PUSH1 0x0 CALLDATALOAD PUSH1 0xE0 SHR DUP1 PUSH4 0x3365EB8 EQ PUSH2 0x46 JUMPI DUP1 PUSH4 0x973D1293 EQ PUSH2 0x76 JUMPI DUP1 PUSH4 0xF0D6E2C1 EQ PUSH2 0xA6 JUMPI JUMPDEST PUSH1 0x0 DUP1 REVERT JUMPDEST PUSH2 0x60 PUSH1 0x4 DUP1 CALLDATASIZE SUB DUP2 ADD SWAP1 PUSH2 0x5B SWAP2 SWAP1 PUSH2 0x1484 JUMP JUMPDEST PUSH2 0xC2 JUMP JUMPDEST PUSH1 0x40 MLOAD PUSH2 0x6D SWAP2 SWAP1 PUSH2 0x1A16 JUMP JUMPDEST PUSH1 0x40 MLOAD DUP1 SWAP2 SUB SWAP1 RETURN JUMPDEST PUSH2 0x90 PUSH1 0x4 DUP1 CALLDATASIZE SUB DUP2 ADD SWAP1 PUSH2 0x8B SWAP2 SWAP1 PUSH2 0x1484 JUMP JUMPDEST PUSH2 0x40D JUMP JUMPDEST PUSH1 0x40 MLOAD PUSH2 0x9D SWAP2 SWAP1 PUSH2 0x190F JUMP JUMPDEST PUSH1 0x40 MLOAD DUP1 SWAP2 SUB SWAP1 RETURN JUMPDEST PUSH2 0xC0 PUSH1 0x4 DUP1 CALLDATASIZE SUB DUP2 ADD SWAP1 PUSH2 0xBB SWAP2 SWAP1 PUSH2 0x13E4 JUMP JUMPDEST PUSH2 0x756 JUMP JUMPDEST STOP JUMPDEST PUSH2 0xCA PUSH2 0xF4C JUMP JUMPDEST DUP4 DUP4 PUSH2 0xD6 DUP3 DUP3 PUSH2 0xB8A JUMP JUMPDEST PUSH2 0x115 JUMPI PUSH1 0x40 MLOAD PUSH32 0x8C379A000000000000000000000000000000000000000000000000000000000 DUP2 MSTORE PUSH1 0x4 ADD PUSH2 0x10C SWAP1 PUSH2 0x1976 JUMP JUMPDEST PUSH1 0x40 MLOAD DUP1 SWAP2 SUB SWAP1 REVERT JUMPDEST CALLER PUSH1 0x1 PUSH1 0x0 SWAP1 SLOAD SWAP1 PUSH2 0x100 EXP SWAP1 DIV PUSH20 0xFFFFFFFFFFFFFFFFFFFFFFFFFFFFFFFFFFFFFFFF AND PUSH1 0x3 PUSH1 0x0 PUSH2 0x100 EXP DUP2 SLOAD DUP2 PUSH20 0xFFFFFFFFFFFFFFFFFFFFFFFFFFFFFFFFFFFFFFFF MUL NOT AND SWAP1 DUP4 PUSH20 0xFFFFFFFFFFFFFFFFFFFFFFFFFFFFFFFFFFFFFFFF AND MUL OR SWAP1 SSTORE POP PUSH1 0x3 PUSH1 0x0 SWAP1 SLOAD SWAP1 PUSH2 0x100 EXP SWAP1 DIV PUSH20 0xFFFFFFFFFFFFFFFFFFFFFFFFFFFFFFFFFFFFFFFF AND PUSH20 0xFFFFFFFFFFFFFFFFFFFFFFFFFFFFFFFFFFFFFFFF AND PUSH4 0x996440C6 DUP3 PUSH1 0x40 MLOAD DUP3 PUSH4 0xFFFFFFFF AND PUSH1 0xE0 SHL DUP2 MSTORE PUSH1 0x4 ADD PUSH2 0x1D4 SWAP2 SWAP1 PUSH2 0x18F4 JUMP JUMPDEST PUSH1 0x20 PUSH1 0x40 MLOAD DUP1 DUP4 SUB DUP2 DUP7 DUP1 EXTCODESIZE ISZERO DUP1 ISZERO PUSH2 0x1EC JUMPI PUSH1 0x0 DUP1 REVERT JUMPDEST POP GAS STATICCALL ISZERO DUP1 ISZERO PUSH2 0x200 JUMPI RETURNDATASIZE PUSH1 0x0 DUP1 RETURNDATACOPY RETURNDATASIZE PUSH1 0x0 REVERT JUMPDEST POP POP POP POP PUSH1 0x40 MLOAD RETURNDATASIZE PUSH1 0x1F NOT PUSH1 0x1F DUP3 ADD AND DUP3 ADD DUP1 PUSH1 0x40 MSTORE POP DUP2 ADD SWAP1 PUSH2 0x224 SWAP2 SWAP1 PUSH2 0x13B7 JUMP JUMPDEST POP PUSH1 0x0 PUSH2 0x230 CALLER PUSH2 0xBE7 JUMP JUMPDEST SWAP1 POP PUSH1 0x0 DUP2 PUSH1 0xFF AND GT PUSH2 0x278 JUMPI PUSH1 0x40 MLOAD PUSH32 0x8C379A000000000000000000000000000000000000000000000000000000000 DUP2 MSTORE PUSH1 0x4 ADD PUSH2 0x26F SWAP1 PUSH2 0x19D6 JUMP JUMPDEST PUSH1 0x40 MLOAD DUP1 SWAP2 SUB SWAP1 REVERT JUMPDEST PUSH1 0x0 PUSH2 0x2A5 PUSH1 0x2 PUSH1 0x0 SWAP1 SLOAD SWAP1 PUSH2 0x100 EXP SWAP1 DIV PUSH20 0xFFFFFFFFFFFFFFFFFFFFFFFFFFFFFFFFFFFFFFFF AND PUSH2 0xCFE JUMP JUMPDEST SWAP1 POP DUP1 PUSH1 0xFF AND DUP3 PUSH1 0xFF AND LT ISZERO PUSH2 0x2F0 JUMPI PUSH1 0x40 MLOAD PUSH32 0x8C379A000000000000000000000000000000000000000000000000000000000 DUP2 MSTORE PUSH1 0x4 ADD PUSH2 0x2E7 SWAP1 PUSH2 0x19B6 JUMP JUMPDEST PUSH1 0x40 MLOAD DUP1 SWAP2 SUB SWAP1 REVERT JUMPDEST PUSH1 0x2 PUSH1 0x0 SWAP1 SLOAD SWAP1 PUSH2 0x100 EXP SWAP1 DIV PUSH20 0xFFFFFFFFFFFFFFFFFFFFFFFFFFFFFFFFFFFFFFFF AND PUSH1 0x4 PUSH1 0x0 PUSH2 0x100 EXP DUP2 SLOAD DUP2 PUSH20 0xFFFFFFFFFFFFFFFFFFFFFFFFFFFFFFFFFFFFFFFF MUL NOT AND SWAP1 DUP4 PUSH20 0xFFFFFFFFFFFFFFFFFFFFFFFFFFFFFFFFFFFFFFFF AND MUL OR SWAP1 SSTORE POP PUSH1 0x4 PUSH1 0x0 SWAP1 SLOAD SWAP1 PUSH2 0x100 EXP SWAP1 DIV PUSH20 0xFFFFFFFFFFFFFFFFFFFFFFFFFFFFFFFFFFFFFFFF AND PUSH20 0xFFFFFFFFFFFFFFFFFFFFFFFFFFFFFFFFFFFFFFFF AND PUSH4 0x6D2BB5F1 DUP9 PUSH1 0x40 MLOAD DUP3 PUSH4 0xFFFFFFFF AND PUSH1 0xE0 SHL DUP2 MSTORE PUSH1 0x4 ADD PUSH2 0x3AE SWAP2 SWAP1 PUSH2 0x1A5C JUMP JUMPDEST PUSH2 0x100 PUSH1 0x40 MLOAD DUP1 DUP4 SUB DUP2 DUP7 DUP1 EXTCODESIZE ISZERO DUP1 ISZERO PUSH2 0x3C7 JUMPI PUSH1 0x0 DUP1 REVERT JUMPDEST POP GAS STATICCALL ISZERO DUP1 ISZERO PUSH2 0x3DB JUMPI RETURNDATASIZE PUSH1 0x0 DUP1 RETURNDATACOPY RETURNDATASIZE PUSH1 0x0 REVERT JUMPDEST POP POP POP POP PUSH1 0x40 MLOAD RETURNDATASIZE PUSH1 0x1F NOT PUSH1 0x1F DUP3 ADD AND DUP3 ADD DUP1 PUSH1 0x40 MSTORE POP DUP2 ADD SWAP1 PUSH2 0x3FF SWAP2 SWAP1 PUSH2 0x150F JUMP JUMPDEST SWAP6 POP POP POP POP POP POP SWAP4 SWAP3 POP POP POP JUMP JUMPDEST PUSH1 0x60 DUP4 DUP4 PUSH2 0x41B DUP3 DUP3 PUSH2 0xB8A JUMP JUMPDEST PUSH2 0x45A JUMPI PUSH1 0x40 MLOAD PUSH32 0x8C379A000000000000000000000000000000000000000000000000000000000 DUP2 MSTORE PUSH1 0x4 ADD PUSH2 0x451 SWAP1 PUSH2 0x1976 JUMP JUMPDEST PUSH1 0x40 MLOAD DUP1 SWAP2 SUB SWAP1 REVERT JUMPDEST CALLER PUSH1 0x1 PUSH1 0x0 SWAP1 SLOAD SWAP1 PUSH2 0x100 EXP SWAP1 DIV PUSH20 0xFFFFFFFFFFFFFFFFFFFFFFFFFFFFFFFFFFFFFFFF AND PUSH1 0x3 PUSH1 0x0 PUSH2 0x100 EXP DUP2 SLOAD DUP2 PUSH20 0xFFFFFFFFFFFFFFFFFFFFFFFFFFFFFFFFFFFFFFFF MUL NOT AND SWAP1 DUP4 PUSH20 0xFFFFFFFFFFFFFFFFFFFFFFFFFFFFFFFFFFFFFFFF AND MUL OR SWAP1 SSTORE POP PUSH1 0x3 PUSH1 0x0 SWAP1 SLOAD SWAP1 PUSH2 0x100 EXP SWAP1 DIV PUSH20 0xFFFFFFFFFFFFFFFFFFFFFFFFFFFFFFFFFFFFFFFF AND PUSH20 0xFFFFFFFFFFFFFFFFFFFFFFFFFFFFFFFFFFFFFFFF AND PUSH4 0x996440C6 DUP3 PUSH1 0x40 MLOAD DUP3 PUSH4 0xFFFFFFFF AND PUSH1 0xE0 SHL DUP2 MSTORE PUSH1 0x4 ADD PUSH2 0x519 SWAP2 SWAP1 PUSH2 0x18F4 JUMP JUMPDEST PUSH1 0x20 PUSH1 0x40 MLOAD DUP1 DUP4 SUB DUP2 DUP7 DUP1 EXTCODESIZE ISZERO DUP1 ISZERO PUSH2 0x531 JUMPI PUSH1 0x0 DUP1 REVERT JUMPDEST POP GAS STATICCALL ISZERO DUP1 ISZERO PUSH2 0x545 JUMPI RETURNDATASIZE PUSH1 0x0 DUP1 RETURNDATACOPY RETURNDATASIZE PUSH1 0x0 REVERT JUMPDEST POP POP POP POP PUSH1 0x40 MLOAD RETURNDATASIZE PUSH1 0x1F NOT PUSH1 0x1F DUP3 ADD AND DUP3 ADD DUP1 PUSH1 0x40 MSTORE POP DUP2 ADD SWAP1 PUSH2 0x569 SWAP2 SWAP1 PUSH2 0x13B7 JUMP JUMPDEST POP PUSH1 0x0 PUSH2 0x575 CALLER PUSH2 0xBE7 JUMP JUMPDEST SWAP1 POP PUSH1 0x0 DUP2 PUSH1 0xFF AND GT PUSH2 0x5BD JUMPI PUSH1 0x40 MLOAD PUSH32 0x8C379A000000000000000000000000000000000000000000000000000000000 DUP2 MSTORE PUSH1 0x4 ADD PUSH2 0x5B4 SWAP1 PUSH2 0x19D6 JUMP JUMPDEST PUSH1 0x40 MLOAD DUP1 SWAP2 SUB SWAP1 REVERT JUMPDEST PUSH1 0x0 PUSH2 0x5EA PUSH1 0x2 PUSH1 0x0 SWAP1 SLOAD SWAP1 PUSH2 0x100 EXP SWAP1 DIV PUSH20 0xFFFFFFFFFFFFFFFFFFFFFFFFFFFFFFFFFFFFFFFF AND PUSH2 0xCFE JUMP JUMPDEST SWAP1 POP DUP1 PUSH1 0xFF AND DUP3 PUSH1 0xFF AND LT ISZERO PUSH2 0x635 JUMPI PUSH1 0x40 MLOAD PUSH32 0x8C379A000000000000000000000000000000000000000000000000000000000 DUP2 MSTORE PUSH1 0x4 ADD PUSH2 0x62C SWAP1 PUSH2 0x19B6 JUMP JUMPDEST PUSH1 0x40 MLOAD DUP1 SWAP2 SUB SWAP1 REVERT JUMPDEST PUSH1 0x2 PUSH1 0x0 SWAP1 SLOAD SWAP1 PUSH2 0x100 EXP SWAP1 DIV PUSH20 0xFFFFFFFFFFFFFFFFFFFFFFFFFFFFFFFFFFFFFFFF AND PUSH1 0x4 PUSH1 0x0 PUSH2 0x100 EXP DUP2 SLOAD DUP2 PUSH20 0xFFFFFFFFFFFFFFFFFFFFFFFFFFFFFFFFFFFFFFFF MUL NOT AND SWAP1 DUP4 PUSH20 0xFFFFFFFFFFFFFFFFFFFFFFFFFFFFFFFFFFFFFFFF AND MUL OR SWAP1 SSTORE POP PUSH1 0x4 PUSH1 0x0 SWAP1 SLOAD SWAP1 PUSH2 0x100 EXP SWAP1 DIV PUSH20 0xFFFFFFFFFFFFFFFFFFFFFFFFFFFFFFFFFFFFFFFF AND PUSH20 0xFFFFFFFFFFFFFFFFFFFFFFFFFFFFFFFFFFFFFFFF AND PUSH4 0xF15D0848 DUP9 PUSH1 0x40 MLOAD DUP3 PUSH4 0xFFFFFFFF AND PUSH1 0xE0 SHL DUP2 MSTORE PUSH1 0x4 ADD PUSH2 0x6F3 SWAP2 SWAP1 PUSH2 0x1A5C JUMP JUMPDEST PUSH1 0x0 PUSH1 0x40 MLOAD DUP1 DUP4 SUB DUP2 DUP7 DUP1 EXTCODESIZE ISZERO DUP1 ISZERO PUSH2 0x70B JUMPI PUSH1 0x0 DUP1 REVERT JUMPDEST POP GAS STATICCALL ISZERO DUP1 ISZERO PUSH2 0x71F JUMPI RETURNDATASIZE PUSH1 0x0 DUP1 RETURNDATACOPY RETURNDATASIZE PUSH1 0x0 REVERT JUMPDEST POP POP POP POP PUSH1 0x40 MLOAD RETURNDATASIZE PUSH1 0x0 DUP3 RETURNDATACOPY RETURNDATASIZE PUSH1 0x1F NOT PUSH1 0x1F DUP3 ADD AND DUP3 ADD DUP1 PUSH1 0x40 MSTORE POP DUP2 ADD SWAP1 PUSH2 0x748 SWAP2 SWAP1 PUSH2 0x136E JUMP JUMPDEST SWAP6 POP POP POP POP POP POP SWAP4 SWAP3 POP POP POP JUMP JUMPDEST DUP4 DUP4 PUSH2 0x762 DUP3 DUP3 PUSH2 0xB8A JUMP JUMPDEST PUSH2 0x7A1 JUMPI PUSH1 0x40 MLOAD PUSH32 0x8C379A000000000000000000000000000000000000000000000000000000000 DUP2 MSTORE PUSH1 0x4 ADD PUSH2 0x798 SWAP1 PUSH2 0x1976 JUMP JUMPDEST PUSH1 0x40 MLOAD DUP1 SWAP2 SUB SWAP1 REVERT JUMPDEST CALLER PUSH1 0x1 PUSH1 0x0 SWAP1 SLOAD SWAP1 PUSH2 0x100 EXP SWAP1 DIV PUSH20 0xFFFFFFFFFFFFFFFFFFFFFFFFFFFFFFFFFFFFFFFF AND PUSH1 0x3 PUSH1 0x0 PUSH2 0x100 EXP DUP2 SLOAD DUP2 PUSH20 0xFFFFFFFFFFFFFFFFFFFFFFFFFFFFFFFFFFFFFFFF MUL NOT AND SWAP1 DUP4 PUSH20 0xFFFFFFFFFFFFFFFFFFFFFFFFFFFFFFFFFFFFFFFF AND MUL OR SWAP1 SSTORE POP PUSH1 0x3 PUSH1 0x0 SWAP1 SLOAD SWAP1 PUSH2 0x100 EXP SWAP1 DIV PUSH20 0xFFFFFFFFFFFFFFFFFFFFFFFFFFFFFFFFFFFFFFFF AND PUSH20 0xFFFFFFFFFFFFFFFFFFFFFFFFFFFFFFFFFFFFFFFF AND PUSH4 0x996440C6 DUP3 PUSH1 0x40 MLOAD DUP3 PUSH4 0xFFFFFFFF AND PUSH1 0xE0 SHL DUP2 MSTORE PUSH1 0x4 ADD PUSH2 0x860 SWAP2 SWAP1 PUSH2 0x18F4 JUMP JUMPDEST PUSH1 0x20 PUSH1 0x40 MLOAD DUP1 DUP4 SUB DUP2 DUP7 DUP1 EXTCODESIZE ISZERO DUP1 ISZERO PUSH2 0x878 JUMPI PUSH1 0x0 DUP1 REVERT JUMPDEST POP GAS STATICCALL ISZERO DUP1 ISZERO PUSH2 0x88C JUMPI RETURNDATASIZE PUSH1 0x0 DUP1 RETURNDATACOPY RETURNDATASIZE PUSH1 0x0 REVERT JUMPDEST POP POP POP POP PUSH1 0x40 MLOAD RETURNDATASIZE PUSH1 0x1F NOT PUSH1 0x1F DUP3 ADD AND DUP3 ADD DUP1 PUSH1 0x40 MSTORE POP DUP2 ADD SWAP1 PUSH2 0x8B0 SWAP2 SWAP1 PUSH2 0x13B7 JUMP JUMPDEST POP CALLER PUSH1 0x1 PUSH1 0x0 SWAP1 SLOAD SWAP1 PUSH2 0x100 EXP SWAP1 DIV PUSH20 0xFFFFFFFFFFFFFFFFFFFFFFFFFFFFFFFFFFFFFFFF AND PUSH1 0x3 PUSH1 0x0 PUSH2 0x100 EXP DUP2 SLOAD DUP2 PUSH20 0xFFFFFFFFFFFFFFFFFFFFFFFFFFFFFFFFFFFFFFFF MUL NOT AND SWAP1 DUP4 PUSH20 0xFFFFFFFFFFFFFFFFFFFFFFFFFFFFFFFFFFFFFFFF AND MUL OR SWAP1 SSTORE POP PUSH1 0x3 PUSH1 0x0 SWAP1 SLOAD SWAP1 PUSH2 0x100 EXP SWAP1 DIV PUSH20 0xFFFFFFFFFFFFFFFFFFFFFFFFFFFFFFFFFFFFFFFF AND PUSH20 0xFFFFFFFFFFFFFFFFFFFFFFFFFFFFFFFFFFFFFFFF AND PUSH4 0x3C779869 DUP3 PUSH1 0x40 MLOAD DUP3 PUSH4 0xFFFFFFFF AND PUSH1 0xE0 SHL DUP2 MSTORE PUSH1 0x4 ADD PUSH2 0x970 SWAP2 SWAP1 PUSH2 0x18F4 JUMP JUMPDEST PUSH1 0x20 PUSH1 0x40 MLOAD DUP1 DUP4 SUB DUP2 DUP7 DUP1 EXTCODESIZE ISZERO DUP1 ISZERO PUSH2 0x988 JUMPI PUSH1 0x0 DUP1 REVERT JUMPDEST POP GAS STATICCALL ISZERO DUP1 ISZERO PUSH2 0x99C JUMPI RETURNDATASIZE PUSH1 0x0 DUP1 RETURNDATACOPY RETURNDATASIZE PUSH1 0x0 REVERT JUMPDEST POP POP POP POP PUSH1 0x40 MLOAD RETURNDATASIZE PUSH1 0x1F NOT PUSH1 0x1F DUP3 ADD AND DUP3 ADD DUP1 PUSH1 0x40 MSTORE POP DUP2 ADD SWAP1 PUSH2 0x9C0 SWAP2 SWAP1 PUSH2 0x13B7 JUMP JUMPDEST POP PUSH1 0x0 PUSH2 0x9CC CALLER PUSH2 0xBE7 JUMP JUMPDEST SWAP1 POP PUSH1 0x0 DUP2 PUSH1 0xFF AND GT PUSH2 0xA14 JUMPI PUSH1 0x40 MLOAD PUSH32 0x8C379A000000000000000000000000000000000000000000000000000000000 DUP2 MSTORE PUSH1 0x4 ADD PUSH2 0xA0B SWAP1 PUSH2 0x19D6 JUMP JUMPDEST PUSH1 0x40 MLOAD DUP1 SWAP2 SUB SWAP1 REVERT JUMPDEST PUSH1 0x0 PUSH2 0xA41 PUSH1 0x2 PUSH1 0x0 SWAP1 SLOAD SWAP1 PUSH2 0x100 EXP SWAP1 DIV PUSH20 0xFFFFFFFFFFFFFFFFFFFFFFFFFFFFFFFFFFFFFFFF AND PUSH2 0xCFE JUMP JUMPDEST SWAP1 POP DUP1 PUSH1 0xFF AND DUP3 PUSH1 0xFF AND GT ISZERO PUSH2 0xA8C JUMPI PUSH1 0x40 MLOAD PUSH32 0x8C379A000000000000000000000000000000000000000000000000000000000 DUP2 MSTORE PUSH1 0x4 ADD PUSH2 0xA83 SWAP1 PUSH2 0x19F6 JUMP JUMPDEST PUSH1 0x40 MLOAD DUP1 SWAP2 SUB SWAP1 REVERT JUMPDEST PUSH1 0x2 PUSH1 0x0 SWAP1 SLOAD SWAP1 PUSH2 0x100 EXP SWAP1 DIV PUSH20 0xFFFFFFFFFFFFFFFFFFFFFFFFFFFFFFFFFFFFFFFF AND PUSH1 0x4 PUSH1 0x0 PUSH2 0x100 EXP DUP2 SLOAD DUP2 PUSH20 0xFFFFFFFFFFFFFFFFFFFFFFFFFFFFFFFFFFFFFFFF MUL NOT AND SWAP1 DUP4 PUSH20 0xFFFFFFFFFFFFFFFFFFFFFFFFFFFFFFFFFFFFFFFF AND MUL OR SWAP1 SSTORE POP PUSH1 0x4 PUSH1 0x0 SWAP1 SLOAD SWAP1 PUSH2 0x100 EXP SWAP1 DIV PUSH20 0xFFFFFFFFFFFFFFFFFFFFFFFFFFFFFFFFFFFFFFFF AND PUSH20 0xFFFFFFFFFFFFFFFFFFFFFFFFFFFFFFFFFFFFFFFF AND PUSH4 0x9F2527F8 DUP10 DUP10 PUSH1 0x40 MLOAD DUP4 PUSH4 0xFFFFFFFF AND PUSH1 0xE0 SHL DUP2 MSTORE PUSH1 0x4 ADD PUSH2 0xB4C SWAP3 SWAP2 SWAP1 PUSH2 0x1A32 JUMP JUMPDEST PUSH1 0x0 PUSH1 0x40 MLOAD DUP1 DUP4 SUB DUP2 PUSH1 0x0 DUP8 DUP1 EXTCODESIZE ISZERO DUP1 ISZERO PUSH2 0xB66 JUMPI PUSH1 0x0 DUP1 REVERT JUMPDEST POP GAS CALL ISZERO DUP1 ISZERO PUSH2 0xB7A JUMPI RETURNDATASIZE PUSH1 0x0 DUP1 RETURNDATACOPY RETURNDATASIZE PUSH1 0x0 REVERT JUMPDEST POP POP POP POP POP POP POP POP POP POP POP POP POP POP JUMP JUMPDEST PUSH1 0x0 DUP1 PUSH2 0xB96 DUP5 PUSH2 0xE15 JUMP JUMPDEST SWAP1 POP PUSH1 0x0 PUSH2 0xBA3 DUP3 PUSH2 0xE45 JUMP JUMPDEST SWAP1 POP CALLER PUSH20 0xFFFFFFFFFFFFFFFFFFFFFFFFFFFFFFFFFFFFFFFF AND PUSH2 0xBC6 DUP3 DUP7 PUSH2 0xE75 JUMP JUMPDEST PUSH20 0xFFFFFFFFFFFFFFFFFFFFFFFFFFFFFFFFFFFFFFFF AND EQ SWAP3 POP POP POP SWAP3 SWAP2 POP POP JUMP JUMPDEST PUSH1 0x0 PUSH1 0x1 PUSH1 0x0 SWAP1 SLOAD SWAP1 PUSH2 0x100 EXP SWAP1 DIV PUSH20 0xFFFFFFFFFFFFFFFFFFFFFFFFFFFFFFFFFFFFFFFF AND PUSH1 0x3 PUSH1 0x0 PUSH2 0x100 EXP DUP2 SLOAD DUP2 PUSH20 0xFFFFFFFFFFFFFFFFFFFFFFFFFFFFFFFFFFFFFFFF MUL NOT AND SWAP1 DUP4 PUSH20 0xFFFFFFFFFFFFFFFFFFFFFFFFFFFFFFFFFFFFFFFF AND MUL OR SWAP1 SSTORE POP PUSH1 0x3 PUSH1 0x0 SWAP1 SLOAD SWAP1 PUSH2 0x100 EXP SWAP1 DIV PUSH20 0xFFFFFFFFFFFFFFFFFFFFFFFFFFFFFFFFFFFFFFFF AND PUSH20 0xFFFFFFFFFFFFFFFFFFFFFFFFFFFFFFFFFFFFFFFF AND PUSH4 0x665057EF DUP4 PUSH1 0x40 MLOAD DUP3 PUSH4 0xFFFFFFFF AND PUSH1 0xE0 SHL DUP2 MSTORE PUSH1 0x4 ADD PUSH2 0xCA7 SWAP2 SWAP1 PUSH2 0x18F4 JUMP JUMPDEST PUSH1 0x20 PUSH1 0x40 MLOAD DUP1 DUP4 SUB DUP2 DUP7 DUP1 EXTCODESIZE ISZERO DUP1 ISZERO PUSH2 0xCBF JUMPI PUSH1 0x0 DUP1 REVERT JUMPDEST POP GAS STATICCALL ISZERO DUP1 ISZERO PUSH2 0xCD3 JUMPI RETURNDATASIZE PUSH1 0x0 DUP1 RETURNDATACOPY RETURNDATASIZE PUSH1 0x0 REVERT JUMPDEST POP POP POP POP PUSH1 0x40 MLOAD RETURNDATASIZE PUSH1 0x1F NOT PUSH1 0x1F DUP3 ADD AND DUP3 ADD DUP1 PUSH1 0x40 MSTORE POP DUP2 ADD SWAP1 PUSH2 0xCF7 SWAP2 SWAP1 PUSH2 0x153D JUMP JUMPDEST SWAP1 POP SWAP2 SWAP1 POP JUMP JUMPDEST PUSH1 0x0 PUSH1 0x1 PUSH1 0x0 SWAP1 SLOAD SWAP1 PUSH2 0x100 EXP SWAP1 DIV PUSH20 0xFFFFFFFFFFFFFFFFFFFFFFFFFFFFFFFFFFFFFFFF AND PUSH1 0x3 PUSH1 0x0 PUSH2 0x100 EXP DUP2 SLOAD DUP2 PUSH20 0xFFFFFFFFFFFFFFFFFFFFFFFFFFFFFFFFFFFFFFFF MUL NOT AND SWAP1 DUP4 PUSH20 0xFFFFFFFFFFFFFFFFFFFFFFFFFFFFFFFFFFFFFFFF AND MUL OR SWAP1 SSTORE POP PUSH1 0x3 PUSH1 0x0 SWAP1 SLOAD SWAP1 PUSH2 0x100 EXP SWAP1 DIV PUSH20 0xFFFFFFFFFFFFFFFFFFFFFFFFFFFFFFFFFFFFFFFF AND PUSH20 0xFFFFFFFFFFFFFFFFFFFFFFFFFFFFFFFFFFFFFFFF AND PUSH4 0xF1AC2D66 DUP4 PUSH1 0x40 MLOAD DUP3 PUSH4 0xFFFFFFFF AND PUSH1 0xE0 SHL DUP2 MSTORE PUSH1 0x4 ADD PUSH2 0xDBE SWAP2 SWAP1 PUSH2 0x18F4 JUMP JUMPDEST PUSH1 0x20 PUSH1 0x40 MLOAD DUP1 DUP4 SUB DUP2 DUP7 DUP1 EXTCODESIZE ISZERO DUP1 ISZERO PUSH2 0xDD6 JUMPI PUSH1 0x0 DUP1 REVERT JUMPDEST POP GAS STATICCALL ISZERO DUP1 ISZERO PUSH2 0xDEA JUMPI RETURNDATASIZE PUSH1 0x0 DUP1 RETURNDATACOPY RETURNDATASIZE PUSH1 0x0 REVERT JUMPDEST POP POP POP POP PUSH1 0x40 MLOAD RETURNDATASIZE PUSH1 0x1F NOT PUSH1 0x1F DUP3 ADD AND DUP3 ADD DUP1 PUSH1 0x40 MSTORE POP DUP2 ADD SWAP1 PUSH2 0xE0E SWAP2 SWAP1 PUSH2 0x153D JUMP JUMPDEST SWAP1 POP SWAP2 SWAP1 POP JUMP JUMPDEST PUSH1 0x0 DUP2 PUSH1 0x40 MLOAD PUSH1 0x20 ADD PUSH2 0xE28 SWAP2 SWAP1 PUSH2 0x18B7 JUMP JUMPDEST PUSH1 0x40 MLOAD PUSH1 0x20 DUP2 DUP4 SUB SUB DUP2 MSTORE SWAP1 PUSH1 0x40 MSTORE DUP1 MLOAD SWAP1 PUSH1 0x20 ADD KECCAK256 SWAP1 POP SWAP2 SWAP1 POP JUMP JUMPDEST PUSH1 0x0 DUP2 PUSH1 0x40 MLOAD PUSH1 0x20 ADD PUSH2 0xE58 SWAP2 SWAP1 PUSH2 0x18CE JUMP JUMPDEST PUSH1 0x40 MLOAD PUSH1 0x20 DUP2 DUP4 SUB SUB DUP2 MSTORE SWAP1 PUSH1 0x40 MSTORE DUP1 MLOAD SWAP1 PUSH1 0x20 ADD KECCAK256 SWAP1 POP SWAP2 SWAP1 POP JUMP JUMPDEST PUSH1 0x0 DUP1 PUSH1 0x0 DUP1 PUSH2 0xE84 DUP6 PUSH2 0xEE4 JUMP JUMPDEST SWAP3 POP SWAP3 POP SWAP3 POP PUSH1 0x1 DUP7 DUP3 DUP6 DUP6 PUSH1 0x40 MLOAD PUSH1 0x0 DUP2 MSTORE PUSH1 0x20 ADD PUSH1 0x40 MSTORE PUSH1 0x40 MLOAD PUSH2 0xEAD SWAP5 SWAP4 SWAP3 SWAP2 SWAP1 PUSH2 0x1931 JUMP JUMPDEST PUSH1 0x20 PUSH1 0x40 MLOAD PUSH1 0x20 DUP2 SUB SWAP1 DUP1 DUP5 SUB SWAP1 DUP6 GAS STATICCALL ISZERO DUP1 ISZERO PUSH2 0xECF JUMPI RETURNDATASIZE PUSH1 0x0 DUP1 RETURNDATACOPY RETURNDATASIZE PUSH1 0x0 REVERT JUMPDEST POP POP POP PUSH1 0x20 PUSH1 0x40 MLOAD SUB MLOAD SWAP4 POP POP POP POP SWAP3 SWAP2 POP POP JUMP JUMPDEST PUSH1 0x0 DUP1 PUSH1 0x0 PUSH1 0x41 DUP5 MLOAD EQ PUSH2 0xF2D JUMPI PUSH1 0x40 MLOAD PUSH32 0x8C379A000000000000000000000000000000000000000000000000000000000 DUP2 MSTORE PUSH1 0x4 ADD PUSH2 0xF24 SWAP1 PUSH2 0x1996 JUMP JUMPDEST PUSH1 0x40 MLOAD DUP1 SWAP2 SUB SWAP1 REVERT JUMPDEST PUSH1 0x20 DUP5 ADD MLOAD SWAP3 POP PUSH1 0x40 DUP5 ADD MLOAD SWAP2 POP PUSH1 0x60 DUP5 ADD MLOAD PUSH1 0x0 BYTE SWAP1 POP SWAP2 SWAP4 SWAP1 SWAP3 POP JUMP JUMPDEST PUSH1 0x40 MLOAD DUP1 PUSH2 0x100 ADD PUSH1 0x40 MSTORE DUP1 PUSH1 0x0 DUP2 MSTORE PUSH1 0x20 ADD PUSH1 0x0 DUP2 MSTORE PUSH1 0x20 ADD PUSH1 0x0 DUP2 MSTORE PUSH1 0x20 ADD PUSH1 0x0 DUP2 MSTORE PUSH1 0x20 ADD PUSH1 0x0 DUP1 NOT AND DUP2 MSTORE PUSH1 0x20 ADD PUSH1 0x0 DUP1 NOT AND DUP2 MSTORE PUSH1 0x20 ADD PUSH1 0x0 DUP1 NOT AND DUP2 MSTORE PUSH1 0x20 ADD PUSH1 0x0 DUP1 NOT AND DUP2 MSTORE POP SWAP1 JUMP JUMPDEST PUSH1 0x0 PUSH2 0xFB0 PUSH2 0xFAB DUP5 PUSH2 0x1A9C JUMP JUMPDEST PUSH2 0x1A77 JUMP JUMPDEST SWAP1 POP DUP1 DUP4 DUP3 MSTORE PUSH1 0x20 DUP3 ADD SWAP1 POP DUP3 DUP6 PUSH2 0x100 DUP7 MUL DUP3 ADD GT ISZERO PUSH2 0xFD4 JUMPI PUSH2 0xFD3 PUSH2 0x1CB7 JUMP JUMPDEST JUMPDEST PUSH1 0x0 JUMPDEST DUP6 DUP2 LT ISZERO PUSH2 0x1005 JUMPI DUP2 PUSH2 0xFEA DUP9 DUP3 PUSH2 0x1250 JUMP JUMPDEST DUP5 MSTORE PUSH1 0x20 DUP5 ADD SWAP4 POP PUSH2 0x100 DUP4 ADD SWAP3 POP POP PUSH1 0x1 DUP2 ADD SWAP1 POP PUSH2 0xFD7 JUMP JUMPDEST POP POP POP SWAP4 SWAP3 POP POP POP JUMP JUMPDEST PUSH1 0x0 PUSH2 0x1022 PUSH2 0x101D DUP5 PUSH2 0x1AC8 JUMP JUMPDEST PUSH2 0x1A77 JUMP JUMPDEST SWAP1 POP DUP3 DUP2 MSTORE PUSH1 0x20 DUP2 ADD DUP5 DUP5 DUP5 ADD GT ISZERO PUSH2 0x103E JUMPI PUSH2 0x103D PUSH2 0x1CBC JUMP JUMPDEST JUMPDEST PUSH2 0x1049 DUP5 DUP3 DUP6 PUSH2 0x1C01 JUMP JUMPDEST POP SWAP4 SWAP3 POP POP POP JUMP JUMPDEST PUSH1 0x0 PUSH2 0x1064 PUSH2 0x105F DUP5 PUSH2 0x1AF9 JUMP JUMPDEST PUSH2 0x1A77 JUMP JUMPDEST SWAP1 POP DUP3 DUP2 MSTORE PUSH1 0x20 DUP2 ADD DUP5 DUP5 DUP5 ADD GT ISZERO PUSH2 0x1080 JUMPI PUSH2 0x107F PUSH2 0x1CBC JUMP JUMPDEST JUMPDEST PUSH2 0x108B DUP5 DUP3 DUP6 PUSH2 0x1C01 JUMP JUMPDEST POP SWAP4 SWAP3 POP POP POP JUMP JUMPDEST PUSH1 0x0 DUP3 PUSH1 0x1F DUP4 ADD SLT PUSH2 0x10A8 JUMPI PUSH2 0x10A7 PUSH2 0x1CAD JUMP JUMPDEST JUMPDEST DUP2 MLOAD PUSH2 0x10B8 DUP5 DUP3 PUSH1 0x20 DUP7 ADD PUSH2 0xF9D JUMP JUMPDEST SWAP2 POP POP SWAP3 SWAP2 POP POP JUMP JUMPDEST PUSH1 0x0 DUP2 MLOAD SWAP1 POP PUSH2 0x10D0 DUP2 PUSH2 0x1E6A JUMP JUMPDEST SWAP3 SWAP2 POP POP JUMP JUMPDEST PUSH1 0x0 DUP2 CALLDATALOAD SWAP1 POP PUSH2 0x10E5 DUP2 PUSH2 0x1E81 JUMP JUMPDEST SWAP3 SWAP2 POP POP JUMP JUMPDEST PUSH1 0x0 DUP2 MLOAD SWAP1 POP PUSH2 0x10FA DUP2 PUSH2 0x1E81 JUMP JUMPDEST SWAP3 SWAP2 POP POP JUMP JUMPDEST PUSH1 0x0 DUP3 PUSH1 0x1F DUP4 ADD SLT PUSH2 0x1115 JUMPI PUSH2 0x1114 PUSH2 0x1CAD JUMP JUMPDEST JUMPDEST DUP2 CALLDATALOAD PUSH2 0x1125 DUP5 DUP3 PUSH1 0x20 DUP7 ADD PUSH2 0x100F JUMP JUMPDEST SWAP2 POP POP SWAP3 SWAP2 POP POP JUMP JUMPDEST PUSH1 0x0 DUP2 CALLDATALOAD SWAP1 POP PUSH2 0x113D DUP2 PUSH2 0x1E98 JUMP JUMPDEST SWAP3 SWAP2 POP POP JUMP JUMPDEST PUSH1 0x0 DUP2 MLOAD SWAP1 POP PUSH2 0x1152 DUP2 PUSH2 0x1E98 JUMP JUMPDEST SWAP3 SWAP2 POP POP JUMP JUMPDEST PUSH1 0x0 DUP3 PUSH1 0x1F DUP4 ADD SLT PUSH2 0x116D JUMPI PUSH2 0x116C PUSH2 0x1CAD JUMP JUMPDEST JUMPDEST DUP2 CALLDATALOAD PUSH2 0x117D DUP5 DUP3 PUSH1 0x20 DUP7 ADD PUSH2 0x1051 JUMP JUMPDEST SWAP2 POP POP SWAP3 SWAP2 POP POP JUMP JUMPDEST PUSH1 0x0 PUSH2 0x100 DUP3 DUP5 SUB SLT ISZERO PUSH2 0x119D JUMPI PUSH2 0x119C PUSH2 0x1CB2 JUMP JUMPDEST JUMPDEST PUSH2 0x11A8 PUSH2 0x100 PUSH2 0x1A77 JUMP JUMPDEST SWAP1 POP PUSH1 0x0 PUSH2 0x11B8 DUP5 DUP3 DUP6 ADD PUSH2 0x132F JUMP JUMPDEST PUSH1 0x0 DUP4 ADD MSTORE POP PUSH1 0x20 PUSH2 0x11CC DUP5 DUP3 DUP6 ADD PUSH2 0x112E JUMP JUMPDEST PUSH1 0x20 DUP4 ADD MSTORE POP PUSH1 0x40 PUSH2 0x11E0 DUP5 DUP3 DUP6 ADD PUSH2 0x112E JUMP JUMPDEST PUSH1 0x40 DUP4 ADD MSTORE POP PUSH1 0x60 PUSH2 0x11F4 DUP5 DUP3 DUP6 ADD PUSH2 0x112E JUMP JUMPDEST PUSH1 0x60 DUP4 ADD MSTORE POP PUSH1 0x80 PUSH2 0x1208 DUP5 DUP3 DUP6 ADD PUSH2 0x10D6 JUMP JUMPDEST PUSH1 0x80 DUP4 ADD MSTORE POP PUSH1 0xA0 PUSH2 0x121C DUP5 DUP3 DUP6 ADD PUSH2 0x10D6 JUMP JUMPDEST PUSH1 0xA0 DUP4 ADD MSTORE POP PUSH1 0xC0 PUSH2 0x1230 DUP5 DUP3 DUP6 ADD PUSH2 0x10D6 JUMP JUMPDEST PUSH1 0xC0 DUP4 ADD MSTORE POP PUSH1 0xE0 PUSH2 0x1244 DUP5 DUP3 DUP6 ADD PUSH2 0x10D6 JUMP JUMPDEST PUSH1 0xE0 DUP4 ADD MSTORE POP SWAP3 SWAP2 POP POP JUMP JUMPDEST PUSH1 0x0 PUSH2 0x100 DUP3 DUP5 SUB SLT ISZERO PUSH2 0x1267 JUMPI PUSH2 0x1266 PUSH2 0x1CB2 JUMP JUMPDEST JUMPDEST PUSH2 0x1272 PUSH2 0x100 PUSH2 0x1A77 JUMP JUMPDEST SWAP1 POP PUSH1 0x0 PUSH2 0x1282 DUP5 DUP3 DUP6 ADD PUSH2 0x1344 JUMP JUMPDEST PUSH1 0x0 DUP4 ADD MSTORE POP PUSH1 0x20 PUSH2 0x1296 DUP5 DUP3 DUP6 ADD PUSH2 0x1143 JUMP JUMPDEST PUSH1 0x20 DUP4 ADD MSTORE POP PUSH1 0x40 PUSH2 0x12AA DUP5 DUP3 DUP6 ADD PUSH2 0x1143 JUMP JUMPDEST PUSH1 0x40 DUP4 ADD MSTORE POP PUSH1 0x60 PUSH2 0x12BE DUP5 DUP3 DUP6 ADD PUSH2 0x1143 JUMP JUMPDEST PUSH1 0x60 DUP4 ADD MSTORE POP PUSH1 0x80 PUSH2 0x12D2 DUP5 DUP3 DUP6 ADD PUSH2 0x10EB JUMP JUMPDEST PUSH1 0x80 DUP4 ADD MSTORE POP PUSH1 0xA0 PUSH2 0x12E6 DUP5 DUP3 DUP6 ADD PUSH2 0x10EB JUMP JUMPDEST PUSH1 0xA0 DUP4 ADD MSTORE POP PUSH1 0xC0 PUSH2 0x12FA DUP5 DUP3 DUP6 ADD PUSH2 0x10EB JUMP JUMPDEST PUSH1 0xC0 DUP4 ADD MSTORE POP PUSH1 0xE0 PUSH2 0x130E DUP5 DUP3 DUP6 ADD PUSH2 0x10EB JUMP JUMPDEST PUSH1 0xE0 DUP4 ADD MSTORE POP SWAP3 SWAP2 POP POP JUMP JUMPDEST PUSH1 0x0 DUP2 CALLDATALOAD SWAP1 POP PUSH2 0x1329 DUP2 PUSH2 0x1EAF JUMP JUMPDEST SWAP3 SWAP2 POP POP JUMP JUMPDEST PUSH1 0x0 DUP2 CALLDATALOAD SWAP1 POP PUSH2 0x133E DUP2 PUSH2 0x1EC6 JUMP JUMPDEST SWAP3 SWAP2 POP POP JUMP JUMPDEST PUSH1 0x0 DUP2 MLOAD SWAP1 POP PUSH2 0x1353 DUP2 PUSH2 0x1EC6 JUMP JUMPDEST SWAP3 SWAP2 POP POP JUMP JUMPDEST PUSH1 0x0 DUP2 MLOAD SWAP1 POP PUSH2 0x1368 DUP2 PUSH2 0x1EDD JUMP JUMPDEST SWAP3 SWAP2 POP POP JUMP JUMPDEST PUSH1 0x0 PUSH1 0x20 DUP3 DUP5 SUB SLT ISZERO PUSH2 0x1384 JUMPI PUSH2 0x1383 PUSH2 0x1CC6 JUMP JUMPDEST JUMPDEST PUSH1 0x0 DUP3 ADD MLOAD PUSH8 0xFFFFFFFFFFFFFFFF DUP2 GT ISZERO PUSH2 0x13A2 JUMPI PUSH2 0x13A1 PUSH2 0x1CC1 JUMP JUMPDEST JUMPDEST PUSH2 0x13AE DUP5 DUP3 DUP6 ADD PUSH2 0x1093 JUMP JUMPDEST SWAP2 POP POP SWAP3 SWAP2 POP POP JUMP JUMPDEST PUSH1 0x0 PUSH1 0x20 DUP3 DUP5 SUB SLT ISZERO PUSH2 0x13CD JUMPI PUSH2 0x13CC PUSH2 0x1CC6 JUMP JUMPDEST JUMPDEST PUSH1 0x0 PUSH2 0x13DB DUP5 DUP3 DUP6 ADD PUSH2 0x10C1 JUMP JUMPDEST SWAP2 POP POP SWAP3 SWAP2 POP POP JUMP JUMPDEST PUSH1 0x0 DUP1 PUSH1 0x0 DUP1 PUSH2 0x160 DUP6 DUP8 SUB SLT ISZERO PUSH2 0x13FF JUMPI PUSH2 0x13FE PUSH2 0x1CC6 JUMP JUMPDEST JUMPDEST PUSH1 0x0 DUP6 ADD CALLDATALOAD PUSH8 0xFFFFFFFFFFFFFFFF DUP2 GT ISZERO PUSH2 0x141D JUMPI PUSH2 0x141C PUSH2 0x1CC1 JUMP JUMPDEST JUMPDEST PUSH2 0x1429 DUP8 DUP3 DUP9 ADD PUSH2 0x1158 JUMP JUMPDEST SWAP5 POP POP PUSH1 0x20 DUP6 ADD CALLDATALOAD PUSH8 0xFFFFFFFFFFFFFFFF DUP2 GT ISZERO PUSH2 0x144A JUMPI PUSH2 0x1449 PUSH2 0x1CC1 JUMP JUMPDEST JUMPDEST PUSH2 0x1456 DUP8 DUP3 DUP9 ADD PUSH2 0x1100 JUMP JUMPDEST SWAP4 POP POP PUSH1 0x40 PUSH2 0x1467 DUP8 DUP3 DUP9 ADD PUSH2 0x131A JUMP JUMPDEST SWAP3 POP POP PUSH1 0x60 PUSH2 0x1478 DUP8 DUP3 DUP9 ADD PUSH2 0x1186 JUMP JUMPDEST SWAP2 POP POP SWAP3 SWAP6 SWAP2 SWAP5 POP SWAP3 POP JUMP JUMPDEST PUSH1 0x0 DUP1 PUSH1 0x0 PUSH1 0x60 DUP5 DUP7 SUB SLT ISZERO PUSH2 0x149D JUMPI PUSH2 0x149C PUSH2 0x1CC6 JUMP JUMPDEST JUMPDEST PUSH1 0x0 DUP5 ADD CALLDATALOAD PUSH8 0xFFFFFFFFFFFFFFFF DUP2 GT ISZERO PUSH2 0x14BB JUMPI PUSH2 0x14BA PUSH2 0x1CC1 JUMP JUMPDEST JUMPDEST PUSH2 0x14C7 DUP7 DUP3 DUP8 ADD PUSH2 0x1158 JUMP JUMPDEST SWAP4 POP POP PUSH1 0x20 DUP5 ADD CALLDATALOAD PUSH8 0xFFFFFFFFFFFFFFFF DUP2 GT ISZERO PUSH2 0x14E8 JUMPI PUSH2 0x14E7 PUSH2 0x1CC1 JUMP JUMPDEST JUMPDEST PUSH2 0x14F4 DUP7 DUP3 DUP8 ADD PUSH2 0x1100 JUMP JUMPDEST SWAP3 POP POP PUSH1 0x40 PUSH2 0x1505 DUP7 DUP3 DUP8 ADD PUSH2 0x132F JUMP JUMPDEST SWAP2 POP POP SWAP3 POP SWAP3 POP SWAP3 JUMP JUMPDEST PUSH1 0x0 PUSH2 0x100 DUP3 DUP5 SUB SLT ISZERO PUSH2 0x1526 JUMPI PUSH2 0x1525 PUSH2 0x1CC6 JUMP JUMPDEST JUMPDEST PUSH1 0x0 PUSH2 0x1534 DUP5 DUP3 DUP6 ADD PUSH2 0x1250 JUMP JUMPDEST SWAP2 POP POP SWAP3 SWAP2 POP POP JUMP JUMPDEST PUSH1 0x0 PUSH1 0x20 DUP3 DUP5 SUB SLT ISZERO PUSH2 0x1553 JUMPI PUSH2 0x1552 PUSH2 0x1CC6 JUMP JUMPDEST JUMPDEST PUSH1 0x0 PUSH2 0x1561 DUP5 DUP3 DUP6 ADD PUSH2 0x1359 JUMP JUMPDEST SWAP2 POP POP SWAP3 SWAP2 POP POP JUMP JUMPDEST PUSH1 0x0 PUSH2 0x1576 DUP4 DUP4 PUSH2 0x1737 JUMP JUMPDEST PUSH2 0x100 DUP4 ADD SWAP1 POP SWAP3 SWAP2 POP POP JUMP JUMPDEST PUSH2 0x158C DUP2 PUSH2 0x1B8A JUMP JUMPDEST DUP3 MSTORE POP POP JUMP JUMPDEST PUSH1 0x0 PUSH2 0x159D DUP3 PUSH2 0x1B3A JUMP JUMPDEST PUSH2 0x15A7 DUP2 DUP6 PUSH2 0x1B5D JUMP JUMPDEST SWAP4 POP PUSH2 0x15B2 DUP4 PUSH2 0x1B2A JUMP JUMPDEST DUP1 PUSH1 0x0 JUMPDEST DUP4 DUP2 LT ISZERO PUSH2 0x15E3 JUMPI DUP2 MLOAD PUSH2 0x15CA DUP9 DUP3 PUSH2 0x156A JUMP JUMPDEST SWAP8 POP PUSH2 0x15D5 DUP4 PUSH2 0x1B50 JUMP JUMPDEST SWAP3 POP POP PUSH1 0x1 DUP2 ADD SWAP1 POP PUSH2 0x15B6 JUMP JUMPDEST POP DUP6 SWAP4 POP POP POP POP SWAP3 SWAP2 POP POP JUMP JUMPDEST PUSH2 0x15F9 DUP2 PUSH2 0x1BA8 JUMP JUMPDEST DUP3 MSTORE POP POP JUMP JUMPDEST PUSH2 0x1608 DUP2 PUSH2 0x1BA8 JUMP JUMPDEST DUP3 MSTORE POP POP JUMP JUMPDEST PUSH2 0x161F PUSH2 0x161A DUP3 PUSH2 0x1BA8 JUMP JUMPDEST PUSH2 0x1C74 JUMP JUMPDEST DUP3 MSTORE POP POP JUMP JUMPDEST PUSH2 0x162E DUP2 PUSH2 0x1BB2 JUMP JUMPDEST DUP3 MSTORE POP POP JUMP JUMPDEST PUSH1 0x0 PUSH2 0x163F DUP3 PUSH2 0x1B45 JUMP JUMPDEST PUSH2 0x1649 DUP2 DUP6 PUSH2 0x1B7F JUMP JUMPDEST SWAP4 POP PUSH2 0x1659 DUP2 DUP6 PUSH1 0x20 DUP7 ADD PUSH2 0x1C10 JUMP JUMPDEST DUP1 DUP5 ADD SWAP2 POP POP SWAP3 SWAP2 POP POP JUMP JUMPDEST PUSH1 0x0 PUSH2 0x1672 PUSH1 0x1E DUP4 PUSH2 0x1B6E JUMP JUMPDEST SWAP2 POP PUSH2 0x167D DUP3 PUSH2 0x1CDC JUMP JUMPDEST PUSH1 0x20 DUP3 ADD SWAP1 POP SWAP2 SWAP1 POP JUMP JUMPDEST PUSH1 0x0 PUSH2 0x1695 PUSH1 0x1C DUP4 PUSH2 0x1B7F JUMP JUMPDEST SWAP2 POP PUSH2 0x16A0 DUP3 PUSH2 0x1D05 JUMP JUMPDEST PUSH1 0x1C DUP3 ADD SWAP1 POP SWAP2 SWAP1 POP JUMP JUMPDEST PUSH1 0x0 PUSH2 0x16B8 PUSH1 0x18 DUP4 PUSH2 0x1B6E JUMP JUMPDEST SWAP2 POP PUSH2 0x16C3 DUP3 PUSH2 0x1D2E JUMP JUMPDEST PUSH1 0x20 DUP3 ADD SWAP1 POP SWAP2 SWAP1 POP JUMP JUMPDEST PUSH1 0x0 PUSH2 0x16DB PUSH1 0x41 DUP4 PUSH2 0x1B6E JUMP JUMPDEST SWAP2 POP PUSH2 0x16E6 DUP3 PUSH2 0x1D57 JUMP JUMPDEST PUSH1 0x60 DUP3 ADD SWAP1 POP SWAP2 SWAP1 POP JUMP JUMPDEST PUSH1 0x0 PUSH2 0x16FE PUSH1 0xE DUP4 PUSH2 0x1B6E JUMP JUMPDEST SWAP2 POP PUSH2 0x1709 DUP3 PUSH2 0x1DCC JUMP JUMPDEST PUSH1 0x20 DUP3 ADD SWAP1 POP SWAP2 SWAP1 POP JUMP JUMPDEST PUSH1 0x0 PUSH2 0x1721 PUSH1 0x41 DUP4 PUSH2 0x1B6E JUMP JUMPDEST SWAP2 POP PUSH2 0x172C DUP3 PUSH2 0x1DF5 JUMP JUMPDEST PUSH1 0x60 DUP3 ADD SWAP1 POP SWAP2 SWAP1 POP JUMP JUMPDEST PUSH2 0x100 DUP3 ADD PUSH1 0x0 DUP3 ADD MLOAD PUSH2 0x174E PUSH1 0x0 DUP6 ADD DUP3 PUSH2 0x188A JUMP JUMPDEST POP PUSH1 0x20 DUP3 ADD MLOAD PUSH2 0x1761 PUSH1 0x20 DUP6 ADD DUP3 PUSH2 0x1625 JUMP JUMPDEST POP PUSH1 0x40 DUP3 ADD MLOAD PUSH2 0x1774 PUSH1 0x40 DUP6 ADD DUP3 PUSH2 0x1625 JUMP JUMPDEST POP PUSH1 0x60 DUP3 ADD MLOAD PUSH2 0x1787 PUSH1 0x60 DUP6 ADD DUP3 PUSH2 0x1625 JUMP JUMPDEST POP PUSH1 0x80 DUP3 ADD MLOAD PUSH2 0x179A PUSH1 0x80 DUP6 ADD DUP3 PUSH2 0x15F0 JUMP JUMPDEST POP PUSH1 0xA0 DUP3 ADD MLOAD PUSH2 0x17AD PUSH1 0xA0 DUP6 ADD DUP3 PUSH2 0x15F0 JUMP JUMPDEST POP PUSH1 0xC0 DUP3 ADD MLOAD PUSH2 0x17C0 PUSH1 0xC0 DUP6 ADD DUP3 PUSH2 0x15F0 JUMP JUMPDEST POP PUSH1 0xE0 DUP3 ADD MLOAD PUSH2 0x17D3 PUSH1 0xE0 DUP6 ADD DUP3 PUSH2 0x15F0 JUMP JUMPDEST POP POP POP POP JUMP JUMPDEST PUSH2 0x100 DUP3 ADD PUSH1 0x0 DUP3 ADD MLOAD PUSH2 0x17F0 PUSH1 0x0 DUP6 ADD DUP3 PUSH2 0x188A JUMP JUMPDEST POP PUSH1 0x20 DUP3 ADD MLOAD PUSH2 0x1803 PUSH1 0x20 DUP6 ADD DUP3 PUSH2 0x1625 JUMP JUMPDEST POP PUSH1 0x40 DUP3 ADD MLOAD PUSH2 0x1816 PUSH1 0x40 DUP6 ADD DUP3 PUSH2 0x1625 JUMP JUMPDEST POP PUSH1 0x60 DUP3 ADD MLOAD PUSH2 0x1829 PUSH1 0x60 DUP6 ADD DUP3 PUSH2 0x1625 JUMP JUMPDEST POP PUSH1 0x80 DUP3 ADD MLOAD PUSH2 0x183C PUSH1 0x80 DUP6 ADD DUP3 PUSH2 0x15F0 JUMP JUMPDEST POP PUSH1 0xA0 DUP3 ADD MLOAD PUSH2 0x184F PUSH1 0xA0 DUP6 ADD DUP3 PUSH2 0x15F0 JUMP JUMPDEST POP PUSH1 0xC0 DUP3 ADD MLOAD PUSH2 0x1862 PUSH1 0xC0 DUP6 ADD DUP3 PUSH2 0x15F0 JUMP JUMPDEST POP PUSH1 0xE0 DUP3 ADD MLOAD PUSH2 0x1875 PUSH1 0xE0 DUP6 ADD DUP3 PUSH2 0x15F0 JUMP JUMPDEST POP POP POP POP JUMP JUMPDEST PUSH2 0x1884 DUP2 PUSH2 0x1BBC JUMP JUMPDEST DUP3 MSTORE POP POP JUMP JUMPDEST PUSH2 0x1893 DUP2 PUSH2 0x1BEA JUMP JUMPDEST DUP3 MSTORE POP POP JUMP JUMPDEST PUSH2 0x18A2 DUP2 PUSH2 0x1BEA JUMP JUMPDEST DUP3 MSTORE POP POP JUMP JUMPDEST PUSH2 0x18B1 DUP2 PUSH2 0x1BF4 JUMP JUMPDEST DUP3 MSTORE POP POP JUMP JUMPDEST PUSH1 0x0 PUSH2 0x18C3 DUP3 DUP5 PUSH2 0x1634 JUMP JUMPDEST SWAP2 POP DUP2 SWAP1 POP SWAP3 SWAP2 POP POP JUMP JUMPDEST PUSH1 0x0 PUSH2 0x18D9 DUP3 PUSH2 0x1688 JUMP JUMPDEST SWAP2 POP PUSH2 0x18E5 DUP3 DUP5 PUSH2 0x160E JUMP JUMPDEST PUSH1 0x20 DUP3 ADD SWAP2 POP DUP2 SWAP1 POP SWAP3 SWAP2 POP POP JUMP JUMPDEST PUSH1 0x0 PUSH1 0x20 DUP3 ADD SWAP1 POP PUSH2 0x1909 PUSH1 0x0 DUP4 ADD DUP5 PUSH2 0x1583 JUMP JUMPDEST SWAP3 SWAP2 POP POP JUMP JUMPDEST PUSH1 0x0 PUSH1 0x20 DUP3 ADD SWAP1 POP DUP2 DUP2 SUB PUSH1 0x0 DUP4 ADD MSTORE PUSH2 0x1929 DUP2 DUP5 PUSH2 0x1592 JUMP JUMPDEST SWAP1 POP SWAP3 SWAP2 POP POP JUMP JUMPDEST PUSH1 0x0 PUSH1 0x80 DUP3 ADD SWAP1 POP PUSH2 0x1946 PUSH1 0x0 DUP4 ADD DUP8 PUSH2 0x15FF JUMP JUMPDEST PUSH2 0x1953 PUSH1 0x20 DUP4 ADD DUP7 PUSH2 0x18A8 JUMP JUMPDEST PUSH2 0x1960 PUSH1 0x40 DUP4 ADD DUP6 PUSH2 0x15FF JUMP JUMPDEST PUSH2 0x196D PUSH1 0x60 DUP4 ADD DUP5 PUSH2 0x15FF JUMP JUMPDEST SWAP6 SWAP5 POP POP POP POP POP JUMP JUMPDEST PUSH1 0x0 PUSH1 0x20 DUP3 ADD SWAP1 POP DUP2 DUP2 SUB PUSH1 0x0 DUP4 ADD MSTORE PUSH2 0x198F DUP2 PUSH2 0x1665 JUMP JUMPDEST SWAP1 POP SWAP2 SWAP1 POP JUMP JUMPDEST PUSH1 0x0 PUSH1 0x20 DUP3 ADD SWAP1 POP DUP2 DUP2 SUB PUSH1 0x0 DUP4 ADD MSTORE PUSH2 0x19AF DUP2 PUSH2 0x16AB JUMP JUMPDEST SWAP1 POP SWAP2 SWAP1 POP JUMP JUMPDEST PUSH1 0x0 PUSH1 0x20 DUP3 ADD SWAP1 POP DUP2 DUP2 SUB PUSH1 0x0 DUP4 ADD MSTORE PUSH2 0x19CF DUP2 PUSH2 0x16CE JUMP JUMPDEST SWAP1 POP SWAP2 SWAP1 POP JUMP JUMPDEST PUSH1 0x0 PUSH1 0x20 DUP3 ADD SWAP1 POP DUP2 DUP2 SUB PUSH1 0x0 DUP4 ADD MSTORE PUSH2 0x19EF DUP2 PUSH2 0x16F1 JUMP JUMPDEST SWAP1 POP SWAP2 SWAP1 POP JUMP JUMPDEST PUSH1 0x0 PUSH1 0x20 DUP3 ADD SWAP1 POP DUP2 DUP2 SUB PUSH1 0x0 DUP4 ADD MSTORE PUSH2 0x1A0F DUP2 PUSH2 0x1714 JUMP JUMPDEST SWAP1 POP SWAP2 SWAP1 POP JUMP JUMPDEST PUSH1 0x0 PUSH2 0x100 DUP3 ADD SWAP1 POP PUSH2 0x1A2C PUSH1 0x0 DUP4 ADD DUP5 PUSH2 0x17D9 JUMP JUMPDEST SWAP3 SWAP2 POP POP JUMP JUMPDEST PUSH1 0x0 PUSH2 0x120 DUP3 ADD SWAP1 POP PUSH2 0x1A48 PUSH1 0x0 DUP4 ADD DUP6 PUSH2 0x187B JUMP JUMPDEST PUSH2 0x1A55 PUSH1 0x20 DUP4 ADD DUP5 PUSH2 0x17D9 JUMP JUMPDEST SWAP4 SWAP3 POP POP POP JUMP JUMPDEST PUSH1 0x0 PUSH1 0x20 DUP3 ADD SWAP1 POP PUSH2 0x1A71 PUSH1 0x0 DUP4 ADD DUP5 PUSH2 0x1899 JUMP JUMPDEST SWAP3 SWAP2 POP POP JUMP JUMPDEST PUSH1 0x0 PUSH2 0x1A81 PUSH2 0x1A92 JUMP JUMPDEST SWAP1 POP PUSH2 0x1A8D DUP3 DUP3 PUSH2 0x1C43 JUMP JUMPDEST SWAP2 SWAP1 POP JUMP JUMPDEST PUSH1 0x0 PUSH1 0x40 MLOAD SWAP1 POP SWAP1 JUMP JUMPDEST PUSH1 0x0 PUSH8 0xFFFFFFFFFFFFFFFF DUP3 GT ISZERO PUSH2 0x1AB7 JUMPI PUSH2 0x1AB6 PUSH2 0x1C7E JUMP JUMPDEST JUMPDEST PUSH1 0x20 DUP3 MUL SWAP1 POP PUSH1 0x20 DUP2 ADD SWAP1 POP SWAP2 SWAP1 POP JUMP JUMPDEST PUSH1 0x0 PUSH8 0xFFFFFFFFFFFFFFFF DUP3 GT ISZERO PUSH2 0x1AE3 JUMPI PUSH2 0x1AE2 PUSH2 0x1C7E JUMP JUMPDEST JUMPDEST PUSH2 0x1AEC DUP3 PUSH2 0x1CCB JUMP JUMPDEST SWAP1 POP PUSH1 0x20 DUP2 ADD SWAP1 POP SWAP2 SWAP1 POP JUMP JUMPDEST PUSH1 0x0 PUSH8 0xFFFFFFFFFFFFFFFF DUP3 GT ISZERO PUSH2 0x1B14 JUMPI PUSH2 0x1B13 PUSH2 0x1C7E JUMP JUMPDEST JUMPDEST PUSH2 0x1B1D DUP3 PUSH2 0x1CCB JUMP JUMPDEST SWAP1 POP PUSH1 0x20 DUP2 ADD SWAP1 POP SWAP2 SWAP1 POP JUMP JUMPDEST PUSH1 0x0 DUP2 SWAP1 POP PUSH1 0x20 DUP3 ADD SWAP1 POP SWAP2 SWAP1 POP JUMP JUMPDEST PUSH1 0x0 DUP2 MLOAD SWAP1 POP SWAP2 SWAP1 POP JUMP JUMPDEST PUSH1 0x0 DUP2 MLOAD SWAP1 POP SWAP2 SWAP1 POP JUMP JUMPDEST PUSH1 0x0 PUSH1 0x20 DUP3 ADD SWAP1 POP SWAP2 SWAP1 POP JUMP JUMPDEST PUSH1 0x0 DUP3 DUP3 MSTORE PUSH1 0x20 DUP3 ADD SWAP1 POP SWAP3 SWAP2 POP POP JUMP JUMPDEST PUSH1 0x0 DUP3 DUP3 MSTORE PUSH1 0x20 DUP3 ADD SWAP1 POP SWAP3 SWAP2 POP POP JUMP JUMPDEST PUSH1 0x0 DUP2 SWAP1 POP SWAP3 SWAP2 POP POP JUMP JUMPDEST PUSH1 0x0 PUSH2 0x1B95 DUP3 PUSH2 0x1BCA JUMP JUMPDEST SWAP1 POP SWAP2 SWAP1 POP JUMP JUMPDEST PUSH1 0x0 DUP2 ISZERO ISZERO SWAP1 POP SWAP2 SWAP1 POP JUMP JUMPDEST PUSH1 0x0 DUP2 SWAP1 POP SWAP2 SWAP1 POP JUMP JUMPDEST PUSH1 0x0 DUP2 SWAP1 POP SWAP2 SWAP1 POP JUMP JUMPDEST PUSH1 0x0 PUSH2 0xFFFF DUP3 AND SWAP1 POP SWAP2 SWAP1 POP JUMP JUMPDEST PUSH1 0x0 PUSH20 0xFFFFFFFFFFFFFFFFFFFFFFFFFFFFFFFFFFFFFFFF DUP3 AND SWAP1 POP SWAP2 SWAP1 POP JUMP JUMPDEST PUSH1 0x0 DUP2 SWAP1 POP SWAP2 SWAP1 POP JUMP JUMPDEST PUSH1 0x0 PUSH1 0xFF DUP3 AND SWAP1 POP SWAP2 SWAP1 POP JUMP JUMPDEST DUP3 DUP2 DUP4 CALLDATACOPY PUSH1 0x0 DUP4 DUP4 ADD MSTORE POP POP POP JUMP JUMPDEST PUSH1 0x0 JUMPDEST DUP4 DUP2 LT ISZERO PUSH2 0x1C2E JUMPI DUP1 DUP3 ADD MLOAD DUP2 DUP5 ADD MSTORE PUSH1 0x20 DUP2 ADD SWAP1 POP PUSH2 0x1C13 JUMP JUMPDEST DUP4 DUP2 GT ISZERO PUSH2 0x1C3D JUMPI PUSH1 0x0 DUP5 DUP5 ADD MSTORE JUMPDEST POP POP POP POP JUMP JUMPDEST PUSH2 0x1C4C DUP3 PUSH2 0x1CCB JUMP JUMPDEST DUP2 ADD DUP2 DUP2 LT PUSH8 0xFFFFFFFFFFFFFFFF DUP3 GT OR ISZERO PUSH2 0x1C6B JUMPI PUSH2 0x1C6A PUSH2 0x1C7E JUMP JUMPDEST JUMPDEST DUP1 PUSH1 0x40 MSTORE POP POP POP JUMP JUMPDEST PUSH1 0x0 DUP2 SWAP1 POP SWAP2 SWAP1 POP JUMP JUMPDEST PUSH32 0x4E487B7100000000000000000000000000000000000000000000000000000000 PUSH1 0x0 MSTORE PUSH1 0x41 PUSH1 0x4 MSTORE PUSH1 0x24 PUSH1 0x0 REVERT JUMPDEST PUSH1 0x0 DUP1 REVERT JUMPDEST PUSH1 0x0 DUP1 REVERT JUMPDEST PUSH1 0x0 DUP1 REVERT JUMPDEST PUSH1 0x0 DUP1 REVERT JUMPDEST PUSH1 0x0 DUP1 REVERT JUMPDEST PUSH1 0x0 DUP1 REVERT JUMPDEST PUSH1 0x0 PUSH1 0x1F NOT PUSH1 0x1F DUP4 ADD AND SWAP1 POP SWAP2 SWAP1 POP JUMP JUMPDEST PUSH32 0x4661696C6564205369676E617475726520566572696669636174696F6E210000 PUSH1 0x0 DUP3 ADD MSTORE POP JUMP JUMPDEST PUSH32 0x19457468657265756D205369676E6564204D6573736167653A0A333200000000 PUSH1 0x0 DUP3 ADD MSTORE POP JUMP JUMPDEST PUSH32 0x496E76616C6964205369676E6174757265204C656E6774680000000000000000 PUSH1 0x0 DUP3 ADD MSTORE POP JUMP JUMPDEST PUSH32 0x596F752068617665206E6F205265616420436C656172656E636520746F204F62 PUSH1 0x0 DUP3 ADD MSTORE PUSH32 0x6A65637420436C656172656E636520486967686572207468616E20796F752121 PUSH1 0x20 DUP3 ADD MSTORE PUSH32 0x2100000000000000000000000000000000000000000000000000000000000000 PUSH1 0x40 DUP3 ADD MSTORE POP JUMP JUMPDEST PUSH32 0x4E6F20436C6572656E6365212121000000000000000000000000000000000000 PUSH1 0x0 DUP3 ADD MSTORE POP JUMP JUMPDEST PUSH32 0x596F752068617665206E6F20577269746520436C656172656E636520746F204F PUSH1 0x0 DUP3 ADD MSTORE PUSH32 0x626A65637420436C656172656E6365204C6F776572207468616E20796F752121 PUSH1 0x20 DUP3 ADD MSTORE PUSH32 0x2100000000000000000000000000000000000000000000000000000000000000 PUSH1 0x40 DUP3 ADD MSTORE POP JUMP JUMPDEST PUSH2 0x1E73 DUP2 PUSH2 0x1B9C JUMP JUMPDEST DUP2 EQ PUSH2 0x1E7E JUMPI PUSH1 0x0 DUP1 REVERT JUMPDEST POP JUMP JUMPDEST PUSH2 0x1E8A DUP2 PUSH2 0x1BA8 JUMP JUMPDEST DUP2 EQ PUSH2 0x1E95 JUMPI PUSH1 0x0 DUP1 REVERT JUMPDEST POP JUMP JUMPDEST PUSH2 0x1EA1 DUP2 PUSH2 0x1BB2 JUMP JUMPDEST DUP2 EQ PUSH2 0x1EAC JUMPI PUSH1 0x0 DUP1 REVERT JUMPDEST POP JUMP JUMPDEST PUSH2 0x1EB8 DUP2 PUSH2 0x1BBC JUMP JUMPDEST DUP2 EQ PUSH2 0x1EC3 JUMPI PUSH1 0x0 DUP1 REVERT JUMPDEST POP JUMP JUMPDEST PUSH2 0x1ECF DUP2 PUSH2 0x1BEA JUMP JUMPDEST DUP2 EQ PUSH2 0x1EDA JUMPI PUSH1 0x0 DUP1 REVERT JUMPDEST POP JUMP JUMPDEST PUSH2 0x1EE6 DUP2 PUSH2 0x1BF4 JUMP JUMPDEST DUP2 EQ PUSH2 0x1EF1 JUMPI PUSH1 0x0 DUP1 REVERT JUMPDEST POP JUMP INVALID LOG2 PUSH5 0x6970667358 0x22 SLT KECCAK256 0xAF SDIV DUP7 0xBC SMOD SWAP10 EXTCODESIZE PUSH18 0xB64499AB711D713F47BCD44362D301888117 0x5C 0x4F 0xAD 0xC 0xEF 0xEB PUSH5 0x736F6C6343 STOP ADDMOD SMOD STOP CALLER "
		},
		"gasEstimates": {
			"creation": {
				"codeDepositCost": "1595600",
				"executionCost": "infinite",
				"totalCost": "infinite"
			},
			"external": {
				"addNewPatient(string,bytes,uint16,(uint256,int256,int256,int256,bytes32,bytes32,bytes32,bytes32))": "infinite",
				"getAllRecords(string,bytes,uint256)": "infinite",
				"getLatestOneRec(string,bytes,uint256)": "infinite"
			},
			"internal": {
				"_checkObjClr(address)": "infinite",
				"_checkSubClr(address)": "infinite"
			}
		},
		"methodIdentifiers": {
			"addNewPatient(string,bytes,uint16,(uint256,int256,int256,int256,bytes32,bytes32,bytes32,bytes32))": "f0d6e2c1",
			"getAllRecords(string,bytes,uint256)": "973d1293",
			"getLatestOneRec(string,bytes,uint256)": "03365eb8"
		}
	},
	"abi": [
		{
			"inputs": [
				{
					"internalType": "address",
					"name": "_AccesssControlAddr",
					"type": "address"
				},
				{
					"internalType": "address",
					"name": "_AdmStrgAddr",
					"type": "address"
				}
			],
			"stateMutability": "nonpayable",
			"type": "constructor"
		},
		{
			"inputs": [
				{
					"internalType": "string",
					"name": "_message",
					"type": "string"
				},
				{
					"internalType": "bytes",
					"name": "_sig",
					"type": "bytes"
				},
				{
					"internalType": "uint16",
					"name": "_subjectID",
					"type": "uint16"
				},
				{
					"components": [
						{
							"internalType": "uint256",
							"name": "HadmID",
							"type": "uint256"
						},
						{
							"internalType": "int256",
							"name": "AdmitTime",
							"type": "int256"
						},
						{
							"internalType": "int256",
							"name": "DischTime",
							"type": "int256"
						},
						{
							"internalType": "int256",
							"name": "DeathTime",
							"type": "int256"
						},
						{
							"internalType": "bytes32",
							"name": "Admission_Type",
							"type": "bytes32"
						},
						{
							"internalType": "bytes32",
							"name": "Admission_Location",
							"type": "bytes32"
						},
						{
							"internalType": "bytes32",
							"name": "Discharge_Location",
							"type": "bytes32"
						},
						{
							"internalType": "bytes32",
							"name": "Insurance",
							"type": "bytes32"
						}
					],
					"internalType": "struct IStrgAccess.PatientRecords",
					"name": "addPnt",
					"type": "tuple"
				}
			],
			"name": "addNewPatient",
			"outputs": [],
			"stateMutability": "nonpayable",
			"type": "function"
		},
		{
			"inputs": [
				{
					"internalType": "string",
					"name": "_message",
					"type": "string"
				},
				{
					"internalType": "bytes",
					"name": "_sig",
					"type": "bytes"
				},
				{
					"internalType": "uint256",
					"name": "_subjectID",
					"type": "uint256"
				}
			],
			"name": "getAllRecords",
			"outputs": [
				{
					"components": [
						{
							"internalType": "uint256",
							"name": "HadmID",
							"type": "uint256"
						},
						{
							"internalType": "int256",
							"name": "AdmitTime",
							"type": "int256"
						},
						{
							"internalType": "int256",
							"name": "DischTime",
							"type": "int256"
						},
						{
							"internalType": "int256",
							"name": "DeathTime",
							"type": "int256"
						},
						{
							"internalType": "bytes32",
							"name": "Admission_Type",
							"type": "bytes32"
						},
						{
							"internalType": "bytes32",
							"name": "Admission_Location",
							"type": "bytes32"
						},
						{
							"internalType": "bytes32",
							"name": "Discharge_Location",
							"type": "bytes32"
						},
						{
							"internalType": "bytes32",
							"name": "Insurance",
							"type": "bytes32"
						}
					],
					"internalType": "struct IStrgAccess.PatientRecords[]",
					"name": "",
					"type": "tuple[]"
				}
			],
			"stateMutability": "nonpayable",
			"type": "function"
		},
		{
			"inputs": [
				{
					"internalType": "string",
					"name": "_message",
					"type": "string"
				},
				{
					"internalType": "bytes",
					"name": "_sig",
					"type": "bytes"
				},
				{
					"internalType": "uint256",
					"name": "_subjectID",
					"type": "uint256"
				}
			],
			"name": "getLatestOneRec",
			"outputs": [
				{
					"components": [
						{
							"internalType": "uint256",
							"name": "HadmID",
							"type": "uint256"
						},
						{
							"internalType": "int256",
							"name": "AdmitTime",
							"type": "int256"
						},
						{
							"internalType": "int256",
							"name": "DischTime",
							"type": "int256"
						},
						{
							"internalType": "int256",
							"name": "DeathTime",
							"type": "int256"
						},
						{
							"internalType": "bytes32",
							"name": "Admission_Type",
							"type": "bytes32"
						},
						{
							"internalType": "bytes32",
							"name": "Admission_Location",
							"type": "bytes32"
						},
						{
							"internalType": "bytes32",
							"name": "Discharge_Location",
							"type": "bytes32"
						},
						{
							"internalType": "bytes32",
							"name": "Insurance",
							"type": "bytes32"
						}
					],
					"internalType": "struct IStrgAccess.PatientRecords",
					"name": "",
					"type": "tuple"
				}
			],
			"stateMutability": "nonpayable",
			"type": "function"
		}
	]
}